:020000040001F9
:10800000E02900207DC6010097C6010099C6010045
:108010000000000000000000000000000000000060
:108020000000000000000000000000009BC60100EE
:1080300000000000000000009DC601009FC6010076
:10804000A1C60100A1C60100A5AB0100A1C60100A7
:10805000A1C6010000000000378E01007D880100EC
:10806000A1C60100A1C6010011A30100A1C6010023
:10807000A1C60100A1C60100A1C60100A1C6010060
:10808000A1C60100078C0100A1C60100A1C6010024
:10809000A1C60100A1C6010093D60100A1C601003E
:1080A000A1C60100A1C60100000000000000000000
:1080B00000000000000000000000000000000000C0
:1080C00000F002F800F040F80CA030C8083824187E
:1080D0002D18A246671EAB4654465D46AC4201D100
:1080E00000F032F87E460F3E0FCCB64601263342F2
:1080F00000D0FB1AA246AB4633431847585A00003B
:10810000785A0000103A02D378C878C1FAD85207DA
:1081100001D330C830C101D504680C60704700003D
:108120000023002400250026103A01D378C1FBD893
:10813000520700D330C100D50B6070471FB5C04651
:10814000C0461FBD10B510BD05F034FC1146FFF749
:10815000F5FF00F039FB05F04CFC03B4FFF7F2FF2C
:1081600003BC05F051FC0000401E00BF00BF00BF73
:1081700000BF00BF00BF00BF00BF00BF00BF00BF07
:1081800000BFF1D17047000070B505460C46164699
:1081900002E00FCC0FC5103E102EFAD2082E02D3EB
:1081A00003CC03C5083E042E07D301CC01C5361FFE
:1081B00003E021782970641C6D1C761EF9D270BD15
:1081C00070B505460C46102C00DD10242246FE49F1
:1081D000284605F0D5FA70BD642005F05DF900BFB2
:1081E000BFF34F8FF948FA49C860BFF34F8F00BF04
:1081F00000BFFEE770B58EB00546F648056000BFCB
:1082000008A8007D01090901491C0D9108A8007DFD
:10821000F021884310300D9000BFEE48006805F053
:108220008DFA86B23246EB4801680DA87CDF044621
:1082300000BF2646002E05D000BF00221146304662
:10824000FFF7CAFF00BF302101A805F001FB0421A0
:108250006846C17102210171002101A802F0A6FB4C
:10826000044600BF2646002E05D000BF002211465E
:108270003046FFF7B1FF00BF0EB070BD04460D469B
:108280002A462146D448FFF7A7FF7CB5002078DFB7
:10829000044600BF2546002D05D000BF0022114630
:1082A0002846FFF799FF00BF002000900190182199
:1082B000684601803021418000218180FF21913179
:1082C000C1807ADF044600BF2546002D05D000BFDF
:1082D000002211462846FFF77FFF00BF7CBD10B586
:1082E0001821BE4805F0B4FA0020BC490870486067
:1082F0000872C82008820020488210BD70B505466B
:108300000C462068007880280CDAB5480068002800
:108310000ED02668B21C71783078B14E3668B369D9
:10832000984705E023689A1C5978187801F034FBC7
:1083300070BD38B500200090AA4800906946AA4850
:1083400001F03DF8044600BF2546002D05D000BFD2
:10835000002211462846FFF73FFF00BF38BDF8B5A1
:1083600006460F46144600BF2546002D05D000BF27
:10837000002211462846FFF72FFF00BF0020F8BD5E
:108380007FB504F039FD044600BF2546002D05D019
:1083900000BF002211462846FFF71EFF00BF002045
:1083A000039003A803F09EF8044600BF2546002D65
:1083B00005D000BF002211462846FFF70DFF00BF81
:1083C000052101A8013005F041FA684640794108CD
:1083D0004900491C684641714079022188430146A1
:1083E0006846417140791C21884301460C3168463A
:1083F0004171407920218843014668464171072137
:1084000081711021C1717948009001216846017184
:108410006946774803F0D9F8044600BF2546002D89
:1084200005D000BF002211462846FFF7D5FE00BF49
:108430007FBD70B58CB005460C46164610226D49BE
:10844000684605F09DF9102C00DD102422462946CF
:1084500004A805F095F968464DDF102208A93046BA
:1084600005F08EF90CB070BD38B5684604F06FFFAA
:10847000044600BF2546002D05D000BF002211464E
:108480002846FFF7A9FE00BF0098002803D001206E
:108490005949087038BD3CDF044600BF2546002D11
:1084A00005D000BF002211462846FFF795FE00BF09
:1084B00000BFEFE710B50446022C02D0032C0BD10D
:1084C00000E000BF4C480078002804D000204A4952
:1084D0000870FFF7C9FF00E000BF00BF10BD10B576
:1084E0000446204604F0AEFB2046FFF7E3FF10BD34
:1084F00070B53A4873DF044600BF2546002D05D00D
:1085000000BF002211462846FFF766FE00BF70BD7F
:1085100070B504462088102804D011280ED01928E0
:108520002ED12CE0A088354908802D48006800280D
:1085300003D02B4909680869804722E0A57900200B
:10854000C0432E490880082D09D12548006800281D
:108550000ED02348006841690120884708E0204880
:108560000068002804D01E48006841690020884740
:108570001B480068002801D1FFF7BAFF01E000E0C6
:1085800000BF00BF70BD10B50446204603F093FC49
:108590002146154800F03CFD2046FFF7B9FF10BD0D
:1085A000F0B585B000BF002348221549132005F01F
:1085B00028F8074600BF0097009F002F24D000BF77
:1085C0000022114600981DE0041C00200400FA055A
:1085D00000ED00E0141B0020EFBEADDEEC1B002020
:1085E0004C1B0020FD820100C01B00205F830100A6
:1085F000111B002032DA0100101B0020121B00208A
:10860000141C0020FFF7E8FD00BF00BF0020019010
:1086100002906946087101204002029001A860DFC3
:10862000044600BF2746002F05D000BF0022114698
:108630003846FFF7D1FD00BF814805F018F8044621
:1086400000BF2746002F05D000BF00221146384644
:10865000FFF7C2FD00BF7B4805F012F8044600BFDB
:108660002746002F05D000BF002211463846FFF7ED
:10867000B3FD00BF744871DF744A06217248401C84
:10868000FFF7D7FE01207049087071A00390002603
:10869000002504E00398405D8019C6B26D1C082DCA
:1086A000F8D369484078801967494870002070DF26
:1086B00000BF6846007C01090901491C0491684615
:1086C000007CF02188431030049000BF63480068AC
:1086D00005F034F887B23A466048016804A87CDFA8
:1086E000044600BF2746002F05D000BF00221146D8
:1086F0003846FFF771FD00BF05B0F0BD1CB504465C
:10870000514903C901910090684640780019C1B2EF
:10871000684641706946002070DF1CBD70B574DF8B
:10872000044600BF2546002D05D000BF002211469B
:108730002846FFF751FD00BF70BD494908827047C8
:1087400070B548480088484988420FD013214548F1
:10875000008876DF044600BF2546002D05D000BF07
:10876000002211462846FFF737FD0CE074DF04466F
:1087700000BF2546002D05D000BF00221146284627
:10878000FFF72AFD00BF70BD364800883649884291
:1087900001D0012070470020FCE770B53148008807
:1087A000314988420FD013212E48008876DF0446D5
:1087B00000BF2546002D05D000BF002211462846E7
:1087C000FFF70AFD00BF70BD00F0AAFF00F078FAC5
:1087D000FFF7E6FEFFF7D4FD00F08AFBFFF755FD3B
:1087E000FFF77DFDFFF7A5FD00F00AF901F0C2FDDE
:1087F0001E480068002808D01C48006800280CD0DB
:108800001A4909684868804707E019A0FFF7F2FC99
:10881000C820FFF792FFFFF76BFE00BF00F0C8F91A
:1088200001F006F948DF044600BF2546002D05D0BB
:1088300000BF002211462846FFF7CEFCEEE70000FD
:1088400087850100DF840100181B0020041C002024
:1088500030373A31373A303100000000141B002025
:10886000EC1B0020121B0020FFFF00004C1B00200F
:108870004F5441204D6F64650000000010B55A4808
:108880000068002811D000205749086057488468C4
:1088900001205749486057490C805748006800F04C
:1088A000F5F800205449086000BF10BD70B50720DE
:1088B00032DF044600BF2546002D06D000BF00224F
:1088C00011462846FFF788FC00BF00BF03210720A0
:1088D00033DF044600BF2546002D06D000BF00222E
:1088E00011462846FFF778FC00BF00BF07202EDFA7
:1088F000044600BF2546002D06D000BF00221146C9
:108900002846FFF769FC00BF00BF00203649086019
:1089100001203749086070BD10B50446364800682C
:10892000002800D010BD344804600120334948605D
:1089300018202E49486000202B49086001202B494F
:108940000860FFF7B3FF00BFECE7F7B506460F4638
:1089500029480068002800D0FEBD27490298086019
:10896000052E1CD008DC012E11D0022E11D0032EB2
:1089700011D0042E17D110E0062E12D01A2E02D0DC
:108980001B2E10D101E001240DE002240BE0042491
:1089900009E0082407E0102405E0202403E0402437
:1089A00001E0802400BF00BF082F02D0092F04D1AE
:1089B00001E0002503E0012501E0022500BF00BF22
:1089C00001200E4948602846082108432102084337
:1089D00006494860002004490860012003490860F6
:1089E000FFF764FF00BFB7E700710040007500406B
:1089F00000700040241B0020201B0020007300405A
:108A000010B5002407E0601C0001A14940182101B5
:108A10009F4A5050641C0F2CF5DB00219C4880308D
:108A2000016780389B490860F03048601F209A49F0
:108A300088600321112000F0F4F801200004974918
:108A40004860964940394860112001218140944A8C
:108A5000116000BF00BF01218140924A116000BF38
:108A600001209149086010BD8A48006800280BD099
:108A700088480168874A0868106010460068002826
:108A800000D15060084670470020FCE7F8B5064664
:108A90000F46864DFFF7E8FF0446002C0DD06660B8
:108AA000A7600020E06020606868002803D0686844
:108AB00004606C6001E06C602C60F8BD7648406832
:108AC000704710B57A4B1B68002B12D0FFF7F6FFEA
:108AD000774B1B68D968C31CCB1A1B021B0A754C49
:108AE000A34201D20A4600E0C21C6B4B40331A601D
:108AF00005E0FFF7E3FF431E674C4034236010BDE1
:108B0000F7B507466A4EFFF7AFFF0446002C32D098
:108B100067600198A0600298E0603568002D07D07A
:108B2000E868E168401A0002000A6249884207D2F8
:108B3000306820603460706800281AD1746018E0D2
:108B400014E02868002808D02868C068E168401A46
:108B50000002000A5749884207D2286820602C602A
:108B60007068A84200D1746002E02D68002DE8D141
:108B700000BFFFF7A6FFFEBD70B504460E46256890
:108B80002068006820602068002800D16060696863
:108B9000A86888473F484068002805D03D4840689D
:108BA00005603C48456002E03A484560056070BD9C
:108BB00070B53F4C00BF002615E02068002800D1AA
:108BC00012E0FFF77BFF05462068C068281A000204
:108BD000000A3849884205D229462046FFF7CCFFD3
:108BE000012600E000E0E8E700BF304C20680028E4
:108BF00004D000212046FFF7BFFF0126002EDAD166
:108C0000FFF75FFF70BD00202B49086000212A4854
:108C100041608160C1600020274940390860486098
:108C2000704710B5002819DA244A03071B0F083BC8
:108C30009B089B00D2588307DC0EFF23A3409A4376
:108C40008B071B0E8407E40EA3401A431B4B04073B
:108C5000240F083CA408A4001A5118E0114A032369
:108C60001B02D21883089B00D2588307DC0EFF2317
:108C7000A3409A438B071B0E8407E40EA3401A43BC
:108C8000084B032424021B198408A4001A5110BDA8
:108C90005C1C0020281B00200015014040130140EF
:108CA00080E200E000E100E000100140381B0020FD
:108CB000301B0020FFFF7F00401101401CED00E051
:108CC00010B50020C0438249886006200121814000
:108CD000804A116000BF032100F0B8F8062001218E
:108CE00081407D4A116000BF10BD70B504460D463D
:108CF000012D06D0022D0FD0032D12D0042D1AD134
:108D000014E000BF03200521090707221202891879
:108D1000A200885000BF0EE00021204600F0CDF8F0
:108D200009E00321204600F0C8F804E001212046B4
:108D300000F0C3F800BF00BF70BD30B5024610465A
:108D40000B46002B06D100BF01248440634DEC602C
:108D500000BF06E000BF01248440604DAC6000BF4E
:108D600000BF00BF30BD014600BF5C480069C8407D
:108D7000C007C00F704730B50A460023584CE36364
:108D80006306534C6360002A01D0990B01E0032174
:108D9000090405231B07072424021B1984001B59FF
:108DA00003242404A3430524240707252D02641962
:108DB0008500635105231B07072424021B19840027
:108DC0001B590B430524240707252D026419850030
:108DD000635130BD0521090707221202891882005C
:108DE00089580322120491430522120707231B020C
:108DF000D2188300D15005210907072212028918D1
:108E0000820089580522120707231B02D21883000B
:108E1000D1500121C9072E4A9160704770B50446B0
:108E2000254630480068002804D02E480068816834
:108E30002846884770BD10B5284804690020284995
:108E4000C86321462848FFF721FE10BD10B5002851
:108E500019DA264A03071B0F083B9B089B00D258D0
:108E60008307DC0EFF23A3409A438B071B0E840766
:108E7000E40EA3401A431D4B0407240F083CA4082A
:108E8000A4001A5118E0144A03231B02D2188308C5
:108E90009B00D2588307DC0EFF23A3409A438B0725
:108EA0001B0E8407E40EA3401A430B4B0324240239
:108EB0001B198408A4001A5110BD10B58A0005239F
:108EC0001B07072424021B1984001A5110BD00003F
:108ED0000063004080E200E000E100E00005005097
:108EE000406100404C1B00201D8E01001CED00E085
:108EF0001FB5044B0FCB6C460FC40349684663DFB4
:108F00001FBD000044DA0100401B00208A88C28493
:108F10000022FE4B1A8070470022D243C284704761
:108F2000F8B505460C4626461A36208B002826DD65
:108F30002868002823D0208B022800DAF8BDF448E6
:108F40004078801CC82800DDF8E70020EF49088041
:108F5000228B3146EE4804F013FC208BEB49098844
:108F60004018EA4908807078801C218B884205D11E
:108F7000E7480090694628462A68904700BF00BF2E
:108F8000DCE7F8B505460C4626461A36208B002845
:108F900026DD2868002823D0208BDC490988411869
:108FA000DB484078801C814219DC228BD849D74BA2
:108FB0001B88C818314604F0E3FB208BD34909888D
:108FC0004018D2490880D2484078801C09888842DD
:108FD00005D1CF480090694628462A68904700BFCF
:108FE000F8BD70B504460E46B51D2888E188884254
:108FF00004D129462046FFF793FF07E02888E18A3D
:10900000884203D129462046FFF7BBFF70BD704759
:1090100070B505460C462088012815D0102804D0CC
:10902000112807D0502814D109E021462846FFF71F
:109030006DFF0FE021462846FFF76EFF0AE021464C
:109040002846FFF7CEFF05E021462846FFF7DFFF61
:1090500000E000BF00BF70BD30B58FB004460D46C4
:109060001C2108A804F0F4FB08A800780821884314
:10907000411808A80170002009900B900C900D90E9
:109080000E90A448017868468172A34901810020AE
:10909000019000BF68460079010909016846017125
:1090A0000079F02188436946087100BF00BF684617
:1090B000407901090901491C684641714079F02154
:1090C000884310306946487100BF684680790621A0
:1090D0008843811C68468171807908218843014654
:1090E0006846817180791021884301466846817104
:1090F000807941084900491C68468171142103A800
:1091000004F0A6FB02A8039001A804900021684681
:109110008182C1821721018300200790A088A31DAE
:1091200003AA08A9A2DF0FB030BD30B58FB0044646
:109130000D461C2108A804F08BFB08A80078042128
:109140008843011D08A80170002009900B900C9025
:109150000D900E906F480178684681726E49891CA7
:1091600001810020019000BF6846007901090901D2
:10917000684601710079F02188436946087100BF93
:1091800000BF6846407901090901491C68464171E0
:109190004079F021884310306946487100BF684625
:1091A000807906218843811C684681718079082175
:1091B00088430146684681718079102188430146C1
:1091C00068468171807941084900491C684681716F
:1091D000142103A804F03CFB02A8039001A804900A
:1091E000002168468182C1821721018300200790F7
:1091F000A0882346163303AA08A9A2DF0FB030BD0A
:1092000030B58FB004460D461C2108A804F020FBA1
:1092100008A8007810218843411808A80170002090
:1092200009900B900C900D900E903A48017868468A
:1092300081723949491C01810020019000BF6846B4
:10924000007901090901491C684601710079F02182
:10925000884310306946087100BF00BF68464079F6
:1092600001090901684641714079F0218843694646
:10927000487100BF6846807906218843811C684692
:10928000817180790821884301466846817180791F
:109290001021884301466846817180794108490060
:1092A000491C68468171142103A804F0D1FA02A870
:1092B000039001A80490002168468182C182172191
:1092C000018300200790A08823460E3303AA08A933
:1092D000A2DF0FB030BD30B58FB004460D461C2163
:1092E00008A804F0B5FA08A80078102188434118AE
:1092F00008A80170002009900B900C900D900E9022
:109300000448017868468172034907E0421B002047
:109310005C1D0020401B002001800000C91C018151
:109320000020019000BF6846007901090901491C2D
:10933000684601710079F021884310306946087150
:1093400000BF00BF684640790109090168464171C4
:109350004079F02188436946487100BF68468079AA
:1093600006218843811C68468171807908218843E1
:10937000014668468171807910218843014668461C
:109380008171807941084900491C68468171142126
:1093900003A804F05DFA02A8039001A8049000213C
:1093A00068468182C1821721018300200790A0882E
:1093B00023461E3303AA08A9A2DF0FB030BDF8B5BB
:1093C00005460E460121C9036846018044480178DC
:1093D00068468170306828600020C043E8842A1DF8
:1093E00069460120A0DF0446002C01D02046F8BDCC
:1093F00031462846FFF730FE0446002C01D02046B7
:10940000F5E731462846FFF790FE0446002C01D0D0
:109410002046ECE731462846FFF7F2FE0446002CD2
:1094200001D02046E3E731462846FFF754FF0446C3
:10943000002C01D02046DAE70020D8E7F0B585B04F
:1094400004460F461646E08C264988421BD00496F7
:1094500000200090019002900390E189684601800D
:10946000012181700021818004A802900397E08C83
:109470006946A6DF0546002D04D16846008AB04241
:1094800000D00C2500E00825284605B0F0BDF0B559
:1094900085B004460F461646E08C124988421BD020
:1094A000049600200090019002900390E18B6846A2
:1094B0000180012181700021818004A8029003971E
:1094C000E08C6946A6DF0546002D04D16846008A77
:1094D000B04200D00C2500E00825284605B0F0BDBC
:1094E000401B0020FFFF0000F1B582B0029D01206B
:1094F0007649C8607649C86307207649086100202C
:109500008860FF207149152292018918C8600020E7
:109510007049486008207049086000216E48C038D2
:10952000C16081604160016000245FE0691C085DEA
:1095300000F0C3F8281D015D6448152292018018CF
:10954000A2008150691C085D00F0B7F8624BC03B77
:10955000A6009919A300614E9A196306180E23DF1D
:10956000620001219140084621DFA3009A195A495F
:10957000B43963005B1CD8B223DF6100491C0122AF
:109580008A40104621DF6A1C2046125C032100231A
:10959000019300923346512212019A188300D25847
:1095A0004F4B1A403346512636019B1986009A517B
:1095B0004A4A51231B01D2188300D658009A12023E
:1095C0001F231B021A400B040F043B401A43019B4C
:1095D0001B0501273F053B401A4316433F4A5123D1
:1095E0001B01D2188300D65000BF641C032C9DDBE6
:1095F000012036490860FEBD70B504460D460322C1
:109600002146384804F0BCF83649491ECD7170BD7A
:1096100010B501203349491E08703348FFF736FA68
:1096200010BD10B500202F49491E087001202749A0
:10963000C86000202649C863002428E000BF2748EE
:10964000512109014018A100405880088000234999
:10965000512212018918A200885000BF2149085DDB
:1096600000F02BF81F4A105D0121002906D100BF30
:10967000012282401D4BDA6000BF06E000BF0122DC
:1096800082401A4B9A6000BF00BF00BF641C032CCD
:10969000D4DB10BD10B50446032221461148C01C7E
:1096A00004F06EF80F48401E0078002804D00D49E1
:1096B000491E0D48FFF7EAF910BD032105221207E4
:1096C00007231B02D2188300D150704700A000402E
:1096D000C0AF004000A5004000A200400060004074
:1096E000FFE0ECFF451B0020E9940100000500505D
:1096F00070B586B005460C461646122C00D91224C9
:1097000068460571447122463146801D04F038F8E0
:10971000A01CC2B201A91648FFF790FE06B070BDAA
:1097200010B50124640403211020FFF7DEFA102095
:10973000FFF719FB002802D10E49086002E00E482D
:109740000C4908600B480068002804D009480068EC
:1097500001680A48884710BD38B5684652DF00984E
:10976000C117890F091889100C460A3C60B238BD30
:10977000C01B00204C1B00200001020064DA010025
:1097800070B505462C46207B00F0E4F8207B0121D3
:10979000002906D100BF01228240734BDA6000BF6E
:1097A00006E000BF012282406F4B9A6000BF00BFFD
:1097B00000BF02206D495122120189188200895888
:1097C00089088900694A51231B01D2188300D150AE
:1097D00000BF01206649C86000206649C86361680F
:1097E000A068884209D2FFF769F906463236324648
:1097F00029466148FFF784F915E0607B401C6073DF
:10980000607B03280CDA00205C498860FFF756F97A
:109810005B494618324659495748FFF771F902E04B
:1098200000205649887370BDFEB504462546AA68D7
:109830009200286881580120C00304F00BF80290C0
:1098400001204B49C8604B49C86309204D49086154
:10985000287B00F07FF800204A4988600298800841
:109860004849403108600298400841491522920158
:109870008918486000204349486002204249086036
:1098800000214148C03841600160384A0832014631
:10989000002023DF012021DF02202A7B0321012376
:1098A00001930092314A51231B01D2188300D258F0
:1098B000364B1A402D4B512636019B1986009A5182
:1098C0002A4A51231B01D2188300D658009A12024B
:1098D0001F231B021A400B040F043B401A43019B39
:1098E0001B05C7043B401A431643204A51231B0162
:1098F000D2188300D65000BF01201D490860A86817
:10990000401CA860FFF7DAF80646C8363246214602
:109910001F48FFF7F5F8FEBD70B5044617480473FD
:109920001C4816490860042048600020886048737D
:109930000846807BC007C00F00280AD10120887329
:10994000FFF7BCF8054632352A460C490A48FFF7AE
:10995000D7F870BD03210522120707231B02D21876
:109960008300D150704700000005005000600040A7
:1099700000A00040C0AF004029980100241E002034
:10998000DC05000000A5004000A20040FFE0ECFF65
:109990008197010054DA010070B504460D46164661
:1099A000812C05D132462946204600F0FAFC00BF42
:1099B00000BF70BD0178002904D0032903D0042919
:1099C00002D102E001E000E000BF00BF7047F0B547
:1099D00089B005460E4668460576467600218176B2
:1099E000C176017741775248089000BF002005906A
:1099F00050480190802002904F48039080200490AE
:109A000005A803234D4A01A9009006A801F051F9C9
:109A1000044600BF00BF2746002F06D000BF00222B
:109A200011463846FEF7D8FB00BF00BF09B0F0BDB5
:109A300038B541E04248007822280ADA68460178C1
:109A40003F4802780078401C3D4B18703D488154D7
:109A500006E022213B4803F0F9FE00203849087057
:109A600038480078812807D02221364803F0EEFEDE
:109A700000203349087038BD31480078022800DAE8
:109A8000F9E7304844782E480178A01C814200DA7A
:109A9000F1E72C4DAD1C2C480068002805D02A4861
:109AA00000682146C269284690472221254803F0D4
:109AB000CDFE002022490870684601F060F90028B8
:109AC000B8D000BFD7E7F3B581B00E468121684614
:109AD00001704670002411E06946085D01F06EF9DE
:109AE000054600BF2F46002F06D000BF00221146BA
:109AF0003846FEF771FB00BF00BF641C022CEBDB95
:109B0000002411E00199085D01F058F9054600BFF5
:109B10002F46002F06D000BF002211463846FEF720
:109B20005BFB00BF00BF641CB442EBD3FEBD000072
:109B300000502700561E0020D61E0020B5990100B7
:109B4000501B0020341E00204C1B00204D49086093
:109B50007047FFB585B016464A480068C079B042E4
:109B600004DC48480068007AB04204DA45480068DE
:109B7000007909B0F0BD434909688879C117490FD8
:109B80000918C910C900411A002908DD3D490968B2
:109B90008879C117490F0918C9104C1C06E03949CA
:109BA00009688879C117490F0918CC103548006831
:109BB00040796043401CC0B203903248006802689C
:109BC00030480068C079311A039841435018029018
:109BD0000298007804900298401C029000252BE027
:109BE0000020019023E02846604302994118019823
:109BF000085C0090002714E00120B840009908405C
:109C000000280CD00198C20006981018C01981B223
:109C10000598401983B21846089A00F037F8781C66
:109C2000C7B2082FE8DB0198401CC0B20190019830
:109C3000A042D8DB681CC5B204988542D0DB0498EA
:109C400097E7FFB581B005460E4614460D480068FB
:109C500080790D490988081A401EB04201DA05B022
:109C6000F0BD0AE0227831462846049BFFF771FFD9
:109C7000C7B2781C281885B2641C20780028F1D15E
:109C800000BFECE7641B00205E1B0020F7B582B02C
:109C900004460E46FE480088401EA04204DBFD48F4
:109CA0000088401EB04201DA05B0F0BDF8490988CD
:109CB00071430819C117490F091849030D0C2046B3
:109CC000E117490F0918C910C900611A0722521A71
:109CD00001219140CFB20498022807D1EE480068D4
:109CE000405D7840EC49096848551BE0049800281D
:109CF00001D1012000E00020E8490978C907C90F17
:109D00004840002807D0E4480068405DB843E24975
:109D10000968485506E0E0480068405D3843DE4980
:109D200009684855F3B2E2B2F1B2E0B2019000F036
:109D300045FA00BFB8E7F0B587B004460D461646B1
:109D40001F46791B002901DB0A4600E04A42301B0E
:109D5000002801DB034600E043429A4201DD012274
:109D600000E0002206920698002806D0E0B22C46B9
:109D70000546F0B23E46074600BFB44206DDE0B2FB
:109D800034460646E8B23D46074600BFFBB2F2B293
:109D9000E9B2E0B2019000F011FA301BC0B20590B8
:109DA000781B002801DB014600E04142C9B2049162
:109DB0000598C10F0918491049B20391BD4202DA52
:109DC0000120029002E00020C04302901FE00698AC
:109DD000002805D0214628460C9AFFF757FF04E0DB
:109DE000294620460C9AFFF751FF04990398401A20
:109DF00040B203900398002807DA0298281885B229
:109E000005990398401840B20390601C84B2B44294
:109E1000DDDD07B0F0BDFEB504460D4616461F4613
:109E200020B2019015E028B200900AE0009A91B2A9
:109E3000019A90B2089AFFF729FF0098401C00B2DF
:109E40000090E91900988142F0DC0198401C00B2B2
:109E50000190A11901988142E5DCE819401EC3B2C6
:109E6000A019401EC2B2E9B2E0B2009000F0A6F91B
:109E7000FEBDFFB581B005460E4617462CB20EE07A
:109E8000A0B231460A9AFFF701FF049AB218521E97
:109E900091B2A0B20A9AFFF7F9FE601C04B2E81969
:109EA000A042EDDC34B20DE0A1B228460A9AFFF7D9
:109EB000EDFEA1B2EA19521E90B20A9AFFF7E6FE31
:109EC000601C04B204983018A042EDDC04983018ED
:109ED000401EC3B2E819401EC2B2F1B2E8B200900F
:109EE00000F06CF905B0F0BDFFB585B004460D4635
:109EF00016460120801B40B20490012003907000A0
:109F0000404240B20290002770B20190A819C3B23B
:109F1000A019C2B2A81BC1B2A01BC0B2009000F031
:109F20004DF9A81981B22046089AFFF7AFFEA81B89
:109F300081B22046089AFFF7A9FEA11988B22946E6
:109F4000089AFFF7A3FEA11B88B22946089AFFF7DB
:109F50009DFE5AE0049800280CDB0198401E40B298
:109F600001900298801C40B2029002990498401817
:109F700040B20490781C47B20398801C40B2039012
:109F800003990498401840B20490019AAA1891B21B
:109F9000E21990B2089AFFF779FE019AAA1891B2D5
:109FA000E21B90B2089AFFF771FE019AAA1A91B2C9
:109FB000E21990B2089AFFF769FE019AAA1A91B2C3
:109FC000E21B90B2089AFFF761FEEA1991B2019A7A
:109FD000A21890B2089AFFF759FEEA1991B2019AB5
:109FE000A21A90B2089AFFF751FEEA1B91B2019AA9
:109FF000A21890B2089AFFF749FEEA1B91B2019AA3
:10A00000A21A90B2089AFFF741FE01988742A1DB9D
:10A0100009B0F0BDFFB587B007460E4615460120D2
:10A02000401B40B20690012005906800404240B2BB
:10A0300004900020039068B202907019C3B278199E
:10A04000C2B2701BC1B2781BC0B2019000F0B6F86A
:10A05000701B04B206E0A1B238460A9AFFF716FE5A
:10A06000601C04B27019A042F5DA55E00698002889
:10A070000CDB0298401E40B202900498801C40B253
:10A08000049004990698401840B20690039807E09F
:10A090005C1B00205E1B0020541B0020601B002066
:10A0A000401C40B203900598801C40B20590059971
:10A0B0000698401840B206900298301A04B20FE099
:10A0C000A1B2039ABA1890B20A9AFFF7DFFDA1B2C3
:10A0D000039ABA1A90B20A9AFFF7D8FD601C04B22C
:10A0E00002983018A042EBDA0398301A04B20FE05D
:10A0F000A1B2029ABA1890B20A9AFFF7C7FDA1B2AC
:10A10000029ABA1A90B20A9AFFF7C0FD601C04B214
:10A1100003983018A042EBDA029903988842A5DB35
:10A120000BB0F0BDFFB583B006461D46002428E005
:10A13000002721E0394669430819C117490F09185A
:10A140004903090C02912046E117490F0918C9106B
:10A15000C900621A01219140C9B201910299059882
:10A16000405C01990840002804D0B9B2A0B20D9A11
:10A17000FFF78CFD781C07B20C988742DADB601C75
:10A1800004B2AC42D4DB0C9F0498C019401EC3B289
:10A190007019401EC2B20498C1B2F0B2009000F033
:10A1A0000DF807B0F0BD000010B53D4C20603D4CEF
:10A1B00021803D4C22803D4C237010BD10B5394CA0
:10A1C0002488641E844203DA364C2478641EE0B28C
:10A1D000344C2488641E944203DA324C2478641E82
:10A1E000E2B2314C2488641E8C4203DA2E4C24786F
:10A1F000641EE1B22C4C2488641E9C4203DA2A4C73
:10A200002478641EE3B22A4C2478844201DD284C71
:10A210002070274CA478944201DA254CA270244C7B
:10A2200064788C4201DD224C6170214CE4789C42C0
:10A2300001DA1F4CE37010BD1A480078401E1C491B
:10A2400008700020887018480078401E4870002070
:10A25000C870704710B515480078C007C00F0028B7
:10A260000ED0104800881049098848430446C0179A
:10A27000400F0019C1100A48006803F0E7FA0EE029
:10A28000084800880849098848430446C017400F19
:10A290000019C110FF220248006803F0B2FA10BD95
:10A2A000541B00205C1B00205E1B0020601B002054
:10A2B000581B00201D490860704710B504461B4814
:10A2C00000681B49086101201A49C860002018492C
:10A2D000886017484030046000204860002116481C
:10A2E000C16081604160016003210A2033DF0A20E0
:10A2F0002EDF01201049C031086000040F4948607A
:10A3000001200C49086010BD01200A4948607047CF
:10A3100010B500200849086009480068002803D0EB
:10A3200007490968C868804710BD0000681B002005
:10A3300000A5004000A0004040A1004000A3004054
:10A340004C1B0020F8B506465A20694608700023C9
:10A3500004224C4803F030F8044600BF2546002D87
:10A3600006D000BF002211462846FDF735FF00BF8A
:10A3700000BFF8BD7CB5444903C901910090414933
:10A38000684602F0F6FF044600BF2546002D06D0C1
:10A3900000BF002211462846FDF71EFF00BF00BF88
:10A3A0007CBDFEB50E461546287801900198002820
:10A3B00004D001281BD002283AD127E000203349DD
:10A3C0000860012040042F49486081102D4803F0A7
:10A3D0002DF8044600BF2746002F06D000BF0022FC
:10A3E00011463846FDF7F8FE00BF00BF20E05A20B6
:10A3F0006946087001204004224948600023042275
:10A400006946204802F0D8FF044611E000201F49A9
:10A4100008601F481B4948606878C42148430346C8
:10A42000B01E82B2A91C174802F0C6FF044600BF46
:10A4300000BFFEBDF8B50D461446069F022D02D0A2
:10A44000042D10D107E0022000906A4601218120EE
:10A45000FFF74EF908E0002000906A4601218120B4
:10A46000FFF746F900E000BF00BF00BF2646002E00
:10A4700006D000BF002211463046FDF7ADFE00BFFA
:10A4800000BFF8BD6C1B00200CDB01004C1B002042
:10A4900000010200F7B584B004460F46069806781E
:10A4A000B01C1F2803DC6078801C1F2802DD0C20F4
:10A4B00007B0F0BD1F20801B801E85B20295B11C25
:10A4C000781802A97DDF03900398002801D0039833
:10A4D000EEE72078022808D168460089A84204DC0B
:10A4E00009200190684605890BE0082001906078FA
:10A4F000002804D06078A84201DC657801E0684655
:10A500000589681CC2B23046711CCEB23A5430463E
:10A51000721CD6B20199395406980178A81C081803
:10A52000C1B2069801700020C2E7F8B505460C4696
:10A530002078001D1F2801DD0C20F8BD684679DF5A
:10A540000646002E01D03046F7E703212278501C42
:10A550002070A95419212278501C2070A954207809
:10A5600041196846008800F05EFA21784018207092
:10A570000020E2E730B503461078C01C1F2801DD3B
:10A580000C2030BD02241578681C10704C550A242C
:10A590001578681C10704C551578681C10704B5558
:10A5A0000020EEE7FFB587B006461D46109C002050
:10A5B000069020780590002747E0B90070684118A0
:10A5C0000A886846028149884181002203A902A8BD
:10A5D00065DF04900498002802D004980BB0F0BD09
:10A5E0006846017B099881422ED10698002801D047
:10A5F000002000E00220019020786946097B411884
:10A60000019808181F2801DD0C20E7E706980028AC
:10A6100009D12078401C20702278511C08982170A4
:10A62000A854012006902078421903A902A865DFEA
:10A6300004900498002801D00498CFE72078694658
:10A64000097B4018207000BF7F1C3088B842B4DC02
:10A650000698002806D021780598401C081AC1B237
:10A66000059829540020B9E7FFB581B00746154683
:10A670000A9E009602223846049B0299FFF792FF39
:10A680000446002C02D0204605B0F0BD00961022F2
:10A6900029463846049BFFF785FF0446002C01D06D
:10A6A0002046F1E70020EFE701460888062808DB8E
:10A6B00008881922D201904205DD0888DE4A9042BE
:10A6C00001D0072070474888062808DB48881922EF
:10A6D000D201904205DD4888D74A904201D0072038
:10A6E000F0E70888D44A904208D04888904205D0C4
:10A6F00008884A88904201DD0720E3E70020E1E76F
:10A70000F8B506460D4614462078801D1F2801D94D
:10A710000C20F8BD3046FFF7C7FF0746002F01D0D9
:10A720003846F6E705212278501C2070A9541221E2
:10A730002278501C2070A95422785119308800F0DA
:10A7400072F921784018207022785119708800F031
:10A750006AF92178401820700020DAE7F8B505463C
:10A760000E4614462879801CC7B22078801CC01978
:10A770001F2801DD0C20F8BD781CC1B22278501CC6
:10A780002070B154FF212278501C2070B1542278DF
:10A790009119288800F047F9217840182070A8887E
:10A7A00000280EDDA868002801D10720E3E7AA8869
:10A7B00023789819A96802F0E3FF207829794018D6
:10A7C00020700020D7E7FEB507460E461446B86A4B
:10A7D000002801D10720FEBD0020019032E0B96AB7
:10A7E0000C22019850430D182879801CC0B20090AB
:10A7F0000098401CC1B22278501C2070B154162120
:10A800002278501C2070B15422789119288800F0C9
:10A810000AF9217840182070A88800280EDDA86861
:10A82000002801D10720D6E7AA8823789819A968BB
:10A8300002F0A6FF20782979401820700198401C6A
:10A84000C0B201902C20C15D01988142C7DC00207C
:10A85000C1E7F8B504460F461546002600202870CB
:10A860002078002809D02A4639462046FFF712FEF4
:10A870000646002E01D03046F8BDA078002808D04A
:10A8800029463846FFF751FE0646002E01D03046D5
:10A89000F2E7E07800280ED002212A78501C2870B8
:10A8A000B95401212A78501C2870B954E1782A78CB
:10A8B000501C2870B954606800280BD000206168D3
:10A8C00008562A463946FFF755FE0646002E01D0A7
:10A8D0003046D1E7208900280CDD3B4606220221C4
:10A8E000204608300095FFF7BFFE0646002E01D037
:10A8F0003046C1E7208A00280CDD3B4607220321B1
:10A90000204610300095FFF7AFFE0646002E01D01E
:10A910003046B1E7208B00280CDD3B461522142180
:10A92000204618300095FFF79FFE0646002E01D006
:10A930003046A1E7206A002809D02A463946206A15
:10A94000FFF7DEFE0646002E01D0304694E7606A2F
:10A95000002809D02A463946606AFFF7FFFE0646FE
:10A96000002E01D0304687E72C20005D002809DD4D
:10A970002A4639462046FFF726FF0646002E01D01C
:10A98000304679E7304677E70146C8780422104020
:10A99000002801D1072070470020FCE70146C87855
:10A9A000002801D0072070470020FCE7F3B593B0E2
:10A9B0000D460021129111911398002814D013987C
:10A9C000FFF7E2FF0446002C02D0204615B0F0BD90
:10A9D00012AA09A91398FFF73CFF0446002C01D0E6
:10A9E0002046F3E709AE00E00026002D13D02846EC
:10A9F000FFF7D4FF0446002C01D02046E6E711AA59
:10AA000001A92846FFF725FF0446002C01D0204667
:10AA1000DCE701AF00E0002710A803793A46017A8D
:10AA2000304672DFD2E702460A70FF200002104073
:10AA30000012487002207047FFFF00000020F84914
:10AA400008700120F749C86048600020F649086096
:10AA500070471CB50120F349C860F1490870032014
:10AA6000694608706846F149096888471CBD08B501
:10AA7000EB480078022802D00120EA498860694644
:10AA8000EB4802F041FD002802D0FFF7E2FF08BDCD
:10AA90008020E849886068460078E349C861022060
:10AAA000DF4908708020E349486000BFEFE710B538
:10AAB000DF48C068DE498968401A02D0FFF7D7FF37
:10AAC00001E0FFF7C6FF10BD10B5D548007801289A
:10AAD00002D0022807D102E0FFF7B0FF04E0032014
:10AAE000CF49087000E000BF00BF10BD10B5CC48D2
:10AAF0000078002802D0032817D112E00420CA49A8
:10AB000008600120C7490860C948C068C849896809
:10AB1000401A02D0FFF7ABFF02E00120C0490870E5
:10AB200004E00220BE49087000E000BF00BF10BD75
:10AB300010B5BB480078012807D0022804D00328AC
:10AB400006D1FFF77BFF04E000BFFFF7B0FF00E096
:10AB500000BF00BF10BD10B5B1480078012801D179
:10AB6000FFF785FF10BD10B5FFF768FF10BD10B5EA
:10AB70000446230002F04FFF0504070D0A101300DE
:10AB8000FFF7A2FF0CE0FFF7B1FF09E0FFF7D0FFEE
:10AB900006E0FFF7E0FF03E0FFF7E5FF00E000BF9E
:10ABA00000BF10BD1CB5A4488068002830D000202C
:10ABB000A1498860A148C068A0498968401A9F4996
:10ABC0008988884220D298488069C1B29B4802F0A7
:10ABD00086FC0446002C08D00120694608700194C8
:10ABE000684692490968884711E09448C0689349CB
:10ABF0008968401A01280AD1002069460870684611
:10AC00008A490968884702E001208D49087000BF21
:10AC10008948C069002805D000208749C861032001
:10AC2000FFF7A5FF8448406A00280FD00020824922
:10AC300048627D48803804680460022069460870D4
:10AC40000194684679490968884700BF1CBD042003
:10AC500075490860002078498860C86172484030B2
:10AC6000C06A4008400070494031C8620020C043BB
:10AC70006D498860086101206A49886008607047F2
:10AC80000421694A116000216B4A9160D1616649D3
:10AC90004031C96A01221143634A4032D162C1780E
:10ACA000614A11618178916001215E4A9160116071
:10ACB0007047FFB581B004460D4600205849087022
:10ACC0005A4903980860002D02D1072005B0F0BD55
:10ACD000A88882B25948296802F0ECFB0646002E8B
:10ACE00001D03046F2E7A88982B25148A96802F043
:10ACF000E1FB0646002E01D03046E7E760780321ED
:10AD00000522120707231B02D2188300D15000BF6F
:10AD1000207800218A0005231B0707273F02DB1943
:10AD20008700DA5100BF60783F49C86020784861E9
:10AD3000A06848626079002804D00E203A4940316A
:10AD4000C86203E0002038494031C862FFF77FFF46
:10AD5000012033490870801E36498860A120800098
:10AD60004860022001218140364A116000BF0499E9
:10AD700000F073F8022000F069F80020A6E770B533
:10AD800004460220012181402F4A116000BF214664
:10AD90002A4802F0B9FB054629480078002808D067
:10ADA00021488069C1B2254802F099FB002024495E
:10ADB0000870022000F04AF8284670BD70B50446BD
:10ADC00021461B4802F08BFB05460220FFF7CFFE11
:10ADD000284670BD10B5194802F0ABFB0446002CA4
:10ADE00001D0204610BD124802F0A3FB0446002CFF
:10ADF00001D02046F6E70020F4E701460848007835
:10AE0000002801D0012000E00020087000207047D9
:10AE100010B504460420FFF7AAFE002010BD000074
:10AE2000781B00200020004000250040741B0020FB
:10AE3000681F00200023004000210040581F002010
:10AE4000791B002080E200E080E100E0C206D20E23
:10AE5000012191401C4A1160704710B5002819DA91
:10AE60001A4A03071B0F083B9B089B00D258830715
:10AE7000DC0EFF23A3409A438B071B0E8407E40ECE
:10AE8000A3401A43114B0407240F083CA408A40054
:10AE90001A5118E00C4A03231B02D21883089B00A6
:10AEA000D2588307DC0EFF23A3409A438B071B0E67
:10AEB0008407E40EA3401A43034B032424021B1906
:10AEC0008408A4001A5110BD00E100E01CED00E070
:10AED00010B5044601210C206043F74A80188172A6
:10AEE000891E0C20604380180181FF210C206043E3
:10AEF0008018C1720C2161438818072102F0A6FC5A
:10AF000010BD10B504461C216143EC4A891808465F
:10AF10001130062102F09AFC1C216143E74A88188F
:10AF2000102102F093FCFF211C206043E34A8018AB
:10AF300001741C206043801881760021C9431C20C5
:10AF4000604380180183204601F007FB10BD70B5F7
:10AF500003460C460820002115E00C254D43D64E33
:10AF6000AD19AD7A2540002D0CD0D54DAB4205D0A2
:10AF70000C254D43AD192D899D4202D11160002051
:10AF800003E00520491C0029E7D000BF70BD7CB557
:10AF90000546A9B26A46CB4801F0F7FF0446002CEB
:10AFA00009D15421684602F07FF90446002C02D1F1
:10AFB0002846FFF7A6FF20467CBDF8B505460E469D
:10AFC00017460520009000241BE0002D06D11C2010
:10AFD0006043BA494018008BB8420DD0002D0FD005
:10AFE0001C216143B54A89180846103007222946BA
:10AFF00002F076FB002803D134600020009002E0CC
:10B00000641C072CE1D300BF0098F8BD10B50446BE
:10B01000002010BDFEB504460E46A1786A46A94838
:10B0200001F0B3FF0546002D49D160780C2148435B
:10B03000A1494018807A40210840402801D0022EC2
:10B0400001D1A14F04E0012E01D1A04F00E0A04F9B
:10B05000A0781C225043994A811800231C2268467C
:10B06000B8470546002D1AD1022E18D060780C2161
:10B07000484391494018807A4021884361780C22E6
:10B0800051438D4A8918887260781C225043914A36
:10B0900081181C231A466846B847054600BF022E91
:10B0A0000DD020780C2148438B494018807A8000CD
:10B0B0008A490A58214668469047054600BFFEBDAA
:10B0C000F3B585B00C4603270E20049061780C225E
:10B0D0005143794A891808893B4604AA6946AADF80
:10B0E0000646002E4DD16178182251437C4A8918BA
:10B0F0000846083069460A8A02F0F2FA002812D19E
:10B1000060780C2148436C494018807A022108403D
:10B11000022836D0617818225143714A88181821C4
:10B1200002F096FB2DE06078182148436C494018E6
:10B130004068002801D0644D00E0644D607818211B
:10B14000484367490F506946098A6078182250437E
:10B15000634A80184160617818225143604A891817
:10B160000846083069460A8AFDF70EF8607818220A
:10B1700050435B4A8118382318220598A847064691
:10B1800000BF002007B0F0BD02460020704770B538
:10B1900005460C46617818225143514A88183823D5
:10B1A0001822294602F00FF80646002E0FD16078CB
:10B1B000182148434A4940184068401C002806D1DD
:10B1C0000021607818225043454A8018416030467B
:10B1D00070BD024600207047F8B5054600270020E4
:10B1E000009000266878182148433D49401840687F
:10B1F000002827D068780C2148432F494018807ACE
:10B200008021084080281DD168780C2148432A49B4
:10B210004018807A40210840402813D068781821CF
:10B2200048432F4940180746083768781821484393
:10B230002B494018808880B20090687818214843D4
:10B2400027490E5869780C2251431B4A89180889EE
:10B2500033463946009AA9DF04460B2C0BD1012650
:10B2600069780C225143144A8918088933463946B3
:10B27000009AA9DF0446002C00D01A4C012E18D1E8
:10B2800069780C2251430C4A891808890C4A0C2110
:10B29000A7DF0446002C0CD01348844208D0082CA9
:10B2A00006D0801C844203D0112C01D0002400E081
:10B2B0000C4C2046F8BD000070200020781F0020B4
:10B2C000FFFF00007C1B0020FDD0010033D00100F7
:10B2D0000DB001003C2000207C20002014DB010088
:10B2E000582000204180000002300000014600206C
:10B2F00070470146002901D1FE487047FF200870C1
:10B3000048708870C8700020F7E7FFB591B00F460D
:10B310001D4600BFF8480068002801D115B0F0BDF7
:10B3200000BF1A98542800D9F8E7012007900DA80B
:10B33000FFF7DFFF064600BF0696069E002E06D0EA
:10B3400000BF002211460698FCF746FF00BF00BF71
:10B35000002108A8017501760C951A980B90002021
:10B36000069016E0069881B208AAE44801F00DFEA6
:10B370000646002E0AD1082208A9119802F0B0F959
:10B38000002803D108A90698887505E00698401C96
:10B39000069006980728E5D300BF08A8807DFF28FF
:10B3A00076D0042F0AD11A98542803D1202008A956
:10B3B000087673E0402008A908766FE0D049681A43
:10B3C0001C2102F047FA0446072C1DD20AA80F9050
:10B3D0001398002810D108A9887D01218140C94A0D
:10B3E00012681140002901D0012100E0002100294C
:10B3F00002D10020079051E008A9887D01F0ADF846
:10B40000202008A9087649E0BF49681A1C2102F0EB
:10B4100021FA0446002C1AD10AA80F90202108A86E
:10B420000176447500200490B84905911C206043C2
:10B43000B5494018019008A8807D1C214843B049B7
:10B440004018029001A80C9018200B9026E0B049FB
:10B45000681A182102F0FEF90446002C19D1302197
:10B4600008A8017644750121C1750C206043A949E3
:10B470004018807A0221084002280FD008A9497D8F
:10B4800018225143A24A8818182102F0E1F905E078
:10B4900026E000200790402008A908760798012898
:10B4A0001ED1042F06D108A9087E0321084308A94C
:10B4B00008760EE0032F06D108A9087E0121084373
:10B4C00008A9087605E008A9087E0221084308A912
:10B4D00008760AA80F900EA90DA8139A01F080F81B
:10B4E00000BF1BE77FB50646002E02D1814804B09D
:10B4F00070BD00240FE000BF00210C2060437E4A95
:10B5000011500C206043801841720C206043801859
:10B51000817200BF641C002CEDD0002403E02046A3
:10B52000FFF7D6FC641C002CF9D01821784802F0F3
:10B530008FF9002406E02046FFF7E3FCFF20764960
:10B540000855641C072CF6D35421684681810721D5
:10B55000C18172480290694902A801F07DFC05464C
:10B56000002D30D101206E4908703078002821D19B
:10B5700000241CE0A1B26A46604801F006FD0546C1
:10B58000002D0FD11C2161435D4A881800231C2225
:10B59000694601F018FE0546002D07D000206049DD
:10B5A000087006E000205E49087002E0641C072C69
:10B5B000E0D308E06A469089D289504381B24F486F
:10B5C00001F072FE0546284691E770B505460C4627
:10B5D00000BF53480078002802D14648801F70BD44
:10B5E00000BF002D01D14348F9E7002C01D14148AB
:10B5F000F5E72068002801D13E48F0E73E480068A2
:10B60000002834D13C49206808600522611D3A4871
:10B61000001D02F0B5F82079374988720846007A93
:10B620004008400008720846007A02218843801CC6
:10B63000314908720846007A042188432E4908726D
:10B640000846C07940084000401CC8710846C079CF
:10B6500002218843801C2849C8710846C07904210A
:10B6600088432549C87100202870002601E0214E3A
:10B670000A3E3046B3E770B5044600BF284800785C
:10B68000002802D11B48801F70BD00BF002C01D1D3
:10B690001848F9E700BF2078012806DA20780C2145
:10B6A000484315490858002802D11248801FEBE78B
:10B6B00000BF00BF6078012807DA60780C2148439A
:10B6C00014494018807A012802D10A48801CDBE71F
:10B6D00000BF084DAD1F60780C2148430D4940184C
:10B6E000807A02210840022821D161780C2251433E
:10B6F000084A17E00E8000007C2000207C1B002000
:10B70000781F0020841B00203C200020882000207F
:10B710005820002070200020891B00200BB301005E
:10B72000881B002089180889FB497EDF05462846CA
:10B73000AAE7024600BFF9480078002801D1F8487E
:10B74000704700BF002A02D1F548801DF8E70029A4
:10B7500002D1F348801DF3E700BF1078012807DA13
:10B7600010780C235843EC4B1B1F1858002801D1AC
:10B77000EB48E5E700BF00BF5078012807DA5078B2
:10B780000C235843E74BC018807A012802D1E448C3
:10B790000830D5E700BF50780C235843E14BC01860
:10B7A000807A04231840002809D150780C2358438C
:10B7B000DC4BC018807A20231840002802D00120DA
:10B7C00008700EE050780C235843D64BC018807A8E
:10B7D00080231840002802D00220087001E00020D9
:10B7E00008700020ACE7F8B5044600BFCB480078ED
:10B7F000002801D1CA48F8BD00BF002C02D1C848BA
:10B80000801DF8E7002902D1C548801DF3E70868CC
:10B81000002802D1C248801DEDE78868002802D1C7
:10B82000BF48801DE7E700BF2078012807DA2078AD
:10B830000C256843B84D2D1F2858002801D1B84861
:10B84000D9E700BF002300220020009000BF47E09E
:10B850000025009500BF12E00C266E43B14FF6198B
:10B86000F67A86420AD10C266E43F619B67A02277A
:10B870003E40022E02D10126009602E06D1C002DF2
:10B88000EAD000BF009D002D29D10D7B954211D932
:10B890001C254543A44EAD19AD7EED07ED0F002DDF
:10B8A00008D11C254543AD1997008E68F5519F4E70
:10B8B000B054521C0D799D4211D91C2545439A4E16
:10B8C000AD19AD7E02263540002D08D11C2545431B
:10B8D000954EAD1910359F000E68F5515B1C401C4C
:10B8E0000728B5D30B710A73002084E702468C4801
:10B8F0008830704770B5044600BF8848007800283B
:10B9000001D1874870BD00BF002C02D18448801D42
:10B91000F8E700BF2078012807DA20780C21484397
:10B920007D49091F0858002801D17D48EAE700BF7A
:10B9300000BFA078072807DAA0781C2148437A497D
:10B940004018807EFF2802D175480830DAE700BF32
:10B95000A078FFF71CFB05462846D3E770B50446E0
:10B9600000BF6E480078002801D16D4870BD00BF4F
:10B97000002C02D16A48801DF8E700BF207801281A
:10B9800007DA20780C2148436349091F085800282A
:10B9900001D16348EAE700BF002600250BE01C2028
:10B9A000684361494018807EFF2803D02846FFF78E
:10B9B000EEFA06466D1C072DF1D33046D6E7FEB5EC
:10B9C00004460D4600BF55480078002801D1544870
:10B9D000FEBD00BF002C02D15148801DF8E7002DAC
:10B9E00002D14F48801DF3E700BF2078012807DA15
:10B9F00020780C2148434849091F0858002801D1E4
:10BA00004748E5E700BF00BF6078012807DA6078A3
:10BA10000C21484343494018807A012802D140480C
:10BA20000830D5E700BF00BFA078072807DAA07864
:10BA30001C2148433C494018807EFF2802D13848E9
:10BA40000830C5E700BFE868002813D0A8680028C0
:10BA500010D0A8680E280DD2287801280AD1637862
:10BA600018277B43324FDB1918460830AA68E9686B
:10BA700001F086FEA1786A462E4801F086FA064655
:10BA8000287880002C490A58214668469047064687
:10BA900030469DE77CB504460D4600BF1F48007840
:10BAA000002801D11E487CBD00BF002C02D11C48DB
:10BAB000801DF8E7002D02D11948801DF3E700BF73
:10BAC0002078012807DA20780C2148431249091F01
:10BAD0000858002801D11248E5E700BF00BFA07850
:10BAE000072807DAA0781C2148430F494018807EB8
:10BAF000FF2802D10A480830D5E700BF60780C2142
:10BB0000484308494018807A02210840022815D08D
:10BB100003488930C7E7000080200020881B0020F0
:10BB20000880000070200020781F0020891B002062
:10BB3000582000207C1B002014DB0100E86800284E
:10BB400013D1A8680E2810D2287801280DD160786A
:10BB500018214843FE4940180830E86060781821F1
:10BB60004843FB4940184168A960A1786A46F948F2
:10BB700001F00BFA064628788000F7490A5821465A
:10BB800068469047064630468DE7014600BFF348B9
:10BB90000078002801D1F248704700BF002902D187
:10BBA000EF48801DF8E700BF0878012806DA08781A
:10BBB0000C225043EB4A1058002801D1E848EBE72B
:10BBC00000BF00BF8878072807DA88781C22504316
:10BBD000E54A8018807EFF2802D1E1480830DBE783
:10BBE00000BFDF488830D7E70246DD48893070471C
:10BBF0000246DB48893070470146D9488930704792
:10BC0000024600BFD5480078002801D1D4487047CB
:10BC100000BF002902D1D248801DF8E7002A02D1D6
:10BC2000CF48801DF3E700BF1078012806DA1078AE
:10BC30000C235843CB4B1858002801D1C848E6E7DD
:10BC400000BF107808700020E1E770B504460D468B
:10BC500000BFC2480078002801D1C14870BD00BFB4
:10BC6000002C02D1BE48801DF8E7002D02D1BC484F
:10BC7000801DF3E700BF2078012806DA20780C2128
:10BC80004843B8490858002801D1B548E6E700BF45
:10BC900000BFA078072807DAA0781C214843B249E2
:10BCA0004018807EFF2802D1AD480830D6E700BF9B
:10BCB0006078FF281CD12878022819D0A1781C228E
:10BCC0005143A94A8918084610300722294601F035
:10BCD00057FDA07801218140A44A12681143A34A6C
:10BCE000116000BF02212046FFF794F9002601E011
:10BCF0009B4E761E3046B1E770B504460E4600BF37
:10BD000096480078002801D1954870BD00BF002CEE
:10BD100002D19348801DF8E7002E02D19048801D83
:10BD2000F3E700BF2078012806DA20780C21484389
:10BD30008C490858002801D18948E6E700BF884DA2
:10BD4000ED1EA078FF2817D16078FF282AD06078F0
:10BD50000C21484386494018807A02210840022875
:10BD600020D160780C225043814A81180722304646
:10BD700001F006FD002515E0A0781C2148437A4912
:10BD80004018807E0221084000280BD1A0781C2298
:10BD90005043754A8018014610310722304601F0A1
:10BDA000EFFC00252846B0E770B58AB005460C4682
:10BDB00000BF6A480078002802D169480AB070BD07
:10BDC00000BF002D02D16648801DF7E7002C02D18C
:10BDD0006348801DF2E700BF2878012806DA28783A
:10BDE0000C2148435F490858002801D15C48E5E729
:10BDF00000BF00BFA878072807DAA8781C214843AD
:10BE000059494018807EFF2802D155480830D5E7AF
:10BE100000BF00BF0020E060A8781C2148435249C1
:10BE20004118216100216161524860600020A060DA
:10BE300003A82060A97801AA464801F0A6F80646A2
:10BE4000002E17D11C231A4601A903A801F0BBF943
:10BE50000646002E0ED1E060A8781C2148434249D6
:10BE60004118216100216161424860600020A060AA
:10BE700003A820603046A1E77CB50446A1786A4655
:10BE8000344801F082F80546002D13D161781C2258
:10BE90005143394A88181C231A46694601F093F920
:10BEA0003048807A80002C490A58214668469047DD
:10BEB000054600BF7CBDF0B58FB00446FF200D9055
:10BEC00000260020079000BF24480078002801D1F8
:10BED0000FB0F0BD00BF00BF22480068002800D1AD
:10BEE000F6E700BF0CA8FFF704FA054600BF2F468F
:10BEF000002F06D000BF002211463846FCF76CF92F
:10BF000000BF00BF002008900025201D0A902A21B4
:10BF100068468185FF2108A88174002101740020F2
:10BF20000E90208810282AD0A0880EAA0221FFF7A0
:10BF30000EF80546002D22D10C210E9848430C49DD
:10BF40004018C17A08A881740E98C1B208A815E0FB
:10BF5000582000207C1B002024DB0100881B0020CF
:10BF6000088000007C200020781F0020841B002017
:10BF700070200020882000203C2000204174208870
:10BF800017287BD008DC10280DD011287CD013286E
:10BF900076D0142875D1B5E0182873D01C2872D03B
:10BFA0005228F7D17EE20EAF3A460121FE48FEF755
:10BFB000CEFF00900098002807D102210C2238689B
:10BFC0005043FA4A8018817201E0042000900098E2
:10BFD0000546002D51D10126112108A801710E98A6
:10BFE000C1B208A84174A1880C220E985043EF4AB0
:10BFF0008018018102210C220E985043EB4A8018D0
:10C0000081720C220E995143E84A88180722A11D1B
:10C0100001F0B6FB207D304000280AD0207D40088A
:10C02000E349085CFF280AD0207D4008085C0D9099
:10C0300005E0DD4A0DA9A01DFEF7BFFF0546002D56
:10C040001BD10D98C1B20C220E985043D74A8018CC
:10C05000C1720C210E98484311464018807A08217D
:10C0600008430C220E995143D04A8918887208A9B6
:10C070000D9888740CA8FFF7FFFE22E2F9E003E0B8
:10C0800085E01DE2ABE116E20C210E984843C7495A
:10C090004018807A022188430C220E995143C34AEA
:10C0A000891888720C210E98484311464018807AEE
:10C0B0000821084008280ED10C210E98484311464B
:10C0C0004018807A8021084080280FD100210CA8D8
:10C0D000FEF7A0FF0AE008A8807CFF2806D008A988
:10C0E000887CFEF70EFFFF2008A9887410210C221F
:10C0F0000E985043AD4A801881720126122008A97B
:10C100000871DEE10C210E984843A8494018C07A16
:10C11000FF2823D1E2890DA90020FEF74EFF054636
:10C12000002D1BD10D98C1B20C220E9850439F4A8E
:10C130008018C1720C210E98484311464018807A2D
:10C14000082108430C220E995143984A8918887295
:10C1500008A90D9888740CA8FFF78EFE0C210E9884
:10C16000484392494018C07AFF2805D01C210E98F8
:10C1700048439049401807901C230E9959438E4B11
:10C18000CA18A0880023079982DF054699E1132089
:10C1900008A908710C210E98484384494018807AF8
:10C1A000042108430C220E995143804A8918887251
:10C1B00001260C210E98484311464018C07AFF28EA
:10C1C00019D10C220E9850430A4681180DA800F090
:10C1D000CCF90546002D0BD108A90D9888740D984F
:10C1E000C1B20C220E985043704A8018C1721DE0F3
:10C1F000089501261AE0162008A9087118220E9940
:10C2000051436E4A8918084608300E2101F020FB80
:10C210000C210E98484365494018807A4021084314
:10C220000C220E995143614A8918887200200490AB
:10C230000C210E9848435D494018C07A1C214843A0
:10C240005D4941180591002106911C210E98484333
:10C25000584940180190002002900390A08801AB3B
:10C26000574A00217FDF0546002D01D008950026A2
:10C2700027E15348001F407A400840005049091FF9
:10C2800048720C210E98484348494018807A04218E
:10C2900088430C220E995143444A8918887214200D
:10C2A00008A908710126A07900280AD00C220E994D
:10C2B00051433E4A8918C87AFEF769FEA079089072
:10C2C0008CE0E0794007C00F00287BD008A8807C74
:10C2D000FF2877D00C210E98484334494018807AC3
:10C2E000082108430C220E995143304A891888725C
:10C2F000E07A8007C00F00280FD008A8807C1C219E
:10C3000048432D494018807E4108490008A8807C98
:10C310001C225043284A801881760C210E984843ED
:10C3200022494018C07AFF2858D00C210E98484363
:10C330001E49085C022820D00C230E9A5A430B4653
:10C34000D11808AA927C1C235A431B4BD2181046C2
:10C350001030072201F014FA08A8807C1C21484301
:10C3600015494018807E0221884308A9897C1C2237
:10C370005143114A891888762CE01C210E984843B5
:10C380000C494018418A08A8807C1C2250430A4A64
:10C390008018018308A8807C1C214843114640185E
:10C3A000807E410849000EE0FFFF00007020002061
:10C3B000891B00203C200020781F002058200020EE
:10C3C000802000200AE008A8807C1C225043A44A58
:10C3D0008018817601210CA8FEF71CFE71E0A0797F
:10C3E000000901283DD1A0790007000F012838D1AC
:10C3F0000C210E9848439B494018807A0821084038
:10C4000008282ED118220E995143974A89180818E6
:10C410000E2101F01DFA162008A908710C210E98B2
:10C42000484390494018807A202108430C220E99F5
:10C4300051438C4A891888720C210E984843114642
:10C440004018807A402108430C220E995143854AB6
:10C45000891888728548407A0221084383494872C6
:10C460001CE00C210E9848437E494018807A8021B8
:10C4700008430C220E9951437A4A89188872152074
:10C4800008A908717948807A8000794A11580CA867
:10C4900088470546002D01D0764808900020089076
:10C4A00001260EE07148807A8000714A11580CA86C
:10C4B0008847089005E0132008A90871012600E0CC
:10C4C00000BF00BF002E16D009A90CA8089A00F0E2
:10C4D00087F808A8007912280DD100BF0C210E980A
:10C4E000484360494018807A012802D00E98FEF730
:10C4F000EFFC00BF00BF00BFEAE430B504460029EE
:10C5000002D15C48333830BD00BF0878012806DA14
:10C5100008780C256843554D2858002802D1554805
:10C520003938F0E700BFFF208870052300220FE0B4
:10C530000C2050434B4D40190089A04207D14A704E
:10C540000C2050434019C07A8870002302E0521C2E
:10C55000002AEDD000BF1846D5E701218140464AA8
:10C5600012688A4344490A607047F8B505460E468A
:10C57000404FBF1C00242EE01C2060433849401867
:10C58000807EFF2826D13078022814D01C206043FA
:10C590004018807E022188431C216143304A89185B
:10C5A00088761C21614389180846103007223146DD
:10C5B00001F0E6F80BE01C20604329494018807E1A
:10C5C000410849001C206043254A801881762C7060
:10C5D000002702E0641C072CCED300BF3846F8BD0C
:10C5E000F8B504460D4616462048076832462946E7
:10C5F0002046B847F8BD02460020704770B5054692
:10C600000E4631462846FEF75BFD0446002C02D15B
:10C6100000BF00BF0446204670BD024600207047A0
:10C6200070B505460E4631462846FEF7B0FD044675
:10C63000002C02D100BF00BF0446204670BD014659
:10C640000020704770B505462846FEF7C5FD044634
:10C65000002C02D100BF00BF0446204670BD000080
:10C66000781F002070200020582000207C2000200F
:10C6700034DB010041800000841B002003210C48B2
:10C6800002680A4302600B4802680A4302600A48D3
:10C6900080470A480047FEE7FEE7FEE7FEE7FEE7C1
:10C6A000FEE7000006480749054A074B70470000AF
:10C6B000240500405405004071C70100C1800100FD
:10C6C000E0210020E0290020E02100203248334909
:10C6D000086070473248008CC0B2012812D130483F
:10C6E000808C0007000F00280CD12D48806AF021B3
:10C6F0000840402806D12A48C06A0840002801D1D5
:10C70000012070470020FCE72548008CC0B20128BA
:10C710002CD12348808C0007000F002826D1204808
:10C72000806AF0210840002806D11D48C06A0840F0
:10C73000002801D1012070471948806AF021084083
:10C74000102806D11648C06A0840002801D10120EF
:10C75000F1E71348806AF0210840302806D11048DC
:10C76000C06A0840002801D10120E4E70020E2E788
:10C7700010B5FFF7C9FF002805D00A480A494860EC
:10C78000C8130A498861FFF7A5FF002802D00120DD
:10C790000749886010BD00000024F400901B0020B1
:10C7A000C00F00F0DFFF07C000050040006C004034
:10C7B0000006004070B5FE484469601C002807D0A0
:10C7C00000F057FE05462946204601F043F870BDAB
:10C7D000012000074069FAE7002314214143F54A8C
:10C7E00053541421414389184B80012314214143A0
:10C7F00089188B600023142141438918CB601421D0
:10C80000414389180B611421414389188B8070477B
:10C8100010B50020E8490880E8490870E549091F7B
:10C82000087048708870002403E02046FFF7D4FFAA
:10C83000641C0A2CF9D310BDFFB583B0044615461D
:10C840000326DE48007800280BD1002D06D106987B
:10C85000002803D10220D949087002E00120D749FD
:10C860000870D6480078030001F0D5F807B8052015
:10C870003D6186A1B80000F0FCFD8008029000F048
:10C88000F8FD049948430190FFF794FF471E00F01C
:10C89000F0FD474300973846029A019929DF064682
:10C8A000002E02D10220C549087098E0049828DFC4
:10C8B0000646002E16D1002D11D1069800280AD167
:10C8C0002078042803D10720BC4908700AE005201D
:10C8D000BA49087006E00420B849087002E0032055
:10C8E000B64908707BE0FFF765FF471E00F0C1FD09
:10C8F0004743029700F0BDFD049948432A46019042
:10C90000029929DF0646002E10D1069800280AD188
:10C910002078042803D10620A849087006E00520E5
:10C92000A649087002E00420A449087057E0FFF708
:10C9300041FF471E00F09DFD4743A800381861885D
:10C940004018029000F095FD04994843A900401852
:10C95000618840180190069A029929DF0646002E48
:10C9600009D12078042803D106209449087002E0F8
:10C9700005209249087032E000F07BFD049948439D
:10C98000A9004718608882083846216929DF0646D1
:10C99000002E0BD1002D06D10698002803D10720C8
:10C9A0008649087002E006208449087017E000F00C
:10C9B00060FD0190FFF7FEFE471E00F05AFD474361
:10C9C00000973846019900F045FF029028DF06469F
:10C9D000002E02D107207949087000E000BF00BF97
:10C9E000304607B0F0BDF0B587B00F277148001F83
:10C9F0000078142148436F494418E56820780228DC
:10CA000004D0042823D005287ED16AE0206905904F
:10CA10006948008886026088801B06900598801906
:10CA20000590A0888019451901218902069888423D
:10CA300006D2069882082846059929DF074605E0B0
:10CA4000FF2201322846059929DF07466FE0A068DA
:10CA500000015B49401800890690A0680001401859
:10CA600040890590A068000140184068049004982F
:10CA7000A84205D10599069848436188884202D0AA
:10CA8000A06802280DD100F0F4FC0146039028466E
:10CA900000F0E0FE484909884618304628DF07467E
:10CAA0001EE000F0E6FC01460190284600F0D2FEB0
:10CAB000064600F0DEFC7043281A8008039000F060
:10CAC000D8FC711C484361884919401A80080290BB
:10CAD00031462046029B039AFFF7AEFE074600BF91
:10CAE00025E000F0C6FC01460490284600F0B2FEA6
:10CAF000064600F0BEFC7043A1884919081A800858
:10CB0000069000F0B6FC00E010E0711C4843A188DC
:10CB1000491962888918401A8008059031462046D4
:10CB2000059B069AFFF788FE074600E000BF00BF9E
:10CB3000002F03D101201F49091F8870384607B014
:10CB4000F0BDFFB581B00646174600241948001F06
:10CB500040780A2847D01748001F00781549091F58
:10CB600049784018C4B20A2C02DB20460A38C4B205
:10CB7000142060430F490E540022142060434018D3
:10CB8000427014206043401807611420604341182C
:10CB9000029805C8CA60886014216143054A891853
:10CBA000049848801421614389180A98888009E014
:10CBB00000100010A42000209C1B00209F1B0020C0
:10CBC0006C2100200025101F8078002805D1FFF778
:10CBD0000AFF0546112D00D10025FA484078401C77
:10CBE000F849487000E00425284605B0F0BD10B5AE
:10CBF0000024F448407800280BDDF24880780028B3
:10CC000007D1FFF7F0FE0446002C02D0112C00D112
:10CC10000024204610BDF8B506460C462778A068CB
:10CC2000022802D1E848056803E0A0680001E7494E
:10CC30000D586088009032463946204608302369F6
:10CC4000A847F8BDF0B585B006460025DD488078D8
:10CC500001287DD10020DB498870DD480078082854
:10CC600019D1022E03D10020D949087002E000201A
:10CC7000D8490870FFF7BBFF0546002D09D0D14801
:10CC8000007814225043CF4A121D81182846FFF71E
:10CC9000C2FF05B0F0BD022E02D0032E7ED183E08C
:10CCA000C848007814214843C649091D4418CA4899
:10CCB0000088401CC84908802078022807D108460F
:10CCC000008880026188884201DB012000E00020AA
:10CCD00003902078052805D1BD480078072801D1A8
:10CCE000012000E0002002902078042805D1B848F7
:10CCF0000078072801D1012000E000200190207871
:10CD000004280BD1B448008880026188884205DB82
:10CD1000AF480078002801D1012000E000200090F9
:10CD20000298002808D10198002805D10098002811
:10CD300002D10398002825D0A24807780020A449F2
:10CD40000870A54908809F484078401E9D4900E032
:10CD500050E0487008460078401C0870084600788B
:10CD60000A2803DB084600780A3808701420784344
:10CD7000944A121D81182846FFF74DFF3846FFF7E9
:10CD80002BFD00BFFFF733FF0546002D0BD08D486C
:10CD90000078142250438B4A121D00E027E08118CE
:10CDA0002846FFF738FF23E08648007814214843DF
:10CDB0008449091D44186078401CC0B26070032883
:10CDC00009D1081F0078142250430A4681180D200B
:10CDD000FFF721FF0AE0FFF706FE0546002D05D00C
:10CDE000112D03D021462846FFF715FF00E000BFB4
:10CDF00000BF00BF00BF4CE770B5FFF709FD002082
:10CE000076490880FFF7D6FC851E00F032FB4543CB
:10CE10007348056000207049088000BF0DE00021C4
:10CE200002016A4B99500201D21811810201D218F5
:10CE300091810201D2185181401C0028EFD00020BE
:10CE400061490860888001206249087000206049BB
:10CE500008700024204670BDF8B504460D4600BF9A
:10CE60005C480078002801D10820F8BD00BF002CE4
:10CE700001D10E20F9E7002D01D10E20F5E7206841
:10CE8000002801D10E20F0E700F0F3FAA1888842D3
:10CE900002DBA088102801DA0720E6E7E0880028F6
:10CEA0001CD0FFF787FC471E00F0E3FA4743E088F9
:10CEB000A18848434A490968401887420ED300F0C8
:10CEC000D8FAE188A2885143884209DA00F0D1FA01
:10CED0000746A18800F0C8FC002901D00720C4E75C
:10CEE00020798007800F002801D00720BDE73B484C
:10CEF0000088012801D10420B7E73848008828605D
:10CF00003748006868603549098809012F4A89183F
:10CF10006868486031490988090120685050A08834
:10CF20002E490988090189180881E0882B49098858
:10CF300009018918488100200090A688E1884E43A5
:10CF400000BF0098401C80B2009000F092FAB042FE
:10CF500003D200F08EFA361A00E0002600F089FABB
:10CF60001F49096840181E490860002EE9D11B4975
:10CF700009880901154A891800988881174800888E
:10CF8000401C1649088000206FE73CB5034600BFEF
:10CF900010480078002801D108203CBD00BF002BBC
:10CFA00001D10E20F9E7002A01D10E20F5E718681B
:10CFB000002805D118680001044C2058002811D120
:10CFC0000720EAE7A0200020A01B00206C21002001
:10CFD0009F1B00209E1B00209C1B0020941B0020F8
:10CFE000981B00205C68186801940090019C1868E8
:10CFF0000001F74D4019008948432018019000981E
:10D0000000012C4600194089009C240164192489E0
:10D010006043009C2401641964680019019CA042CB
:10D0200001D80720B9E7019C0098546010600020E7
:10D03000B3E7F8B504460E4615461F4600BFE5485F
:10D040000078002801D10820F8BD00BF002E01D1D2
:10D050000E20F9E7002C01D10E20F5E7206800280A
:10D0600005D120680001DA490858002801D10720BD
:10D07000EAE720680001D649401840892168090183
:10D08000D34A8918098948432168090189184968E0
:10D0900040186168884201D80720D5E7002D06D0E6
:10D0A00020680001CA4940180089A84201DA072017
:10D0B000CAE7E81921680901C54A8918098988421F
:10D0C00001DD0720C0E7304600F0D8F9002804D081
:10D0D000384600F0D3F9002801D11020B4E7606889
:10D0E00000F0CCF9002801D11020ADE72B463246E4
:10D0F000214602200097FFF724FDA5E7F8B5044676
:10D100000E4615461F4600BFB2480078002801D1E0
:10D110000820F8BD00BF002E01D10E20F9E7002C39
:10D1200001D10E20F5E72068002805D12068000114
:10D13000A7490858002801D10720EAE72068000124
:10D14000A3494018408921680901A14A8918098921
:10D150004843216809018918496840186168884274
:10D1600001D80720D5E7002D06D020680001984996
:10D1700040180089A84201DA0720CAE7E8192168A7
:10D180000901934A89180989884201DD0720C0E70F
:10D19000304600F073F9002804D0384600F06EF9EC
:10D1A000002801D11020B4E7606800F067F900287A
:10D1B00001D11020ADE72B463246214605200097CD
:10D1C000FFF7BFFCA5E7FFB581B00C4615461E462C
:10D1D00000BF80480078002802D1082005B0F0BDCB
:10D1E00000BF002C01D10E20F8E70198002801D1E2
:10D1F0000E20F3E72068002805D12068000174495B
:10D200000858002801D10720E8E72068000170498C
:10D2100040184089216809016D4A891809894843E5
:10D22000216809018918496840186168884201D855
:10D230000720D3E7002D06D020680001644940187C
:10D240000089A84201DA0720C8E7A8192168090166
:10D250005F4A89180989884201DD0720BEE70198E5
:10D2600000F00CF9002804D0304600F007F900283F
:10D2700001D11020B2E7606800F000F9002801D168
:10D280001020ABE7606881192A46019800F078FA0F
:10D290000095206800014E490F58002203212046C6
:10D2A000019BB847002099E7F8B504460D4600BF3A
:10D2B00048480078002801D10820F8BD00BF002CA4
:10D2C00001D10E20F9E72068002805D1206800016F
:10D2D0003F490858002801D10720EEE720680001E7
:10D2E0003B494018408921680901394A8918098950
:10D2F00048432168090189184968401861688842D3
:10D3000001D80720D9E7606800F0B8F8002801D1FB
:10D310001020D2E723681B012D4FDB1962685B6880
:10D32000D01A226812013B46D218118900F092FAF5
:10D33000002901D00720C0E700202B4602462146E5
:10D3400000900420FFF7FDFB06463046B5E7014696
:10D3500000BF20480078002801D10820704700BF96
:10D36000002901D10E20F9E71B4840780860002011
:10D37000F4E7024600BF17480078002801D10820D2
:10D38000704700BF002A01D10E20F9E7002901D122
:10D390000E20F5E71068002801D10E20F0E70F48B5
:10D3A0000068002801D00420EAE7022008600B4B47
:10D3B000106818600020E3E7F8B504460D461746EC
:10D3C0001E4600BF03480078002809D10820F8BD98
:10D3D0006C2100209E1B0020A0200020A01B00200C
:10D3E00000BF002D01D10E20F1E7002C01D10E204D
:10D3F000EDE72068022803D125480068002801D104
:10D400000720E4E7284600F039F8002804D0304629
:10D4100000F034F8002801D11020D8E73B462A4616
:10D42000214602200096FFF78CFBD0E7F8B50446B2
:10D430000D4600BF17480078002801D10820F8BD2C
:10D4400000BF002C01D10E20F9E72068022803D18B
:10D450000F480068002801D10720F0E700202B4684
:10D460000246214600900420FFF76BFB064630463B
:10D47000E5E701200007006980B270470146880790
:10D48000800F002801D1012070470020FCE7000038
:10D49000A01B00209E1B002001B505E00098401E47
:10D4A00000900348FAF760FE00980028F6D108BD06
:10D4B000E70300000346002901D10E207047002A2F
:10D4C00003D0501E1040002801D00920F6E7196053
:10D4D000501E988000209860D86000BFEEE770B5BD
:10D4E00004460D46204600F029F8A188884209D854
:10D4F000E068A188084021680D54E068401CE060A5
:10D50000002070BD0420FCE770B504460D4620469F
:10D5100000F014F800280AD0A068A188084021680B
:10D52000085C2870A068401CA060002070BD052029
:10D53000FCE70146C86888600020704701468A6899
:10D54000C868801A7047000070B506460C4615463C
:10D5500029462046FAF792FE70BDF8B55948007882
:10D56000002800D1F8BD58480068002801D10120EA
:10D5700000E00020054655480068002801D1012040
:10D5800000E00020064600BF002D14D1684651DFA0
:10D590000446052C01D101250CE0002C06D000BF6B
:10D5A000002211462046FAF717FE03E0464900988C
:10D5B0000968884700BF002E1AD1454800880090AE
:10D5C00069464448006861DF0446052C01D1012604
:10D5D0000DE0002C06D000BF002211462046FAF7CD
:10D5E000FBFD04E03B48006838490968884700BFF4
:10D5F000002D02D0002E00D000E0C5E700BF00BF24
:10D60000B0E7FFB581B00C4616461F46002C02D18C
:10D61000072005B0F0BD20468107890F002901D100
:10D62000012100E00021002901D10720F1E729486C
:10D63000046027480680284807602849019810DFC1
:10D640000546002D01D02846E3E701201D4908705A
:10D6500016202EDFDDE710B511DF0446002C01D0C7
:10D66000012000E0002017490870204610BD014647
:10D67000002901D10E207047144801600020FAE70C
:10D680000146002901D10E2070470F48016000209B
:10D69000FAE770B510480068002810D00E480068FE
:10D6A0008047044600BF2546002D06D000BF00225B
:10D6B00011462846FAF790FD00BF00BF01E0FFF7D2
:10D6C0004CFF70BDAC1B0020BC1B0020B81B002011
:10D6D000B41B0020B01B0020A81B002049D501006E
:10D6E000034610B50B439B070FD1042A0DD308C87E
:10D6F00010C9121FA342F8D018BA21BA884201D922
:10D70000012010BD0020C04310BD002A03D0D30764
:10D7100003D0521C07E0002010BD03780C78401C99
:10D72000491C1B1B07D103780C78401C491C1B1B90
:10D7300001D1921EF1D1184610BD000030B5441C35
:10D7400003E00178401C00290DD08107F9D10B4B73
:10D75000DD0104C8D11A91432940FAD0001B0A0602
:10D7600003D0C01E30BD001B30BD0A0401D0801E96
:10D7700030BD0902FCD0401E30BD00000101010196
:10D78000F8B5042A2CD3830712D00B78491C0370F8
:10D79000401C521E83070BD00B78491C0370401CA1
:10D7A000521E830704D00B78491C0370401C521E84
:10D7B0008B079B0F05D0C91ADF002023DE1B08C989
:10D7C0000AE0FAF7E1FCF8BD1D4608C9FD401C4619
:10D7D000B4402C4310C0121F042AF5D2F308C91A12
:10D7E000521EF0D40B78491C0370401C521EEAD420
:10D7F0000B78491C0370401C012AE4D4097801709D
:10D80000F8BDD2B210B513029A1813049A1800F09A
:10D810000EF810BD01E004C0091F0429FBD28B07DC
:10D8200001D50280801CC90700D002707047002912
:10D830000BD0C30702D00270401C491E022904D33A
:10D84000830702D50280801C891EE3E70022EEE7F1
:10D850000022DFE7002203098B422CD3030A8B420C
:10D8600011D300239C464EE003460B433CD40022D8
:10D8700043088B4231D303098B421CD3030A8B42EA
:10D8800001D394463FE0C3098B4201D3CB01C01AB8
:10D89000524183098B4201D38B01C01A5241430983
:10D8A0008B4201D34B01C01A524103098B4201D371
:10D8B0000B01C01A5241C3088B4201D3CB00C01ADE
:10D8C000524183088B4201D38B00C01A5241430856
:10D8D0008B4201D34B00C01A5241411A00D201467B
:10D8E0005241104670475DE0CA0F00D04942031014
:10D8F00000D34042534000229C4603098B422DD363
:10D90000030A8B4212D3FC22890112BA030A8B420A
:10D910000CD3890192118B4208D3890192118B4259
:10D9200004D389013AD0921100E08909C3098B42DE
:10D9300001D3CB01C01A524183098B4201D38B0121
:10D94000C01A524143098B4201D34B01C01A5241C4
:10D9500003098B4201D30B01C01A5241C3088B4209
:10D9600001D3CB00C01A524183088B4201D38B00F4
:10D97000C01A5241D9D243088B4201D34B00C01A7E
:10D980005241411A00D20146634652415B10104693
:10D9900001D34042002B00D54942704763465B10DB
:10D9A00000D3404201B50020C046C04602BD7047CA
:10D9B00070477047754600F023F8AE46050069468B
:10D9C0005346C008C000854618B020B5FEF76AFE71
:10D9D00060BC00274908B6460026C0C5C0C5C0C502
:10D9E000C0C5C0C5C0C5C0C5C0C5403D49008D4605
:10D9F00070470446C046C0462046FAF7AEFB00001A
:10DA0000004870477C21002001491820ABBEFEE78A
:10DA100026000200704730B47446641E2578641CEA
:10DA2000AB4204D3635D5B00E31830BC18471D466E
:10DA3000F8E71C0ED773A2AC44059515ADFA7FE349
:10DA4000CF4500008CF997A6EE94E3BCF821B260B4
:10DA500000000000170400009704000027050000E4
:10DA6000750500008D8A0100018B0100BD8A01004F
:10DA7000B5A20100BBA2010009A30100EB8C0100CB
:10DA80003B8D0100678D0100778D0100D58D010070
:10DA90004B8901001989010059970100898701000C
:10DAA000C1810100FD860100F58101003B87010075
:10DAB000F18401001D8701009B870100F1960100A0
:10DAC000CF990100C79A010019990100F995010049
:10DAD000119601002396010095960100A9A101006D
