:020000040001F9
:10800000D828002095B80100AFB80100B1B8010030
:108010000000000000000000000000000000000060
:10802000000000000000000000000000B3B80100E4
:108030000000000000000000B5B80100B7B8010062
:10804000B9B80100B9B80100BD9D0100B9B801007F
:10805000B9B8010000000000B9B80100198801009A
:10806000B9B80100B9B80100B9B80100B9B8010048
:10807000B9B80100B9B80100B9B80100B9B8010038
:10808000B9B80100838B0100B9B80100B9B801008B
:10809000B9B80100B9B80100BFC70100B9B8010003
:1080A000B9B80100B9B801000000000000000000EC
:1080B00000000000000000000000000000000000C0
:1080C00000F002F800F040F80CA030C8083824187E
:1080D0002D18A246671EAB4654465D46AC4201D100
:1080E00000F032F87E460F3E0FCCB64601263342F2
:1080F00000D0FB1AA246AB4633431847184B00008A
:10810000384B0000103A02D378C878C1FAD8520729
:1081100001D330C830C101D504680C60704700003D
:108120000023002400250026103A01D378C1FBD893
:10813000520700D330C100D50B6070471FB5C04651
:10814000C0461FBD10B510BD04F0C1FC1146FFF7BD
:10815000F5FF00F01AFB04F0D9FC03B4FFF7F2FFBF
:1081600003BC04F0DDFC0000401E00BF00BF00BFE8
:1081700000BF00BF00BF00BF00BF00BF00BF00BF07
:1081800000BFF1D17047000070B505460C46164699
:1081900002E00FCC0FC5103E102EFAD2082E02D3EB
:1081A00003CC03C5083E042E07D301CC01C5361FFE
:1081B00003E021782970641C6D1C761EF9D270BD15
:1081C000F74908607047642004F0FCF900BFBFF372
:1081D0004F8FF448F449C860BFF34F8F00BF00BF12
:1081E000FEE704460D462A462146F048FFF7EBFF1E
:1081F0007CB5002078DF044600BF2546002D05D061
:1082000000BF002211462846FFF7DDFF00BF002017
:1082100000900190182168460180302141800021A2
:108220008180FF219131C1807ADF044600BF25465D
:10823000002D05D000BF002211462846FFF7C3FFDE
:1082400000BF7CBDFFB5A3B00C4615461E460221FB
:10825000684601721521417210220A30239904F0F8
:1082600025FB211268468176C4762912017745776D
:1082700086774C21018402A90A911721818430213B
:1082800017A804F072FB002110A801770421C17720
:1082900008A8209030210BA804F067FBC4480068B0
:1082A000019001216846818701A91091022108A847
:1082B00001730BA917A801F085FC074600BF0097C2
:1082C000009F002F05D000BF002211460098FFF745
:1082D0007AFF00BF27B0F0BD10B5B6488078000225
:1082E000B44BDB7818430246B24800780002B14B29
:1082F0005B7818430146C323AF48FFF7A3FF18215B
:10830000AE4804F032FB0020AC49087048600872A7
:10831000C82008820020488210BD70B505460C4672
:10832000207800281FD160680078002804D0012838
:108330000AD0022816D108E0227A521ED1B2626811
:10834000501C01F09DF80DE00CE09D4800680028ED
:1083500007D0237A591E6368581C994B1B689A6989
:10836000904700BF00BF70BD38B500200090954811
:1083700000906946944800F0E7FD044600BF25469A
:10838000002D05D000BF002211462846FFF71BFF35
:1083900000BF38BDF8B506460F46144600BF254657
:1083A000002D05D000BF002211462846FFF70BFF25
:1083B00000BF0020F8BD7FB503F024FE044600BFD7
:1083C0002546002D05D000BF002211462846FFF7A4
:1083D000FAFE00BF0020039003A802F08FF90446C4
:1083E00000BF2546002D05D000BF002211462846BB
:1083F000FFF7E9FE00BF052101A8013004F0B3FA40
:108400006846407941084900491C684641714079F5
:108410000221884301466846417140791C21884306
:1084200001460C316846417140792021884301465C
:1084300068464171072181711021C1716348009024
:108440000121684601716946614802F0CAF9044693
:1084500000BF2546002D05D000BF0022114628464A
:10846000FFF7B1FE00BF7FBD70B58CB005460C466E
:108470001646584B0FCB03936B4607C3102C00DDF9
:1084800010242246294604A804F010FA68464DDF5D
:10849000102208A9304604F009FA0CB070BD38B5B6
:1084A000684604F069F8044600BF2546002D05D053
:1084B00000BF002211462846FFF785FE00BF009846
:1084C000002803D001204449087038BD3CDF044631
:1084D00000BF2546002D05D000BF002211462846CA
:1084E000FFF771FE00BF00BFEFE710B50446022C96
:1084F00002D0032C0BD100E000BF374800780028E1
:1085000004D0002034490870FFF7C9FF00E000BF25
:1085100000BF10BD10B50446204603F099FC20466C
:10852000FFF7E3FF10BD70B5244873DF044600BFBA
:108530002546002D05D000BF002211462846FFF732
:1085400042FE00BF70BD70B504462088102804D0DC
:1085500011280ED0192850D14EE0A0881F4908805C
:1085600017480068002803D0154909680869804742
:1085700044E0A57912480068002804D0104800683B
:10858000816801208847082D2AD10D4800680028FD
:108590002FD00B48006841690120884729E000007E
:1085A000141B00200400FA0500ED00E0EFBEADDE74
:1085B0005CCB0100C41B0020001B0020AC1B002072
:1085C000441B00201B830100901B002095830100A9
:1085D000111B00204CCB0100101B0020121B00209F
:1085E00080480068002804D07E4800684169002067
:1085F0008847FFF798FF01E000E000BF00BF70BDB3
:1086000010B50446204602F062FD2146764800F08F
:10861000A3FB2046FFF797FF10BDF0B587B000BF62
:10862000002348227149132004F081F8074600BF57
:108630000097009F002F05D000BF00221146009830
:10864000FFF7C1FD00BF00BF002001900290694606
:10865000087101204002029001A860DF044600BFBB
:108660002746002F05D000BF002211463846FFF7ED
:10867000AAFD00BF5E4804F090F8044600BF2746FC
:10868000002F05D000BF002211463846FFF79BFDA2
:1086900000BF584804F08AF8044600BF2746002F60
:1086A00005D000BF002211463846FFF78CFD00BF01
:1086B00004A871DF504A062104A80130FFF7D4FE58
:1086C0000120694608744DA003900026002504E0AF
:1086D0000398405D8019C6B26D1C082DF8D368461A
:1086E000407C8019C1B26846417404A9002070DF43
:1086F00000BF6846007E01090901491C06916846D1
:10870000007EF02188431030069000BF3E4800688C
:1087100004F0AAF887B23A463B48016806A87CDF15
:10872000044600BF2746002F05D000BF0022114697
:108730003846FFF748FD00BF07B0F0BD3349088257
:10874000704770B532480088324988420FD01321F3
:108750002F48008876DF044600BF2546002D05D04F
:1087600000BF002211462846FFF72DFD0CE074DF04
:10877000044600BF2546002D05D000BF002211464B
:108780002846FFF720FD00BF70BD00F05BFDFFF73E
:1087900044FFFFF710FE00F0A5FAFFF729FDFFF7F1
:1087A0009BFDFFF7E1FD00F0EBF8FFF7BCFE0D4885
:1087B0000068002803D00B4909684868804700BF5B
:1087C00000F0B4F900F0E4FE48DF044600BF25469F
:1087D000002D05D000BF002211462846FFF7F3FC0C
:1087E000EEE70000441B0020901B0020D41B00205B
:1087F0000186010015850100C41B002030393A3480
:10880000323A323500000000141B0020AC1B00205F
:10881000121B0020FFFF000010B55348006800281D
:108820000ED000205049086050488468012050490B
:10883000486050490C805048006800F0E7F800BFDD
:1088400010BD70B5072032DF044600BF2546002D5D
:1088500006D000BF002211462846FFF7B4FC00BF37
:1088600000BF0321072033DF044600BF2546002D4B
:1088700006D000BF002211462846FFF7A4FC00BF27
:1088800000BF07202EDF044600BF2546002D06D07E
:1088900000BF002211462846FFF795FC00BF00BF2D
:1088A00000203149086001203149086070BDF8B5E9
:1088B00005460E461746069C0120304948601820A0
:1088C0002A4948600020284908600120274908609B
:1088D000FFF7B7FFF8BDF7B506460F4626490298E1
:1088E0000860052E1CD008DC012E11D0022E11D0FC
:1088F000032E11D0042E17D110E0062E12D01A2EFE
:1089000002D01B2E10D101E001240DE002240BE067
:10891000042409E0082407E0102405E0202403E0F3
:10892000402401E0802400BF00BF082F02D0092F9F
:1089300004D101E0002503E0012501E0022500BF8C
:1089400000BF01200D494860284608210843210244
:108950000843064948600020034908600120034994
:108960000860FFF76EFFFEBD00710040007500401B
:10897000007000401C1B0020181B002000730040EA
:1089800010B5002407E0601C0001A0494018210137
:108990009E4A5050641C0F2CF5DB00219B48803010
:1089A000016780389A490860F03048601F20994973
:1089B00088600321112000F0F2F80120000496499C
:1089C0004860954940394860112001218140934A0F
:1089D000116000BF00BF01218140914A116000BFBA
:1089E00001209049086010BD8948006800280BD01C
:1089F00087480168864A08681060104600680028A9
:108A000000D15060084670470020FCE7F8B50646E4
:108A10000F46854DFFF7E8FF0446002C0DD0666039
:108A2000A7600020E06020606868002803D06868C4
:108A300004606C6001E06C602C60F8BD75484068B3
:108A4000704710B5794B1B68002B12D0FFF7F6FF6B
:108A5000764B1B68D968C31CCB1A1B021B0A744CCB
:108A6000A34201D20A4600E0C21C6A4B40331A609E
:108A700003E0431E674C4034236010BDF7B5074642
:108A80006A4EFFF7B1FF0446002C32D067600198B0
:108A9000A0600298E0603568002D07D0E868E168C2
:108AA000401A0002000A6249884207D230682060FA
:108AB0003460706800281AD1746018E014E02868E7
:108AC000002808D02868C068E168401A0002000A3F
:108AD0005749884207D2286820602C607068A842F5
:108AE00000D1746002E02D68002DE8D100BFFFF7CF
:108AF000A8FFFEBD70B504460E46256820680068D4
:108B000020602068002800D160606968A8688847F4
:108B10003F484068002805D03D48406805603C4813
:108B2000456002E03A484560056070BD70B53F4C55
:108B300000BF002615E02068002800D112E0FFF7F2
:108B40007DFF05462068C068281A0002000A3849DF
:108B5000884205D229462046FFF7CCFF012600E0D7
:108B600000E0E8E700BF304C2068002804D0002176
:108B70002046FFF7BFFF0126002EDAD1FFF761FF85
:108B800070BD00202B49086000212A4841608160A7
:108B9000C16000202749403908604860704710B51F
:108BA000002819DA244A03071B0F083B9B089B0087
:108BB000D2588307DC0EFF23A3409A438B071B0E7A
:108BC0008407E40EA3401A431B4B0407240F083C00
:108BD000A408A4001A5118E0114A03231B02D2185A
:108BE00083089B00D2588307DC0EFF23A3409A43DF
:108BF0008B071B0E8407E40EA3401A43084B032483
:108C000024021B198408A4001A5110BD1C1C00204A
:108C1000201B0020001501404013014080E200E0CD
:108C200000E100E000100140301B0020281B002064
:108C3000FFFF7F00401101401CED00E070B50446CD
:108C40000D46012D06D0022D0FD0032D12D0042D7C
:108C50001AD114E000BF03200521090707221202E0
:108C60008918A200885000BF0EE00021204600F0C5
:108C70002DF809E00121204600F028F804E0032146
:108C8000204600F023F800BF00BF70BD30B502469B
:108C900010460B46002B06D100BF01248440104D26
:108CA000EC6000BF06E000BF012484400C4DAC60C6
:108CB00000BF00BF00BF30BD014600BF08480069CB
:108CC000C840C007C00F70477047704710B58A0092
:108CD00005231B07072424021B1984001A5110BD09
:108CE000000500501FB5044B0FCB6C460FC4034961
:108CF000684663DF1FBD000060CB0100381B002009
:108D00008A88C28270470022D243C2827047FEB571
:108D100005460C4626461A36208B00280DDD2868AD
:108D200000280AD00021684601700196217E017258
:108D3000694628462A68904700BFFEBD70B50446C4
:108D40000D46AE1D3088E188884203D13146204669
:108D5000FFF7DDFF70BD704770B505460C462088F3
:108D6000012815D0102804D0112807D0502814D17C
:108D700009E021462846FFF7C3FF0FE021462846B9
:108D8000FFF7C1FF0AE021462846FFF7D7FF05E0BD
:108D900021462846FFF7DFFF00E000BF00BF70BD9F
:108DA00030B58FB004460D461C2108A803F0DDFD48
:108DB00008A8007804218843011D08A8017000203C
:108DC00009900B900C900D900E908A48017868469F
:108DD0008172894901810020019000BF68460079B5
:108DE00001090901684601710079F021884369464B
:108DF000087100BF00BF6846407901090901491C9C
:108E0000684641714079F0218843103069464871C5
:108E100000BF6846807906218843811C68468171BD
:108E20008079082188430146684681718079102144
:108E30008843014668468171807941084900491C90
:108E400068468171142103A803F08FFD02A80390E6
:108E500001A80490002168468182C1821721018304
:108E600000200790A088A31D03AA08A9A2DF0FB0C5
:108E700030BD30B58FB004460D461C2108A803F064
:108E800074FD08A8007810218843411808A80170D3
:108E9000002009900B900C900D900E905548017891
:108EA000684681725449491C01810020019000BF2D
:108EB0006846007901090901491C68460171007979
:108EC000F021884310306946087100BF00BF684632
:108ED000407901090901684641714079F0218843D0
:108EE0006946487100BF6846807906218843811C25
:108EF00068468171807908218843014668468171FE
:108F00008079102188430146684681718079410843
:108F10004900491C68468171142103A803F025FD0E
:108F200002A8039001A80490002168468182C182B2
:108F30001721018300200790A08823460E3303AA3F
:108F400008A9A2DF0FB030BDF8B504460E460121D6
:108F5000C9036846018027480178684681703068F7
:108F600020600020C043E082221D69460120A0DF6E
:108F70000546002D01D02846F8BD31462046FFF7B2
:108F80000FFF0546002D01D02846F5E73146204663
:108F9000FFF76FFF0546002D01D02846ECE70020C3
:108FA000EAE7F0B585B004460F461646E08A134955
:108FB00088421BD0049600200090019002900390FC
:108FC000E18968460180012181700021818004A827
:108FD00002900397E08A6946A6DF0546002D04D17A
:108FE0006846008AB04200D00C2500E008252846DB
:108FF00005B0F0BD381B002001800000FFFF00001D
:10900000F8B50646354601207749C8607749C863F8
:1090100007207749086100208860FF2072491522E7
:1090200092018918C8600020714948600820714980
:10903000086000216F48C038C160816041600160F4
:10904000002434E0691C085D00F091F8281D005DE3
:109050006549152292018918A2008850691C085D93
:1090600000F085F8634BC03BA700D919A300624FFD
:10907000DA196306180E23DF6200012191400846C9
:1090800021DFA300DA195B49B43963005B1CD8B255
:1090900023DF6100491C01228A40104621DF681C41
:1090A000015D00230322204600F06AF8641C032CB3
:1090B000C8DB01204C490860F8BD70B504460D4678
:1090C000032221464D4803F0F1FB4C49491ECD7166
:1090D00070BD10B501204949491E08704848FFF786
:1090E00095FC10BD10B500204449491E08700120B0
:1090F0003D49C86000203D49C863002421E000BF0D
:1091000040493D48512212018018A200815000BF01
:109110003A49085D00F02BF8384A105D012100291A
:1091200006D100BF01228240374BDA6000BF06E063
:1091300000BF01228240344B9A6000BF00BF00BFD5
:10914000641C032CDBDB10BD10B504460322214652
:109150002A48C01C03F0AAFB2848401E00780028BB
:1091600004D02649491E2648FFF750FC10BD0321B4
:109170000522120707231B02D2188300D150704723
:1091800070B5002B0BD101248C401F4DEC601F4C9F
:10919000194D51263601AD198600AC510AE0012463
:1091A0008C40194DAC601A4C134D51263601AD1947
:1091B0008600AC5100BF00BF00BF012485000E4EE9
:1091C000AD192C600C0203252C4315042C431D05FE
:1091D0002C43354651263601AD198600AC5100BFEF
:1091E00000BF00BF70BD000000A00040C0AF004045
:1091F00000A5004000A20040006000403A1B002093
:1092000001900100001F030000050050031F020031
:10921000031F010000207047704730B585B0054638
:109220000C460220694608702246294600A80130F3
:1092300003F03CFB601CC2B269460648FFF7B1FE72
:1092400005B030BD10B50448006801680348884780
:1092500010BD0000901B0020441B002080CB0100AB
:1092600070B505462C46207B00F0B1F8207B01212B
:10927000002906D100BF01228240734BDA6000BF93
:1092800006E000BF012282406F4B9A6000BF00BF22
:1092900000BF02206D496E4A51231B01D218830082
:1092A000D15000BF01206B49C86000206A49C863E3
:1092B0006168A068884209D2FFF7C0FB06463236D3
:1092C000324629466548FFF7D9FB15E0607B401C14
:1092D0006073607B03280CDA002061498860FFF727
:1092E000ADFB6049461832465D495C48FFF7C6FB56
:1092F00002E000205A49887370BDF8B5044625463F
:10930000AA689200286881580120C00303F02FFB4F
:10931000064601204F49C8604F49C8630920524999
:109320000861287B00F053F800204F498860B0089E
:109330004D4940310860700846491522920189184C
:1093400048600020484948600220484908600021E0
:109350004648C038416001603D4A0832014600205D
:1093600023DF012021DF297B01230322022000F0DB
:1093700037F8012037490860A868401CA860FFF74B
:109380005DFB0746C8373A4621463948FFF776FB6A
:10939000F8BD70B504463248047336483049086059
:1093A000042048600020886048730846807BC0071E
:1093B000C00F00280AD101208873FFF73FFB054644
:1093C00032352A4626492548FFF758FB70BD032150
:1093D0000522120707231B02D2188300D1507047C1
:1093E00070B5002B0BD101248C40174DEC60224C42
:1093F000174D51263601AD198600AC510AE0012403
:109400008C40114DAC601D4C114D51263601AD19EB
:109410008600AC5100BF00BF00BF012485000C4E88
:10942000AD192C600C0203252C4315042C431D059B
:109430002C43354651263601AD198600AC5100BF8C
:1094400000BF00BF70BD000000050050001F0300FA
:109450000060004000A00040C0AF0040FB9201004F
:109460001C1D0020DC05000000A5004000A20040FB
:109470006192010070CB0100031F0200031F010075
:1094800010B585B00A4603786C4623700478230033
:1094900003F04DFB150C0D12131424151617181993
:1094A0001A1B1C1D1E1F20212223240016E000234E
:1094B0006C466370022111E010E00FE00EE00DE059
:1094C0000CE00BE00AE009E008E007E006E005E058
:1094D00004E003E002E001E000E000BF00BF05B0EF
:1094E00010BD70B586B004460E461546002168468C
:1094F000017144712A463146801D03F0D7F9A81C3A
:10950000C2B201A90248FFF74CFD06B070BD0000D1
:10951000901B00200178002904D0032903D00429DE
:1095200002D102E001E000E000BF00BF7047F0B5EB
:1095300089B005460E466846057646760021817656
:10954000C176017741775248089000BF002005900E
:1095500050480190802002904F4803908020049052
:1095600005A803234D4A01A9009006A800F0ADFC10
:10957000044600BF00BF2746002F06D000BF0022D0
:1095800011463846FEF71FFE00BF00BF09B0F0BD10
:1095900038B541E04248007822280ADA6846017866
:1095A0003F4802780078401C3D4B18703D4881547C
:1095B00006E022213B4803F0D6F900203849087024
:1095C00038480078812807D02221364803F0CBF9AB
:1095D00000203349087038BD31480078022800DA8D
:1095E000F9E7304844782E480178A01C814200DA1F
:1095F000F1E72C4DAD1C2C480068002805D02A4806
:1096000000682146C269284690472221254803F078
:10961000AAF9002022490870684600F0BCFC002826
:10962000B8D000BFD7E7F3B581B00E4681216846B8
:1096300001704670002411E06946085D00F0CAFC24
:10964000054600BF2F46002F06D000BF002211465E
:109650003846FEF7B8FD00BF00BF641C022CEBDBF0
:10966000002411E00199085D00F0B4FC054600BF3C
:109670002F46002F06D000BF002211463846FEF7C5
:10968000A2FD00BF00BF641CB442EBD3FEBD0000CE
:10969000005027004E1D0020CE1D00201595010012
:1096A000481B00202C1D0020441B0020F7B584B06F
:1096B00004460F4606980678B01C1F2803DC607825
:1096C000801C1F2802DD0C2007B0F0BD1F20801B6E
:1096D000801E85B20295B11C781802A97DDF039027
:1096E0000398002801D00398EEE72078022808D1DB
:1096F00068460089A84204DC092001906846058973
:109700000BE0082001906078002804D06078A8421F
:1097100001DC657801E068460589681CC2B2304604
:10972000711CCEB23A543046721CD6B201993954EB
:1097300006980178A81C0818C1B20698017000208C
:10974000C2E7F8B505460C462078001D1F2801DD4C
:109750000C20F8BD684679DF0646002E01D0304661
:10976000F7E703212278501C2070A9541921227890
:10977000501C2070A954207841196846008800F0D8
:109780005EFA2178401820700020E2E730B50346E9
:109790001078C01C1F2801DD0C2030BD0224157874
:1097A000681C10704C550A241578681C10704C55B4
:1097B0001578681C10704B550020EEE7FFB587B098
:1097C00006461D46109C0020069020780590002734
:1097D00047E0B900706841180A88684602814988E4
:1097E0004181002203A902A865DF049004980028A3
:1097F00002D004980BB0F0BD6846017B0998814205
:109800002ED10698002801D0002000E0022001900F
:1098100020786946097B4118019808181F2801DD46
:109820000C20E7E70698002809D12078401C20701A
:109830002278511C08982170A854012006902078A5
:10984000421903A902A865DF04900498002801D0FA
:109850000498CFE720786946097B4018207000BF44
:109860007F1C3088B842B4DC0698002806D02178E6
:109870000598401C081AC1B2059829540020B9E780
:10988000FFB581B0074615460A9E0096022238466B
:10989000049B0299FFF792FF0446002C02D0204659
:1098A00005B0F0BD0096102229463846049BFFF70C
:1098B00085FF0446002C01D02046F1E70020EFE7A9
:1098C00001460888062808DB08881922D201904240
:1098D00005DD0888DE4A904201D00720704748889D
:1098E000062808DB48881922D201904205DD488805
:1098F000D74A904201D00720F0E70888D44A904226
:1099000008D04888904205D008884A88904201DDF6
:109910000720E3E70020E1E7F8B506460D461446C8
:109920002078801D1F2801D90C20F8BD3046FFF794
:10993000C7FF0746002F01D03846F6E705212278F9
:10994000501C2070A95412212278501C2070A95458
:1099500022785119308800F072F92178401820706F
:1099600022785119708800F06AF921784018207027
:109970000020DAE7F8B505460E4614462879801C23
:10998000C7B22078801CC0191F2801DD0C20F8BD4B
:10999000781CC1B22278501C2070B154FF2122786B
:1099A000501C2070B15422789119288800F047F992
:1099B000217840182070A88800280EDDA8680028AB
:1099C00001D10720E3E7AA8823789819A96802F053
:1099D0006DFF20782979401820700020D7E7FEB568
:1099E00007460E461446B86A002801D10720FEBD7E
:1099F0000020019032E0B96A0C22019850430D1802
:109A00002879801CC0B200900098401CC1B2227816
:109A1000501C2070B15416212278501C2070B15473
:109A200022789119288800F00AF9217840182070CE
:109A3000A88800280EDDA868002801D10720D6E7F5
:109A4000AA8823789819A96802F030FF207829792C
:109A5000401820700198401CC0B201902C20C15DBC
:109A600001988142C7DC0020C1E7F8B504460F46E3
:109A700015460026002028702078002809D02A46A4
:109A800039462046FFF712FE0646002E01D030462A
:109A9000F8BDA078002808D029463846FFF751FEC7
:109AA0000646002E01D03046F2E7E07800280ED0BE
:109AB00002212A78501C2870B95401212A78501CA0
:109AC0002870B954E1782A78501C2870B95460681D
:109AD00000280BD00020616808562A463946FFF757
:109AE00055FE0646002E01D03046D1E720890028D9
:109AF0000CDD3B4606220221204608300095FFF788
:109B0000BFFE0646002E01D03046C1E7208A00285D
:109B10000CDD3B4607220321204610300095FFF75D
:109B2000AFFE0646002E01D03046B1E7208B00285C
:109B30000CDD3B4615221421204618300095FFF716
:109B40009FFE0646002E01D03046A1E7206A00287D
:109B500009D02A463946206AFFF7DEFE0646002E67
:109B600001D0304694E7606A002809D02A46394679
:109B7000606AFFF7FFFE0646002E01D0304687E7F9
:109B80002C20005D002809DD2A4639462046FFF7D3
:109B900026FF0646002E01D0304679E7304677E7AB
:109BA0000146C87804221040002801D107207047E0
:109BB0000020FCE70146C878002801D00720704744
:109BC0000020FCE7F3B593B00D46002112911191EE
:109BD0001398002814D01398FFF7E2FF0446002CD6
:109BE00002D0204615B0F0BD12AA09A91398FFF7BC
:109BF0003CFF0446002C01D02046F3E709AE00E00C
:109C00000026002D13D02846FFF7D4FF0446002C71
:109C100001D02046E6E711AA01A92846FFF725FF53
:109C20000446002C01D02046DCE701AF00E000270D
:109C300010A803793A46017A304672DFD2E702462D
:109C40000A70FF2000021040001248700220704786
:109C5000FFFF00000020F84908700120F749C860A4
:109C600048600020F649086070471CB50120F349A0
:109C7000C860F14908700320694608706846F149D8
:109C8000096888471CBD08B5EB480078022802D057
:109C90000120EA4988606946EB4802F0CBFC0028C5
:109CA00002D0FFF7E2FF08BD8020E84988606846DF
:109CB0000078E349C8610220DF4908708020E34949
:109CC000486000BFEFE710B5DF48C068DE4989682B
:109CD000401A02D0FFF7D7FF01E0FFF7C6FF10BD23
:109CE00010B5D5480078012802D0022807D102E03B
:109CF000FFF7B0FF04E00320CF49087000E000BF89
:109D000000BF10BD10B5CC480078002802D0032851
:109D100017D112E00420CA4908600120C749086031
:109D2000C948C068C8498968401A02D0FFF7ABFF2C
:109D300002E00120C049087004E00220BE4908701A
:109D400000E000BF00BF10BD10B5BB48007801287F
:109D500007D0022804D0032806D1FFF77BFF04E0D8
:109D600000BFFFF7B0FF00E000BF00BF10BD10B59F
:109D7000B1480078012801D1FFF785FF10BD10B56B
:109D8000FFF768FF10BD10B50446230002F0CFFEB8
:109D90000504070D0A101300FFF7A2FF0CE0FFF700
:109DA000B1FF09E0FFF7D0FF06E0FFF7E0FF03E0B7
:109DB000FFF7E5FF00E000BF00BF10BD1CB5A448E1
:109DC0008068002830D00020A1498860A148C06880
:109DD000A0498968401A9F498988884220D29848BA
:109DE0008069C1B29B4802F010FC0446002C08D0E8
:109DF00001206946087001946846924909688847BD
:109E000011E09448C06893498968401A01280AD132
:109E100000206946087068468A490968884702E058
:109E200001208D49087000BF8948C069002805D00D
:109E300000208749C8610320FFF7A5FF8448406AD6
:109E400000280FD00020824948627D48803804688D
:109E500004600220694608700194684679490968DF
:109E6000884700BF1CBD0420754908600020784960
:109E70008860C86172484030C06A4008400070493C
:109E80004031C8620020C0436D49886008610120EC
:109E90006A498860086070470421694A116000219E
:109EA0006B4A9160D16166494031C96A0122114310
:109EB000634A4032D162C178614A11618178916010
:109EC00001215E4A916011607047FFB581B0044680
:109ED0000D460020584908705A4903980860002D23
:109EE00002D1072005B0F0BDA88882B25948296880
:109EF00002F076FB0646002E01D03046F2E7A88934
:109F000082B25148A96802F06BFB0646002E01D0D0
:109F10003046E7E7607803210522120707231B027A
:109F2000D2188300D15000BF207800218A00052379
:109F30001B0707273F02DB198700DA5100BF607853
:109F40003F49C86020784861A0684862607900286D
:109F500004D00E203A494031C86203E0002038495D
:109F60004031C862FFF77FFF012033490870801E2F
:109F700036498860A120800048600220012181408C
:109F8000364A116000BF049900F073F8022000F017
:109F900069F80020A6E770B504460220012181403F
:109FA0002F4A116000BF21462A4802F043FB0546B4
:109FB00029480078002808D021488069C1B2254886
:109FC00002F023FB002024490870022000F04AF828
:109FD000284670BD70B5044621461B4802F015FBAB
:109FE00005460220FFF7CFFE284670BD10B5194880
:109FF00002F035FB0446002C01D0204610BD12486B
:10A0000002F02DFB0446002C01D02046F6E700208C
:10A01000F4E7014608480078002801D0012000E05C
:10A02000002008700020704710B504460420FFF798
:10A03000AAFE002010BD0000501B002000200040A0
:10A04000002500404C1B0020601E00200023004023
:10A0500000210040501E0020511B002080E200E043
:10A0600080E100E0C206D20E012191401C4A11603D
:10A07000704710B5002819DA1A4A03071B0F083B6E
:10A080009B089B00D2588307DC0EFF23A3409A4312
:10A090008B071B0E8407E40EA3401A43114B0407E1
:10A0A000240F083CA408A4001A5118E00C4A03230A
:10A0B0001B02D21883089B00D2588307DC0EFF23B3
:10A0C000A3409A438B071B0E8407E40EA3401A4358
:10A0D000034B032424021B198408A4001A5110BD49
:10A0E00000E100E01CED00E010B5044601210C2069
:10A0F0006043F74A80188172891E0C2060438018E3
:10A100000181FF210C2060438018C1720C21614342
:10A110008818072102F027FC10BD10B504461C2149
:10A120006143EC4A891808461130062102F01BFCF5
:10A130001C216143E74A8818102102F014FCFF211A
:10A140001C206043E34A801801741C20604380187F
:10A1500081760021C9431C2060438018018320467A
:10A1600001F007FB10BD70B503460C460820002126
:10A1700015E00C254D43D64EAD19AD7A2540002D86
:10A180000CD0D54DAB4205D00C254D43AD192D89D2
:10A190009D4202D11160002003E00520491C0029E6
:10A1A000E7D000BF70BD7CB50546A9B26A46CB4872
:10A1B00002F001F80446002C09D15421684602F04F
:10A1C00088F90446002C02D12846FFF7A6FF204656
:10A1D0007CBDF8B505460E461746052000900024C4
:10A1E0001BE0002D06D11C206043BA494018008BAB
:10A1F000B8420DD0002D0FD01C216143B54A8918FB
:10A20000084610300722294602F000FB002803D13F
:10A2100034600020009002E0641C072CE1D300BFF2
:10A220000098F8BD10B50446002010BDFEB50446E8
:10A230000E46A1786A46A94801F0BDFF0546002DEB
:10A2400049D160780C214843A1494018807A4021C7
:10A250000840402801D0022E01D1A14F04E0012E78
:10A2600001D1A04F00E0A04FA0781C225043994A92
:10A27000811800231C226846B8470546002D1AD1D4
:10A28000022E18D060780C21484391494018807AFA
:10A290004021884361780C2251438D4A8918887285
:10A2A00060781C225043914A81181C231A46684644
:10A2B000B847054600BF022E0DD020780C21484338
:10A2C0008B494018807A80008A490A58214668469E
:10A2D0009047054600BFFEBDF3B585B00C46032789
:10A2E0000E20049061780C225143794A891808891C
:10A2F0003B4604AA6946AADF0646002E4DD1617886
:10A30000182251437C4A89180846083069460A8A4F
:10A3100002F07CFA002812D160780C2148436C4985
:10A320004018807A02210840022836D0617818222D
:10A330005143714A8818182102F017FB2DE060780C
:10A34000182148436C4940184068002801D0644DEA
:10A3500000E0644D60781821484367490F50694612
:10A36000098A607818225043634A801841606178F6
:10A3700018225143604A89180846083069460A8AFB
:10A38000FDF702FF6078182250435B4A811838239A
:10A3900018220598A847064600BF002007B0F0BD68
:10A3A00002460020704770B505460C4661781822B9
:10A3B0005143514A881838231822294602F018F8C8
:10A3C0000646002E0FD16078182148434A494018AC
:10A3D0004068401C002806D10021607818225043B4
:10A3E000454A80184160304670BD024600207047E3
:10A3F000F8B505460027002000900026687818214F
:10A4000048433D4940184068002827D068780C210F
:10A4100048432F494018807A8021084080281DD168
:10A4200068780C2148432A494018807A4021084026
:10A43000402813D06878182148432F494018074610
:10A4400008376878182148432B494018808880B223
:10A45000009068781821484327490E5869780C22E3
:10A4600051431B4A8918088933463946009AA9DFA7
:10A4700004460B2C0BD1012669780C225143144A57
:10A480008918088933463946009AA9DF0446002C0A
:10A4900000D01A4C012E18D169780C2251430C4A75
:10A4A000891808890C4A0C21A7DF0446002C0CD01F
:10A4B0001348844208D0082C06D0801C844203D064
:10A4C000112C01D0002400E00C4C2046F8BD000007
:10A4D000681F0020701E0020FFFF0000541B00209A
:10A4E00027C301005DC2010025A20100341F002026
:10A4F000741F0020D4CB0100501F002041800000B9
:10A50000023000000146002070470146002901D1B9
:10A51000FE487047FF20087048708870C87000209F
:10A52000F7E7FFB591B00F461D4600BFF848006839
:10A53000002801D115B0F0BD00BF1A98542800D9E9
:10A54000F8E7012007900DA8FFF7DFFF064600BFE0
:10A550000696069E002E06D000BF002211460698E1
:10A56000FDF731FE00BF00BF002108A8017501768C
:10A570000C951A980B900020069016E0069881B270
:10A5800008AAE44801F017FE0646002E0AD1082268
:10A5900008A9119802F03AF9002803D108A90698F1
:10A5A000887505E00698401C069006980728E5D3B4
:10A5B00000BF08A8807DFF2876D0042F0AD11A9802
:10A5C000542803D1202008A9087673E0402008A968
:10A5D00008766FE0D049681A1C2102F0C8F90446D9
:10A5E000072C1DD20AA80F901398002810D108A993
:10A5F000887D01218140C94A12681140002901D09B
:10A60000012100E00021002902D10020079051E043
:10A6100008A9887D01F0ADF8202008A9087649E056
:10A62000BF49681A1C2102F0A2F90446002C1AD175
:10A630000AA80F90202108A80176447500200490F4
:10A64000B84905911C206043B5494018019008A8FD
:10A65000807D1C214843B0494018029001A80C900D
:10A6600018200B9026E0B049681A182102F07FF9F3
:10A670000446002C19D1302108A801764475012127
:10A68000C1750C206043A9494018807A0221084016
:10A6900002280FD008A9497D18225143A24A8818E0
:10A6A000182102F062F905E026E000200790402022
:10A6B00008A90876079801281ED1042F06D108A9F9
:10A6C000087E0321084308A908760EE0032F06D16F
:10A6D00008A9087E0121084308A9087605E008A911
:10A6E000087E0221084308A908760AA80F900EA93F
:10A6F0000DA8139A01F080F800BF1BE77FB506464E
:10A70000002E02D1814804B070BD00240FE000BFCC
:10A7100000210C2060437E4A11500C2060438018B9
:10A7200041720C2060438018817200BF641C002CB1
:10A73000EDD0002403E02046FFF7D6FC641C002C7B
:10A74000F9D01821784802F010F9002406E02046DC
:10A75000FFF7E3FCFF2076490855641C072CF6D36D
:10A760005421684681810721C1817248029069495C
:10A7700002A801F087FC0546002D30D101206E496A
:10A7800008703078002821D100241CE0A1B26A466C
:10A79000604801F010FD0546002D0FD11C216143DA
:10A7A0005D4A881800231C22694601F021FE0546F7
:10A7B000002D07D000206049087006E000205E49A7
:10A7C000087002E0641C072CE0D308E06A46908918
:10A7D000D289504381B24F4801F07BFE054628469E
:10A7E00091E770B505460C4600BF53480078002835
:10A7F00002D14648801F70BD00BF002D01D14348E3
:10A80000F9E7002C01D14148F5E72068002801D183
:10A810003E48F0E73E480068002834D13C492068B3
:10A8200008600522611D3A48001D02F03FF82079BA
:10A83000374988720846007A400840000872084686
:10A84000007A02218843801C314908720846007A48
:10A85000042188432E4908720846C0794008400008
:10A86000401CC8710846C07902218843801C2849D1
:10A87000C8710846C079042188432549C871002061
:10A880002870002601E0214E0A3E3046B3E770B53D
:10A89000044600BF28480078002802D11B48801FCA
:10A8A00070BD00BF002C01D11848F9E700BF207827
:10A8B000012806DA20780C21484315490858002859
:10A8C00002D11248801FEBE700BF00BF607801286B
:10A8D00007DA60780C21484314494018807A01282F
:10A8E00002D10A48801CDBE700BF084DAD1F60782D
:10A8F0000C2148430D494018807A02210840022863
:10A9000021D161780C225143084A17E00E800000E3
:10A91000741F0020541B0020701E00205C1B0020B0
:10A92000341F0020801F0020501F0020681F0020BF
:10A93000611B002023A50100601B002089180889E5
:10A94000FB497EDF05462846AAE7024600BFF948D4
:10A950000078002801D1F848704700BF002A02D1D2
:10A96000F548801DF8E7002902D1F348801DF3E780
:10A9700000BF1078012807DA10780C235843EC4BFD
:10A980001B1F1858002801D1EB48E5E700BF00BFA6
:10A990005078012807DA50780C235843E74BC01849
:10A9A000807A012802D1E4480830D5E700BF50780A
:10A9B0000C235843E14BC018807A04231840002828
:10A9C00009D150780C235843DC4BC018807A2023DF
:10A9D0001840002802D0012008700EE050780C23A7
:10A9E0005843D64BC018807A80231840002802D0E4
:10A9F0000220087001E0002008700020ACE7F8B5E4
:10AA0000044600BFCB480078002801D1CA48F8BDF1
:10AA100000BF002C02D1C848801DF8E7002902D1F0
:10AA2000C548801DF3E70868002802D1C248801D90
:10AA3000EDE78868002802D1BF48801DE7E700BF26
:10AA40002078012807DA20780C256843B84D2D1F9F
:10AA50002858002801D1B848D9E700BF00230022B8
:10AA60000020009000BF47E00025009500BF12E0E5
:10AA70000C266E43B14FF619F67A86420AD10C269F
:10AA80006E43F619B67A02273E40022E02D1012605
:10AA9000009602E06D1C002DEAD000BF009D002D45
:10AAA00029D10D7B954211D91C254543A44EAD19E2
:10AAB000AD7EED07ED0F002D08D11C254543AD19E6
:10AAC00097008E68F5519F4EB054521C0D799D42EF
:10AAD00011D91C2545439A4EAD19AD7E022635404D
:10AAE000002D08D11C254543954EAD1910359F000A
:10AAF0000E68F5515B1C401C0728B5D30B710A7317
:10AB0000002084E702468C488830704770B50446C0
:10AB100000BF88480078002801D1874870BD00BF79
:10AB2000002C02D18448801DF8E700BF207801285E
:10AB300007DA20780C2148437D49091F085800286E
:10AB400001D17D48EAE700BF00BFA078072807DAF7
:10AB5000A0781C2148437A494018807EFF2802D102
:10AB600075480830DAE700BFA078FFF71CFB054600
:10AB70002846D3E770B5044600BF6E480078002829
:10AB800001D16D4870BD00BF002C02D16A48801D04
:10AB9000F8E700BF2078012807DA20780C21484325
:10ABA0006349091F0858002801D16348EAE700BF3C
:10ABB000002600250BE01C20684361494018807E78
:10ABC000FF2803D02846FFF7EEFA06466D1C072D36
:10ABD000F1D33046D6E7FEB504460D4600BF5548D2
:10ABE0000078002801D15448FEBD00BF002C02D1DE
:10ABF0005148801DF8E7002D02D14F48801DF3E732
:10AC000000BF2078012807DA20780C214843484902
:10AC1000091F0858002801D14748E5E700BF00BFD9
:10AC20006078012807DA60780C21484343494018CE
:10AC3000807A012802D140480830D5E700BF00BF24
:10AC4000A078072807DAA0781C2148433C4940181F
:10AC5000807EFF2802D138480830C5E700BFE86889
:10AC6000002813D0A868002810D0A8680E280DD29C
:10AC7000287801280AD1637818277B43324FDB19E3
:10AC800018460830AA68E96801F010FEA1786A4603
:10AC90002E4801F090FA0646287880002C490A5880
:10ACA000214668469047064630469DE77CB50446F7
:10ACB0000D4600BF1F480078002801D11E487CBD0A
:10ACC00000BF002C02D11C48801DF8E7002D02D1E6
:10ACD0001948801DF3E700BF2078012807DA2078A3
:10ACE0000C2148431249091F0858002801D1124875
:10ACF000E5E700BF00BFA078072807DAA0781C218D
:10AD000048430F494018807EFF2802D10A48083086
:10AD1000D5E700BF60780C21484308494018807A85
:10AD200002210840022815D003488930C7E70000F7
:10AD3000781F0020601B002008800000681F002092
:10AD4000701E0020611B0020501F0020541B00209B
:10AD5000D4CB0100E868002813D1A8680E2810D2CF
:10AD6000287801280DD1607818214843FE49401801
:10AD70000830E860607818214843FB494018416872
:10AD8000A960A1786A46F94801F015FA06462878C4
:10AD90008000F7490A5821466846904706463046E3
:10ADA0008DE7014600BFF3480078002801D1F24842
:10ADB000704700BF002902D1EF48801DF8E700BFAF
:10ADC0000878012806DA08780C225043EB4A10581C
:10ADD000002801D1E848EBE700BF00BF88780728CA
:10ADE00007DA88781C225043E54A8018807EFF28C5
:10ADF00002D1E1480830DBE700BFDF488830D7E701
:10AE00000246DD48893070470246DB48893070478A
:10AE10000146D94889307047024600BFD5480078BE
:10AE2000002801D1D448704700BF002902D1D24880
:10AE3000801DF8E7002A02D1CF48801DF3E700BF4C
:10AE40001078012806DA10780C235843CB4B185899
:10AE5000002801D1C848E6E700BF1078087000203C
:10AE6000E1E770B504460D4600BFC24800780028EF
:10AE700001D1C14870BD00BF002C02D1BE48801D69
:10AE8000F8E7002D02D1BC48801DF3E700BF207811
:10AE9000012806DA20780C214843B84908580028D0
:10AEA00001D1B548E6E700BF00BFA078072807DA60
:10AEB000A0781C214843B2494018807EFF2802D167
:10AEC000AD480830D6E700BF6078FF281CD128784D
:10AED000022819D0A1781C225143A94A8918084692
:10AEE00010300722294601F0E1FCA07801218140C1
:10AEF000A44A12681143A34A116000BF02212046F0
:10AF0000FFF794F9002601E09B4E761E3046B1E72C
:10AF100070B504460E4600BF96480078002801D15F
:10AF2000954870BD00BF002C02D19348801DF8E702
:10AF3000002E02D19048801DF3E700BF2078012841
:10AF400006DA20780C2148438C490858002801D1A2
:10AF50008948E6E700BF884DED1EA078FF2817D18D
:10AF60006078FF282AD060780C2148438649401831
:10AF7000807A02210840022820D160780C225043B8
:10AF8000814A81180722304601F090FC002515E027
:10AF9000A0781C2148437A494018807E022108404D
:10AFA00000280BD1A0781C225043754A8018014616
:10AFB00010310722304601F079FC00252846B0E721
:10AFC00070B58AB005460C4600BF6A480078002874
:10AFD00002D169480AB070BD00BF002D02D1664899
:10AFE000801DF7E7002C02D16348801DF2E700BF07
:10AFF0002878012806DA28780C2148435F49085848
:10B00000002801D15C48E5E700BF00BFA878072809
:10B0100007DAA8781C21484359494018807EFF2848
:10B0200002D155480830D5E700BF00BF0020E060DE
:10B03000A8781C21484352494118216100216161CF
:10B04000524860600020A06003A82060A97801AA8F
:10B05000464801F0B0F80646002E17D11C231A46C8
:10B0600001A903A801F0C4F90646002E0ED1E06044
:10B07000A8781C214843424941182161002161619F
:10B08000424860600020A06003A820603046A1E72D
:10B090007CB50446A1786A46344801F08CF8054630
:10B0A000002D13D161781C225143394A88181C2382
:10B0B0001A46694601F09CF93048807A80002C4994
:10B0C0000A58214668469047054600BF7CBDF0B54A
:10B0D0008FB00446FF200D9000260020079000BF8F
:10B0E00024480078002801D10FB0F0BD00BF00BF98
:10B0F00022480068002800D1F6E700BF0CA8FFF73F
:10B1000004FA054600BF2F46002F06D000BF0022DC
:10B1100011463846FDF757F800BF00BF00200890E1
:10B120000025201D0A902A2168468185FF2108A854
:10B1300081740021017400200E90208810282AD0EC
:10B14000A0880EAA0221FFF70EF80546002D22D195
:10B150000C210E9848430C494018C17A08A8817404
:10B160000E98C1B208A815E0501F0020541B002003
:10B17000E4CB0100601B002008800000741F002049
:10B18000701E00205C1B0020681F0020801F002014
:10B19000341F00204174208817287BD008DC102839
:10B1A0000DD011287CD0132876D0142875D1B5E0A5
:10B1B000182873D01C2872D05228F7D17EE20EAF27
:10B1C0003A460121FE48FEF7CEFF00900098002885
:10B1D00007D102210C2238685043FA4A8018817244
:10B1E00001E00420009000980546002D51D1012671
:10B1F000112108A801710E98C1B208A84174A18854
:10B200000C220E985043EF4A8018018102210C2233
:10B210000E985043EB4A801881720C220E995143CC
:10B22000E84A88180722A11D01F040FB207D30402C
:10B2300000280AD0207D4008E349085CFF280AD096
:10B24000207D4008085C0D9005E0DD4A0DA9A01D99
:10B25000FEF7BFFF0546002D1BD10D98C1B20C2291
:10B260000E985043D74A8018C1720C210E9848435B
:10B2700011464018807A082108430C220E99514348
:10B28000D04A8918887208A90D9888740CA8FFF70D
:10B29000FFFE22E2F9E003E085E01DE2ABE116E209
:10B2A0000C210E984843C7494018807A02218843F0
:10B2B0000C220E995143C34A891888720C210E98AA
:10B2C000484311464018807A0821084008280ED1CA
:10B2D0000C210E98484311464018807A802108407E
:10B2E00080280FD100210CA8FEF7A0FF0AE008A8D3
:10B2F000807CFF2806D008A9887CFEF70EFFFF207F
:10B3000008A9887410210C220E985043AD4A801869
:10B3100081720126122008A90871DEE10C210E9825
:10B320004843A8494018C07AFF2823D1E2890DA9D3
:10B330000020FEF74EFF0546002D1BD10D98C1B22F
:10B340000C220E9850439F4A8018C1720C210E980F
:10B35000484311464018807A082108430C220E9970
:10B360005143984A8918887208A90D9888740CA8C6
:10B37000FFF78EFE0C210E98484392494018C07A80
:10B38000FF2805D01C210E9848439049401807908B
:10B390001C230E9959438E4BCA18A0880023079985
:10B3A00082DF054699E1132008A908710C210E9847
:10B3B000484384494018807A042108430C220E999E
:10B3C0005143804A8918887201260C210E984843FF
:10B3D00011464018C07AFF2819D10C220E9850430C
:10B3E0000A4681180DA800F0CCF90546002D0BD1B6
:10B3F00008A90D9888740D98C1B20C220E9850437C
:10B40000704A8018C1721DE0089501261AE01620C6
:10B4100008A9087118220E9951436E4A89180846E6
:10B4200008300E2101F0A1FA0C210E98484365491D
:10B430004018807A402108430C220E995143614AFA
:10B4400089188872002004900C210E9848435D49A9
:10B450004018C07A1C2148435D49411805910021DC
:10B4600006911C210E98484358494018019000202D
:10B4700002900390A08801AB574A00217FDF054668
:10B48000002D01D00895002627E15348001F407A7F
:10B49000400840005049091F48720C210E9848434B
:10B4A00048494018807A042188430C220E99514360
:10B4B000444A89188872142008A908710126A079C5
:10B4C00000280AD00C220E9951433E4A8918C87AA6
:10B4D000FEF769FEA07908908CE0E0794007C00F84
:10B4E00000287BD008A8807CFF2877D00C210E98FC
:10B4F000484334494018807A082108430C220E99A9
:10B500005143304A89188872E07A8007C00F0028BA
:10B510000FD008A8807C1C2148432D494018807E0C
:10B520004108490008A8807C1C225043284A801802
:10B5300081760C210E98484322494018C07AFF2892
:10B5400058D00C210E9848431E49085C022820D090
:10B550000C230E9A5A430B46D11808AA927C1C233E
:10B560005A431B4BD21810461030072201F09EF9A7
:10B5700008A8807C1C21484315494018807E022180
:10B58000884308A9897C1C225143114A891888766E
:10B590002CE01C210E9848430C494018418A08A809
:10B5A000807C1C2250430A4A8018018308A8807CB2
:10B5B0001C21484311464018807E410849000EE096
:10B5C000FFFF0000681F0020611B0020341F0020C7
:10B5D000701E0020501F0020781F00200AE008A8DD
:10B5E000807C1C225043A44A8018817601210CA83B
:10B5F000FEF71CFE71E0A079000901283DD1A07979
:10B600000007000F012838D10C210E9848439B49B0
:10B610004018807A0821084008282ED118220E9957
:10B620005143974A891808180E2101F09EF91620F7
:10B6300008A908710C210E98484390494018807A57
:10B64000202108430C220E9951438C4A8918887294
:10B650000C210E98484311464018807A4021084337
:10B660000C220E995143854A891888728548407A80
:10B6700002210843834948721CE00C210E9848437C
:10B680007E494018807A802108430C220E9951434C
:10B690007A4A89188872152008A908717948807A31
:10B6A0008000794A11580CA888470546002D01D022
:10B6B000764808900020089001260EE07148807AB4
:10B6C0008000714A11580CA88847089005E01320A3
:10B6D00008A90871012600E000BF00BF002E16D0A7
:10B6E00009A90CA8089A00F087F808A80079122880
:10B6F0000DD100BF0C210E98484360494018807A54
:10B70000012802D00E98FEF7EFFC00BF00BF00BF7B
:10B71000EAE430B50446002902D15C48333830BD34
:10B7200000BF0878012806DA08780C256843554DD3
:10B730002858002802D155483938F0E700BFFF20CB
:10B740008870052300220FE00C2050434B4D401918
:10B750000089A04207D14A700C2050434019C07A9A
:10B760008870002302E0521C002AEDD000BF18466A
:10B77000D5E701218140464A12688A4344490A605C
:10B780007047F8B505460E46404FBF1C00242EE01A
:10B790001C20604338494018807EFF2826D130782D
:10B7A000022814D01C2060434018807E0221884368
:10B7B0001C216143304A891888761C21614389180D
:10B7C000084610300722314601F070F80BE01C20CB
:10B7D000604329494018807E410849001C2060438D
:10B7E000254A801881762C70002702E0641C072C03
:10B7F000CED300BF3846F8BDF8B504460D46164610
:10B8000020480768324629462046B847F8BD024618
:10B810000020704770B505460E4631462846FEF7B3
:10B820005BFD0446002C02D100BF00BF0446204649
:10B8300070BD02460020704770B505460E46314681
:10B840002846FEF7B0FD0446002C02D100BF00BF21
:10B850000446204670BD01460020704770B505467D
:10B860002846FEF7C5FD0446002C02D100BF00BFEC
:10B870000446204670BD0000701E0020681F002096
:10B88000501F0020741F0020F4CB010041800000F5
:10B890005C1B002003210C4802680A4302600B482D
:10B8A00002680A4302600A4880470A480047FEE7E8
:10B8B000FEE7FEE7FEE7FEE7FEE700000648074971
:10B8C000054A074B7047000024050040540500401E
:10B8D00089B90100C1800100D8200020D8280020AB
:10B8E000D820002032483349086070473248008C25
:10B8F000C0B2012812D13048808C0007000F002808
:10B900000CD12D48806AF0210840402806D12A48F1
:10B91000C06A0840002801D1012070470020FCE7E0
:10B920002548008CC0B201282CD12348808C000708
:10B93000000F002826D12048806AF0210840002806
:10B9400006D11D48C06A0840002801D10120704777
:10B950001948806AF0210840102806D11648C06AAC
:10B960000840002801D10120F1E71348806AF02146
:10B970000840302806D11048C06A0840002801D18C
:10B980000120E4E70020E2E710B5FFF7C9FF002837
:10B9900005D00A480A494860C8130A498861FFF778
:10B9A000A5FF002802D001200749886010BD0000D3
:10B9B0000024F400681B0020C00F00F0DFFF07C068
:10B9C00000050040006C00400006004070B5FE48D5
:10B9D0004469601C002807D000F0E0FD05462946B8
:10B9E000204600F0C4FF70BD012000074069FAE75F
:10B9F000002314214143F54A53541421414389182B
:10BA00004B8001231421414389188B6000231421AA
:10BA100041438918CB601421414389180B611421DB
:10BA2000414389188B80704710B50020E849088091
:10BA3000E8490870E549091F0870487088700024BB
:10BA400003E02046FFF7D4FF641C0A2CF9D310BD95
:10BA5000FFB583B0044615460326DE48007800286B
:10BA60000BD1002D06D10698002803D10220D94918
:10BA7000087002E00120D7490870D648007803001A
:10BA800001F055F807B805203D6186A1B80000F027
:10BA900085FD8008029000F081FD049948430190E3
:10BAA000FFF794FF471E00F079FD474300973846A3
:10BAB000029A019929DF0646002E02D10220C549CB
:10BAC000087098E0049828DF0646002E16D1002D55
:10BAD00011D1069800280AD12078042803D1072024
:10BAE000BC4908700AE00520BA49087006E0042045
:10BAF000B849087002E00320B64908707BE0FFF700
:10BB000065FF471E00F04AFD4743029700F046FDDF
:10BB1000049948432A460190029929DF0646002EDF
:10BB200010D1069800280AD12078042803D10620D5
:10BB3000A849087006E00520A649087002E0042024
:10BB4000A449087057E0FFF741FF471E00F026FDAB
:10BB50004743A800381861884018029000F01EFD85
:10BB600004994843A9004018618840180190069A3A
:10BB7000029929DF0646002E09D12078042803D136
:10BB800006209449087002E005209249087032E0CE
:10BB900000F004FD04994843A90047186088820812
:10BBA0003846216929DF0646002E0BD1002D06D12B
:10BBB0000698002803D107208649087002E0062075
:10BBC0008449087017E000F0E9FC0190FFF7FEFEE1
:10BBD000471E00F0E3FC474300973846019900F008
:10BBE000C6FE029028DF0646002E02D107207949C2
:10BBF000087000E000BF00BF304607B0F0BDF0B5F0
:10BC000087B00F277148001F0078142148436F49FF
:10BC10004418E5682078022804D0042823D0052899
:10BC20007ED16AE0206905906948008886026088B4
:10BC3000801B0690059880190590A08880194519E9
:10BC4000012189020698884206D206988208284671
:10BC5000059929DF074605E0FF22013228460599AC
:10BC600029DF07466FE0A06800015B4940180089A2
:10BC70000690A0680001401840890590A068000166
:10BC80004018406804900498A84205D10599069888
:10BC900048436188884202D0A06802280DD100F094
:10BCA0007DFC01460390284600F061FE4849098862
:10BCB0004618304628DF07461EE000F06FFC0146BC
:10BCC0000190284600F053FE064600F067FC7043E2
:10BCD000281A8008039000F061FC711C48436188B9
:10BCE0004919401A8008029031462046029B039A67
:10BCF000FFF7AEFE074600BF25E000F04FFC01460F
:10BD00000490284600F033FE064600F047FC7043DE
:10BD1000A1884919081A8008069000F03FFC00E04D
:10BD200010E0711C4843A188491962888918401A9B
:10BD30008008059031462046059B069AFFF788FE4D
:10BD4000074600E000BF00BF002F03D101201F49BC
:10BD5000091F8870384607B0F0BDFFB581B00646B0
:10BD6000174600241948001F40780A2847D0174872
:10BD7000001F00781549091F49784018C4B20A2CE1
:10BD800002DB20460A38C4B2142060430F490E5427
:10BD90000022142060434018427014206043401871
:10BDA0000761142060434118029805C8CA60886082
:10BDB00014216143054A891804984880142161437D
:10BDC00089180A98888009E0001000109C1F002044
:10BDD000741B0020771B0020642000200025101F0A
:10BDE0008078002805D1FFF70AFF0546112D00D104
:10BDF0000025F8484078401CF649487000E00425CA
:10BE0000284605B0F0BD10B50024F248407800285F
:10BE10000BDDF0488078002807D1FFF7F0FE0446DC
:10BE2000002C02D0112C00D10024204610BDF8B502
:10BE300005460C462778A0680001E7490E5860883F
:10BE400000902A463946204608302369B047F8BD9D
:10BE5000F0B585B006460025DE48807801287DD102
:10BE60000020DC498870DD480078082819D1022EAE
:10BE700003D10020D949087002E00020D849087099
:10BE8000FFF7C1FF0546002D09D0D24800781422E3
:10BE90005043D04A121D81182846FFF7C8FF05B04D
:10BEA000F0BD022E02D0032E7ED183E0C948007877
:10BEB00014214843C749091D4418CA480088401C3A
:10BEC000C84908802078022807D1084600888002E7
:10BED0006188884201DB012000E000200390207887
:10BEE000052805D1BD480078072801D1012000E0D0
:10BEF000002002902078042805D1B848007807284F
:10BF000001D1012000E000200190207804280BD10D
:10BF1000B448008880026188884205DBAF48007819
:10BF2000002801D1012000E00020009002980028A4
:10BF300008D10198002805D10098002802D1039863
:10BF4000002825D0A34807780020A4490870A549F7
:10BF50000880A0484078401E9E4900E050E04870AC
:10BF600008460078401C0870084600780A2803DB61
:10BF7000084600780A38087014207843954A121D44
:10BF800081182846FFF753FF3846FFF731FD00BF01
:10BF9000FFF739FF0546002D0BD08E48007814229C
:10BFA00050438C4A121D00E027E081182846FFF715
:10BFB0003EFF23E087480078142148438549091D46
:10BFC00044186078401CC0B26070032809D1081F73
:10BFD0000078142250430A4681180D20FFF727FFEE
:10BFE0000AE0FFF70CFE0546002D05D0112D03D009
:10BFF00021462846FFF71BFF00E000BF00BF00BF3F
:10C0000000BF4CE7F8B5FFF70FFD00207649088028
:10C01000FFF7DCFC851E00F0C1FA4543734805605C
:10C0200000207049088000BF0DE0002102016A4B2A
:10C0300099500201D21811810201D2189181020196
:10C04000D2185181401C0028EFD0082063490870A5
:10C0500000F0A4FA0090FFF7B9FC471E00F09EFA2A
:10C0600047433E463046009900F081FC054628DFF4
:10C070000446002C04D101205649887058490870A4
:10C080002046F8BDF8B504460D4600BF5448007878
:10C09000002801D10820F8BD00BF002C01D10E20DE
:10C0A000F9E7002D01D10E20F5E72068002801D125
:10C0B0000E20F0E700F072FAA188884202DBA08827
:10C0C000102801DA0720E6E7E08800281CD0FFF7F7
:10C0D0007DFC471E00F062FA4743E088A188484390
:10C0E00042490968401887420ED300F057FAE188A8
:10C0F000A2885143884209DA00F050FA0746A18825
:10C1000000F03FFC002901D00720C4E72079800718
:10C11000800F002801D00720BDE7334800880128A0
:10C1200001D10420B7E73048008828602F48006814
:10C1300068602D4909880901274A8918686848609C
:10C1400029490988090120685050A0882649098892
:10C15000090189180881E08823490988090189189B
:10C16000488100200090A688E1884E4300BF0098D7
:10C17000401C80B2009000F011FAB04203D200F0EF
:10C180000DFA361A00E0002600F008FA174909688F
:10C19000401816490860002EE9D1134909880901A1
:10C1A0000D4A8918009888810F480088401C0E4964
:10C1B000088000206FE73CB5034600BF08480078C0
:10C1C000002801D108203CBD00BF002B10D10E205B
:10C1D000F9E70000981F002064200020771B002052
:10C1E000761B0020741B00206C1B0020701B00209D
:10C1F000002A01D10E20E6E71868002805D118684A
:10C200000001ED4C2058002801D10720DBE75C68D5
:10C21000186801940090019C18680001E64D4019CF
:10C220000089484320180190009800012C4600190D
:10C230004089009C2401641924896043009C2401E6
:10C24000641964680019019CA04201D80720BAE76C
:10C25000019C0098546010600020B4E7F8B50446D3
:10C260000E4615461F4600BFD4480078002801D16D
:10C270000820F8BD00BF002E01D10E20F9E7002CE8
:10C2800001D10E20F5E72068002805D120680001C3
:10C29000C9490858002801D10720EAE720680001B1
:10C2A000C5494018408921680901C34A891809898C
:10C2B0004843216809018918496840186168884223
:10C2C00001D80720D5E7002D06D020680001BA4923
:10C2D00040180089A84201DA0720CAE7E819216856
:10C2E0000901B54A89180989884201DD0720C0E79C
:10C2F000304600F058F9002804D0384600F053F9D1
:10C30000002801D11020B4E7606800F04CF9002843
:10C3100001D11020ADE72B4632462146022000977E
:10C32000FFF71BFDA5E7F8B504460E4615461F4668
:10C3300000BFA2480078002801D10820F8BD00BF46
:10C34000002E01D10E20F9E7002C01D10E20F5E7D7
:10C350002068002805D12068000197490858002866
:10C3600001D10720EAE7206800019349401840897D
:10C3700021680901904A89180989484321680901FF
:10C380008918496840186168884201D80720D5E7B4
:10C39000002D06D020680001874940180089A84276
:10C3A00001DA0720CAE7E81921680901824A8918D9
:10C3B0000989884201DD0720C0E7304600F0F3F824
:10C3C000002804D0384600F0EEF8002801D11020F3
:10C3D000B4E7606800F0E7F8002801D11020ADE76D
:10C3E0002B463246214605200097FFF7B6FCA5E70D
:10C3F000FFB581B00C4615461E4600BF6F48007859
:10C40000002802D1082005B0F0BD00BF002C01D1EA
:10C410000E20F8E70198002801D10E20F3E72068EC
:10C42000002805D12068000163490858002801D17F
:10C430000720E8E7206800015F494018408921682B
:10C4400009015D4A89180989484321680901891849
:10C45000496840186168884201D80720D3E7002D59
:10C4600006D020680001544940180089A84201DA2A
:10C470000720C8E7A819216809014F4A89180989C6
:10C48000884201DD0720BEE7019800F08CF8002803
:10C4900004D0304600F087F8002801D11020B2E720
:10C4A000606800F080F8002801D11020ABE76068D8
:10C4B00081192A46019800F0F9F9009520680001D9
:10C4C0003D490F58002203212046019BB847002018
:10C4D00099E7F8B504460D4600BF384800780028B3
:10C4E00001D10820F8BD00BF002C01D10E20F9E7D2
:10C4F0002068002805D1206800012F49085800282D
:10C5000001D10720EEE7206800012B49401840893F
:10C5100021680901284A89180989484321680901C5
:10C520008918496840186168884201D80720D9E70E
:10C53000606800F038F8002801D11020D2E72368A5
:10C540001B011D4FDB1962685B68D01A226812015B
:10C550003B46D218118900F00AFA002901D00720C1
:10C56000C0E700202B460246214600900420FFF73A
:10C57000F4FB06463046B5E7014600BF0F48007899
:10C58000002801D10820704700BF002901D10E20EA
:10C59000F9E70B48407808600020F4E70120000725
:10C5A000006980B2704701468807800F002801D1DA
:10C5B000012070470020FCE764200020761B00204B
:10C5C000981F002001B505E00098401E0090034828
:10C5D000FBF7CAFD00980028F6D108BDE70300006C
:10C5E0000346002901D10E207047002A03D0501EB7
:10C5F0001040002801D00920F6E71960501E9880ED
:10C6000000209860D86000BFEEE770B504460D4684
:10C61000204600F029F8A188884209D8E068A1885E
:10C62000084021680D54E068401CE060002070BDA7
:10C630000420FCE770B504460D46204600F014F8CF
:10C6400000280AD0A068A18808402168085C2870EA
:10C65000A068401CA060002070BD0520FCE70146DA
:10C66000C86888600020704701468A68C868801AD8
:10C670007047000070B506460C4615462946204610
:10C68000FBF7AFFD70BDF8B559480078002800D120
:10C69000F8BD58480068002801D1012000E00020C2
:10C6A000054655480068002801D1012000E000201F
:10C6B000064600BF002D14D1684651DF0446052C04
:10C6C00001D101250CE0002C06D000BF002211464C
:10C6D0002046FBF778FD03E0464900980968884743
:10C6E00000BF002E1AD14548008800906946444892
:10C6F000006861DF0446052C01D101260DE0002C05
:10C7000006D000BF002211462046FBF75CFD04E086
:10C710003B48006838490968884700BF002D02D0AF
:10C72000002E00D000E0C5E700BF00BFB0E7FFB5B6
:10C7300081B00C4616461F46002C02D1072005B0DA
:10C74000F0BD20468107890F002901D1012100E0B9
:10C750000021002901D10720F1E72948046027487A
:10C760000680284807602849019810DF0546002DFB
:10C7700001D02846E3E701201D49087016202EDF6E
:10C78000DDE710B511DF0446002C01D0012000E0E8
:10C79000002017490870204610BD0146002901D12C
:10C7A0000E207047144801600020FAE70146002976
:10C7B00001D10E2070470F4801600020FAE770B5E4
:10C7C00010480068002810D00E48006880470446D2
:10C7D00000BF2546002D06D000BF00221146284686
:10C7E000FBF7F1FC00BF00BF01E0FFF74CFF70BD9D
:10C7F0007C1B00208C1B0020881B0020841B002039
:10C80000801B0020781B002075C60100034610B570
:10C810000B439B070FD1042A0DD308C810C9121F60
:10C82000A342F8D018BA21BA884201D9012010BD1C
:10C830000020C04310BD002A03D0D30703D0521CF0
:10C8400007E0002010BD03780C78401C491C1B1B1E
:10C8500007D103780C78401C491C1B1B01D1921E88
:10C86000F1D1184610BD000030B5441C03E001783A
:10C87000401C00290DD08107F9D10B4BDD0104C804
:10C88000D11A91432940FAD0001B0A0603D0C01EDA
:10C8900030BD001B30BD0A0401D0801E30BD09022E
:10C8A000FCD0401E30BD000001010101F8B5042A92
:10C8B0002CD3830712D00B78491C0370401C521EE6
:10C8C00083070BD00B78491C0370401C521E830752
:10C8D00004D00B78491C0370401C521E8B079B0F21
:10C8E00005D0C91ADF002023DE1B08C90AE0FBF7C8
:10C8F0004BFCF8BD1D4608C9FD401C46B4402C4306
:10C9000010C0121F042AF5D2F308C91A521EF0D41F
:10C910000B78491C0370401C521EEAD40B78491C4A
:10C920000370401C012AE4D409780170F8BD01E0CD
:10C9300004C0091F0429FBD28B0701D50280801C8B
:10C94000C90700D00270704700290BD0C30702D07E
:10C950000270401C491E022904D3830702D50280BD
:10C96000801C891EE3E70022EEE70022DFE70022B9
:10C9700003098B422CD3030A8B4211D300239C461C
:10C980004EE003460B433CD4002243088B4231D394
:10C9900003098B421CD3030A8B4201D394463FE028
:10C9A000C3098B4201D3CB01C01A524183098B4288
:10C9B00001D38B01C01A524143098B4201D34B0171
:10C9C000C01A524103098B4201D30B01C01A5241D4
:10C9D000C3088B4201D3CB00C01A524183088B425B
:10C9E00001D38B00C01A524143088B4201D34B0044
:10C9F000C01A5241411A00D20146524110467047B6
:10CA00005DE0CA0F00D04942031000D340425340BA
:10CA100000229C4603098B422DD3030A8B4212D37A
:10CA2000FC22890112BA030A8B420CD389019211AC
:10CA30008B4208D3890192118B4204D389013AD0E9
:10CA4000921100E08909C3098B4201D3CB01C01ABE
:10CA5000524183098B4201D38B01C01A52414309D1
:10CA60008B4201D34B01C01A524103098B4201D3BF
:10CA70000B01C01A5241C3088B4201D3CB00C01A2C
:10CA8000524183088B4201D38B00C01A5241D9D244
:10CA900043088B4201D34B00C01A5241411A00D2C5
:10CAA0000146634652415B10104601D34042002BC1
:10CAB00000D54942704763465B1000D3404201B540
:10CAC0000020C046C04602BD70477047704775469B
:10CAD00000F022F8AE46050069465346C008C00083
:10CAE000854618B020B5FEF7E9FE60BC002749086E
:10CAF000B6460026C0C5C0C5C0C5C0C5C0C5C0C5F6
:10CB0000C0C5C0C5403D49008D4670470446C0467B
:10CB1000C0462046FBF721FB0048704774200020E8
:10CB200001491820ABBEFEE726000200704730B472
:10CB30007446641E2578641CAB4204D3635D5B00BD
:10CB4000E31830BC18471D46F8E700001C0ED773E9
:10CB5000A2AC44059515ADFA7FE3CF45E3FF010094
:10CB60008CF997A6EE94E3BCF821B26000000000B7
:10CB70001704000097040000270500007505000059
:10CB80000D8A01007D8A01003D8A01003D8C010073
:10CB90008D8C0100B98C0100C98C0100CB8C010087
:10CBA000D788010015920100C1810100199201008E
:10CBB0001B9201002F95010027960100939301001D
:10CBC000BB900100D3900100E59001004991010064
:10CBD000458201000FB80100D9A20100A1A3010004
:10CBE00015B8010033B80100A7A30100EBA30100B1
:10CBF00039B8010057B80100F1A3010005A50100F3
:10CC00005DB80100FFFFFFFF4A554D4120444556E6
:10CC10004943450034CC0100001B00209000000077
:10CC200004810100C4CC0100901B0020480D0000CD
:10CC3000208101008CF997A6EE94E3BCF821B26044
:10CC40004A554D410000FFFF08CC010000000000E4
:10CC500000000000000000000000000000000000D4
:10CC600000000000000000000000000000000000C4
:10CC70000000000000000000004003000000000071
:10CC800000000000000000000000000000000000A4
:10CC90000000000000000000000000000024F4007C
:10CCA0000000000000000000000000000000000084
:10CCB0000000000000000000000000000000000074
:04CCC0000000000070
:04000005000180C1B5
:00000001FF
