:020000040001F9
:10600000A02D0020F56001000F6101001161010069
:106010000000000000000000000000000000000080
:1060200000000000000000000000000013610100FB
:106030000000000000000000156101001761010070
:106040001961010019610100EDA60100196101004B
:106050001961010000000000196101006170010078
:106060001961010019610100196101001961010044
:106070001961010019610100196101001961010034
:10608000196101005B6B01001961010019610100D8
:1060900019610100196101004783010019610100C4
:1060A00019610100196101000000000000000000FA
:1060B00000000000000000000000000000000000E0
:1060C0000348854604F01CFD004800477368010042
:1060D000A02D0020401E00BF00BF00BF00BF00BFBA
:1060E00000BF00BF00BF00BF00BF00BF00BFF1D1B5
:1060F000704700000321094802680A43026008480B
:1061000002680A4302600748804707480047FEE7E5
:10611000FEE7FEE7FEE7FEE7FEE70000240500409D
:1061200054050040D1610100C1600100324833498B
:10613000086070473248008CC0B2012812D1304844
:10614000808C0007000F00280CD12D48806AF021B8
:106150000840402806D12A48C06A0840002801D1DA
:10616000012070470020FCE72548008CC0B20128C0
:106170002CD12348808C0007000F002826D120480E
:10618000806AF0210840002806D11D48C06A0840F6
:10619000002801D1012070471948806AF021084089
:1061A000102806D11648C06A0840002801D10120F5
:1061B000F1E71348806AF0210840302806D11048E2
:1061C000C06A0840002801D10120E4E70020E2E78E
:1061D00010B5FFF7C9FF002805D00A480A494860F2
:1061E000C8130A498861FFF7A5FF002802D00120E3
:1061F0000749886010BD00000024F4000020002042
:10620000C00F00F0DFFF07C000050040006C004039
:1062100000060040FE4908607047642004F064F9FD
:1062200000BFBFF34F8FFB48FB49C860BFF34F8FE0
:1062300000BF00BFFEE704460D462A462146F74848
:10624000FFF7EBFF7CB5002078DF044600BF254652
:10625000002D05D000BFF2A269212846FFF7DDFF1F
:1062600000BF002000900190182168460180302175
:10627000418000218180FF219131C1807ADF044675
:1062800000BF2546002D05D000BFE5A2732128469A
:10629000FFF7C3FF00BF7CBDFFB5A9B00C46154694
:1062A0001E4604210C910221684601731521417399
:1062B00010220E30299904F0EBFB211268468177F9
:1062C000C477291208A80170457086704C21684671
:1062D000818403A90B911721018538211BA804F0A3
:1062E000F0FB002118A80173012110A801860CA958
:1062F0001D9109A8269038210DA804F0E2FBCB4897
:1063000000680290012110A8818102A91491022144
:1063100008A801750DA91BA801F028FF074600BFBA
:106320000197019F002F05D000BFBDA2A0210198B9
:10633000FFF773FF00BF2DB0F0BD10B5BC488078EB
:106340000002BB4BDB7818430246B94800780002D4
:10635000B74B5B7818430146C323B648FFF79CFF51
:106360001421B54804F0ADFB0020B3490870486023
:106370000872C82008820020488210BD70B505460A
:106380000C46207800281FD160680078002804D0CF
:1063900001280AD0022816D108E0227A521ED1B272
:1063A0006268501C00F036FC0DE00CE0A348006869
:1063B000002807D0237A591E6368581C9F4B1B681E
:1063C0009A69904700BF00BF70BD70B505460C4686
:1063D0002078002810D16078002804D01321984834
:1063E000008876DF08E095480068002804D09348CC
:1063F000006881680020884770BD7CB5002001904E
:106400009048019001A9904801F07AF9044600BF34
:106410002546002D05D000BF81A2DA212846FFF7CE
:10642000FCFE00BF00200090884800906946884824
:1064300001F0A0FB044600BF2546002D05D000BF9B
:1064400077A2E1212846FFF7E8FE00BF7CBDF8B542
:1064500006460F46144600BF2546002D05D000BF56
:106460006FA2E9212846FFF7D8FE00BF0020F8BD43
:106470007FB503F015FD044600BF2546002D05D06D
:1064800000BF67A2F6212846FFF7C7FE00BF002025
:10649000039003A802F022FA044600BF2546002D0F
:1064A00005D000BF5EA2FC212846FFF7B6FE00BF64
:1064B000062101A8023004F004FB1E216846C180B9
:1064C000007A40084000401C694608726846007A1D
:1064D00002218843694608726846007A1C21884375
:1064E0000C30694608726846007A20218843694664
:1064F0000872072168464172102181725548009048
:106500000121684601716946534802F056FA044673
:1065100000BF2546002D06D000BF41A2FF210C314F
:106520002846FFF77AFE00BF7FBD70B58CB00546E8
:106530000C461646494B0FCB03936B4607C3102CF2
:1065400000DD10242246294604A804F0A1FA68467A
:106550004DDF102208A9304604F09AFA0CB070BD45
:1065600038B5684603F09FFF044600BF2546002D5E
:1065700006D000BF2AA2FF2173312846FFF74DFE47
:1065800000BF0098002803D001203549087038BDAD
:1065900034DF044600BF2546002D06D000BF20A2F0
:1065A000FF217C312846FFF738FE00BF00BFEEE731
:1065B00010B50446022C02D0032C0BD100E000BF22
:1065C00027480078002804D0002025490870FFF7EC
:1065D000C7FF00E000BF00BF10BD10B50446204655
:1065E00003F0BBFB2046FFF7E3FF10BD70B5124878
:1065F00073DF044600BF2546002D06D000BF08A269
:10660000FF2158312846FFF708FE00BF70BD00008B
:10661000182000200400FA0500ED00E0EFBEADDE1A
:106620002E2E5C6D61696E2E6300000070AB010060
:10663000E020002004200020CC2000201C2000208E
:10664000162000207D6301008C200020CB63010018
:10665000A82000204F6401001520002060AB01003D
:106660001420002070B504462088102804D011287A
:106670000ED019282FD12DE0A08894490880944885
:106680000068002803D0924909680869804723E020
:10669000A5798F480068002804D08D48006881687B
:1066A00001208847082D09D18948006800280ED0AC
:1066B0008748006841690120884708E084480068ED
:1066C000002804D082480068416900208847FFF70D
:1066D0008DFF01E000E000BF00BF70BD10B50446B3
:1066E000204602F07BFD21467A4800F011FF21464A
:1066F000794801F0D3F82046FFF7B4FF10BDF0B59C
:1067000087B000BF002350227449132001F0D3FD4D
:10671000074600BF0197019F002F06D000BF704AB7
:10672000FF2125310198FFF778FD00BF00BF002051
:106730000290029002A860DF044600BF2746002FA7
:1067400006D000BF664AFF212C313846FFF765FDB1
:1067500000BF644801F0E5FD044600BF2746002F56
:1067600006D000BF5E4AFF2130313846FFF755FDA5
:1067700000BF5D4801F0DEFD044600BF2746002F44
:1067800006D000BF564AFF2134313846FFF745FD99
:1067900000BF04A871DF554A062104A80130FFF7A5
:1067A000C4FE01206946087451A00390002600250C
:1067B00004E00398405D8019C6B26D1C082DF8D323
:1067C0006846407C8019C1B26846417404A9002023
:1067D00070DF00BF6846007E01090901491C06916F
:1067E0006846007EF02188431030069000BF434881
:1067F000006804F071F987B23A464048016806A87B
:106800007CDF044600BF2746002F06D000BF344A75
:10681000FF214A313846FFF700FD00BF07B0F0BD49
:1068200037490882704770B5284800883549884242
:1068300010D013212548008876DF044600BF254686
:10684000002D06D000BF264AFF2186312846FFF7DB
:10685000E4FC0DE074DF044600BF2546002D06D0A1
:1068600000BF1F4AFF218B312846FFF7D6FC00BF2F
:1068700070BD00F063F8FFF742FFFFF7F9FD00F08D
:106880000DFEFFF7DFFCFFF758FDFFF7B6FD00F048
:1068900063F8FFF7ABFE0E480068002803D00C49F0
:1068A00009684868804700BF00F02CF900F044FBFD
:1068B00040DF044600BF2546002D05D000BF084A32
:1068C00011492846FFF7A9FCEEE70000162000203A
:1068D0001C2000208C200020A8200020F020002078
:1068E00020660100DD660100DB650100E02000207C
:1068F00031313A32313A353600000000182000209C
:10690000CC200020FFFF0000120200000020704792
:10691000704730B585B005460C46022069460870C0
:106920002246294600A8013004F0B2F8601CC2B229
:106930006946064800F011FF05B030BD10B50448A7
:10694000006801680348884710BD00008C200020C3
:106950001C20002074AB010010B5002407E0601C6F
:106960000001A049401821019E4A5050641C0F2C80
:10697000F5DB00219B488030016780389A49086028
:10698000F03048601F20994988600321112000F0F1
:10699000F2F8012000049649486095494039486062
:1069A000112001218140934A116000BF00BF0121E5
:1069B0008140914A116000BF01209049086010BDDC
:1069C0008948006800280BD087480168864A086813
:1069D000106010460068002800D1506008467047DB
:1069E0000020FCE7F8B506460F46854DFFF7E8FFA7
:1069F0000446002C0DD06660A7600020E060206097
:106A00006868002803D0686804606C6001E06C600E
:106A10002C60F8BD75484068704710B5794B1B680D
:106A2000002B12D0FFF7F6FF764B1B68D968C31C0A
:106A3000CB1A1B021B0A744CA34201D20A4600E087
:106A4000C21C6A4B40331A6003E0431E674C40345B
:106A5000236010BDF7B507466A4EFFF7B1FF044645
:106A6000002C32D067600198A0600298E060356821
:106A7000002D07D0E868E168401A0002000A624968
:106A8000884207D2306820603460706800281AD1CC
:106A9000746018E014E02868002808D02868C068EE
:106AA000E168401A0002000A5749884207D2286864
:106AB00020602C607068A84200D1746002E02D68EC
:106AC000002DE8D100BFFFF7A8FFFEBD70B504465A
:106AD0000E4625682068006820602068002800D1E4
:106AE00060606968A86888473F484068002805D00A
:106AF0003D48406805603C48456002E03A484560D2
:106B0000056070BD70B53F4C00BF002615E02068E1
:106B1000002800D112E0FFF77DFF05462068C0681D
:106B2000281A0002000A3849884205D22946204620
:106B3000FFF7CCFF012600E000E0E8E700BF304CA3
:106B40002068002804D000212046FFF7BFFF01265F
:106B5000002EDAD1FFF761FF70BD00202B490860DD
:106B600000212A4841608160C160002027494039E6
:106B700008604860704710B5002819DA244A0307F6
:106B80001B0F083B9B089B00D2588307DC0EFF239A
:106B9000A3409A438B071B0E8407E40EA3401A43BD
:106BA0001B4B0407240F083CA408A4001A5118E04A
:106BB000114A03231B02D21883089B00D258830773
:106BC000DC0EFF23A3409A438B071B0E8407E40EC1
:106BD000A3401A43084B032424021B198408A40071
:106BE0001A5110BD40210020202000200015014036
:106BF0004013014080E200E000E100E000100140AD
:106C00003020002028200020FFFF7F00401101409D
:106C10001CED00E010B585B00A4603786C46237081
:106C20000478230003F07EFF150C0D1213142415B5
:106C3000161718191A1B1C1D1E1F202122232400A1
:106C400016E000236C466370022111E010E00FE0B3
:106C50000EE00DE00CE00BE00AE009E008E007E0E0
:106C600006E005E004E003E002E001E000E000BF30
:106C700000BF05B010BD70B586B004460E4615467F
:106C800000216846017144712A463146801D03F097
:106C9000FFFEA81CC2B201A9024800F05EFD06B0CA
:106CA00070BD00008C200020F8B506463546012056
:106CB0007749C8607749C863072077490861002091
:106CC0008860FF207249152292018918C86000204F
:106CD0007149486008207149086000216F48C03838
:106CE000C160816041600160002434E0691C085D7E
:106CF00000F091F8281D005D654915229201891860
:106D0000A2008850691C085D00F085F8634BC03B09
:106D1000A700D919A300624FDA196306180E47DFDE
:106D2000620001219140084645DFA300DA195B4962
:106D3000B43963005B1CD8B247DF6100491C0122F3
:106D40008A40104645DF681C015D0023032220466F
:106D500000F06AF8641C032CC8DB01204C49086071
:106D6000F8BD70B504460D46032221464D4803F098
:106D70008FFE4C49491ECD7170BD10B501204949A7
:106D8000491E08704848FFF72DFE10BD10B50020C1
:106D90004449491E087001203D49C86000203D4912
:106DA000C863002421E000BF40493D485122120140
:106DB0008018A200815000BF3A49085D00F02BF80E
:106DC000384A105D0121002906D100BF012282400E
:106DD000374BDA6000BF06E000BF01228240344B2F
:106DE0009A6000BF00BF00BF641C032CDBDB10BD3A
:106DF00010B50446032221462A48C01C03F048FE71
:106E00002848401E0078002804D02649491E2648FC
:106E1000FFF7E8FD10BD03210522120707231B021F
:106E2000D2188300D150704770B5002B0BD10124CC
:106E30008C401F4DEC601F4C194D51263601AD1989
:106E40008600AC510AE001248C40194DAC601A4C0C
:106E5000134D51263601AD198600AC5100BF00BF5D
:106E600000BF012485000E4EAD192C600C020325D5
:106E70002C4315042C431D052C4335465126360161
:106E8000AD198600AC5100BF00BF00BF70BD00004F
:106E900000A00040C0AF004000A5004000A200409C
:106EA0000060004039200020A96C0100001F030091
:106EB00000050050031F0200031F01000178002994
:106EC00004D0032903D0042902D102E001E000E04C
:106ED00000BF00BF7047F0B589B005460E46684652
:106EE0000576467600218176C17601774177524852
:106EF000089000BF0020059050480190802002902B
:106F00004F4803908020049005A803234D4A01A90F
:106F1000009006A803F071FC044600BF00BF27469E
:106F2000002F06D000BF48A239213846FFF775F977
:106F300000BF00BF09B0F0BD38B541E0454800785A
:106F400022280ADA68460178424802780078401C14
:106F5000404B18704048815406E022213E4803F01F
:106F6000B0FD00203B4908703B480078812807D0DD
:106F70002221394803F0A5FD00203649087038BDAC
:106F800034480078022800DAF9E733484478314879
:106F90000178A01C814200DAF1E72F4DAD1C2F488B
:106FA0000068002805D02D4800682146C26928469F
:106FB00090472221284803F084FD002025490870CD
:106FC000684603F080FC0028B8D000BFD7E7F3B5CF
:106FD00081B00E468121684601704670002411E0A0
:106FE0006946085D03F08EFC054600BF2F46002F62
:106FF00006D000BF14A278213846FFF70EF900BF73
:1070000000BF641C022CEBDB002411E00199085D39
:1070100003F078FC054600BF2F46002F06D000BFC6
:1070200009A27D213846FFF7F8F800BF00BF641CB5
:10703000B442EBD3FEBD00000050270062220020C6
:10704000E2220020BD6E01002E2E5C756172742E4E
:107050006300000040200020402200201C2000206F
:1070600010B55348006800280ED000205049086031
:107070005048846801205049486050490C8050486D
:107080000068FFF7AFFC00BF10BD70B507202ADF16
:10709000044600BF2546002D06D000BF49A21B2193
:1070A0002846FFF7BAF800BF00BF032107202BDFF7
:1070B000044600BF2546002D06D000BF41A21E2178
:1070C0002846FFF7AAF800BF00BF072026DF0446C6
:1070D00000BF2546002D06D000BF3AA22121284638
:1070E000FFF79BF800BF00BF002031490860012076
:1070F0003149086070BDF8B505460E461746069C36
:1071000001203349486018202A4948600020284956
:107110000860012027490860FFF7B7FFF8BDF7B501
:1071200006460F46264902980860052E1CD008DC4A
:10713000012E11D0022E11D0032E11D0042E17D102
:1071400010E0062E12D01A2E02D01B2E10D101E014
:1071500001240DE002240BE0042409E0082407E0E8
:10716000102405E0202403E0402401E0802400BF37
:1071700000BF082F02D0092F04D101E0002503E051
:10718000012501E0022500BF00BF01201049486031
:107190002846082108432102084306494860002088
:1071A00003490860012003490860FFF76EFFFEBD38
:1071B0000071004000750040007000404820002031
:1071C000442000202E2E5C6164632E6300000000CA
:1071D0000073004070B505462C46207B00F0B1F8E6
:1071E000207B0121002906D100BF01228240734B80
:1071F000DA6000BF06E000BF012282406F4B9A6058
:1072000000BF00BF00BF02206D496E4A51231B0121
:10721000D2188300D15000BF01206B49C860002004
:107220006A49C8636168A068884209D2FFF7F2FB27
:1072300006463236324629466548FFF70BFC15E014
:10724000607B401C6073607B03280CDA002061497E
:107250008860FFF7DFFB6049461832465D495C48AD
:10726000FFF7F8FB02E000205A49887370BDF8B5BB
:1072700004462546AA689200286881580120C00368
:1072800003F0CAFB064601204F49C8604F49C86356
:10729000092052490861287B00F053F800204F492B
:1072A0008860B0084D494031086070084649152291
:1072B00092018918486000204849486002204849E6
:1072C000086000214648C038416001603D4A0832EC
:1072D0000146002047DF012045DF297B01230322EF
:1072E000022000F037F8012037490860A868401CE8
:1072F000A860FFF78FFB0746C8373A462146394852
:10730000FFF7A8FBF8BD70B5044632480473364851
:1073100030490860042048600020886048730846AF
:10732000807BC007C00F00280AD101208873FFF7B7
:1073300071FB054632352A4626492548FFF78AFB68
:1073400070BD03210522120707231B02D2188300F8
:10735000D150704770B5002B0BD101248C40174DD4
:10736000EC60224C174D51263601AD198600AC5108
:107370000AE001248C40114DAC601D4C114D51268A
:107380003601AD198600AC5100BF00BF00BF01241B
:1073900085000C4EAD192C600C0203252C431504FE
:1073A0002C431D052C43354651263601AD19860068
:1073B000AC5100BF00BF00BF70BD00000005005011
:1073C000001F03000060004000A00040C0AF00406C
:1073D0006F72010064230020DC05000000A500405E
:1073E00000A20040D5710100C8AB0100031F0200DC
:1073F000031F010070B504460D46012D06D0022D75
:107400000FD0032D12D0042D1AD114E000BF032099
:1074100005210907072212028918A200885000BF1F
:107420000EE00021204600F02DF809E00121204661
:1074300000F028F804E00321204600F023F800BF04
:1074400000BF70BD30B5024610460B46002B06D17A
:1074500000BF01248440104DEC6000BF06E000BF77
:10746000012484400C4DAC6000BF00BF00BF30BDA4
:10747000014600BF08480069C840C007C00F7047F8
:107480007047704710B58A0005231B0707242402A4
:107490001B1984001A5110BD000500501FB5044B84
:1074A0000FCB6C460FC40349684663DF1FBD000065
:1074B000D8AB01004A2000208A88C282704700228F
:1074C000D243C2827047FEB505460C4626461A36A0
:1074D000208B00280DDD286800280AD0002168468E
:1074E00001700196217E0172694628462A689047FC
:1074F00000BFFEBD70B504460D46AE1D3088E18864
:10750000884203D131462046FFF7DDFF70BD70474A
:1075100070B505460C462088012815D0102804D0E7
:10752000112807D0502814D109E021462846FFF73A
:10753000C3FF0FE021462846FFF7C1FF0AE02146BE
:107540002846FFF7D7FF05E021462846FFF7DFFF73
:1075500000E000BF00BF70BD30B58FB004460D46DF
:107560001C2108A803F0ADFA08A80078042188437C
:10757000011D08A80170002009900B900C900D903F
:107580000E908A48017868468172894901810020FD
:10759000019000BF68460079010909016846017140
:1075A0000079F02188436946087100BF00BF684632
:1075B000407901090901491C684641714079F0216F
:1075C000884310306946487100BF684680790621BB
:1075D0008843811C6846817180790821884301466F
:1075E000684681718079102188430146684681711F
:1075F000807941084900491C68468171142103A81B
:1076000003F05FFA02A8039001A8049000216846E5
:107610008182C1821721018300200790A088A31DC9
:1076200003AA08A9A2DF0FB030BD30B58FB0044661
:107630000D461C2108A803F044FA08A80078102180
:107640008843411808A80170002009900B900C9005
:107650000D900E9055480178684681725449491C36
:1076600001810020019000BF6846007901090901ED
:10767000491C684601710079F02188431030694641
:10768000087100BF00BF68464079010909016846DA
:1076900041714079F02188436946487100BF6846CE
:1076A000807906218843811C684681718079082190
:1076B00088430146684681718079102188430146DC
:1076C00068468171807941084900491C684681718A
:1076D000142103A803F0F5F902A8039001A804906F
:1076E000002168468182C182172101830020079012
:1076F000A08823460E3303AA08A9A2DF0FB030BD2D
:10770000F8B504460E460121C903684601802748A2
:10771000017868468170306820600020C043E082B4
:10772000221D69460120A0DF0546002D01D0284614
:10773000F8BD31462046FFF70FFF0546002D01D06A
:107740002846F5E731462046FFF76FFF0546002D36
:1077500001D02846ECE70020EAE7F0B585B0044602
:107760000F461646E08A134988421BD00496002033
:107770000090019002900390E18968460180012108
:1077800081700021818004A802900397E08A6946F5
:10779000A6DF0546002D04D16846008AB04200D01D
:1077A0000C2500E00825284605B0F0BD4A20002041
:1077B00001800000FFFF0000F8B504460E46B088C7
:1077C000E083FFF727F9074603F059F910200090EE
:1077D000002505E003F04AF9F7494855681CC5B291
:1077E000102DF7DBE089F44B6A460021A4DF01206D
:1077F0000090F2490870E08A0B466A460021A4DF37
:10780000F8BD0022D243C283704770B586B00546EA
:107810000C4626461A36208B00282FDD28680028C3
:107820002CD000200290039004900590208B10280B
:1078300004DC228B314602A803F02AF91022E04929
:10784000304603F050F9002802D16946487102E041
:1078500001206946487168464079D849087001217D
:107860000091E88AD54B6A460021A4DF00216846D2
:10787000017101A928462A68904700BF06B070BD73
:1078800070B504460D46AE1D3088E188884203D1AC
:1078900031462046FFF7B9FF70BD704770B5054609
:1078A0000C462088012815D0102804D0112807D0B4
:1078B000502814D109E021462846FFF77DFF0FE04C
:1078C00021462846FFF79DFF0AE021462846FFF79C
:1078D000D7FF05E021462846FFF7DFFF00E000BFA5
:1078E00000BF70BD30B58FB004460D461C2108A8FE
:1078F00003F0E7F808A8007804218843011D08A8D0
:107900000170002009900B900C900D900E90AD48E6
:10791000017868468172AC4901810020019000BF66
:107920006846007901090901684601710079F02172
:1079300088436946087100BF00BF68464079010965
:107940000901491C684641714079F0218843103093
:107950006946487100BF6846807906218843811CCA
:1079600068468171807908218843014668468171A3
:1079700080791021884301466846817180794108E9
:107980004900491C68468171142103A803F099F845
:1079900002A8039001A80490002168468182C18258
:1079A0001721018300200790A088A31D03AA08A91E
:1079B000A2DF0FB030BD30B593B004460D46834B07
:1079C0000FCB049301AB07C31C210CA803F079F87B
:1079D00008A8007C02218843811C08A801740020AB
:1079E0000D900F9010901190129076480178684693
:1079F00081767549491C01830020059000BF6846C7
:107A0000007D01090901491C68460175007DF021CE
:107A1000884310306946087500BF00BF6846407D46
:107A20000109090168464175407DF0218843694696
:107A3000487500BF6846807D06218843811C6846E2
:107A40008175807D08218843014668468175807D67
:107A500010218843014668468175807D41084900B0
:107A6000491C68468175142107A803F02AF806A866
:107A7000079005A808901021684681840021C184E0
:107A80001721018501A80B90A08823460E3307AA71
:107A90000CA9A2DF13B030BD30B58FB004460D463F
:107AA0004BA0006800901C2108A803F00AF808A861
:107AB000007802218843811C08A8017000200990E9
:107AC0000B900C900D900E903E48017868468172A4
:107AD0003D49891C01810020019000BF6846007962
:107AE00001090901491C684601710079F0218843A8
:107AF00010306946087100BF00BF6846407901092F
:107B00000901684641714079F0218843694648710E
:107B100000BF6846807906218843811C68468171D0
:107B20008079082188430146684681718079102157
:107B30008843014668468171807941084900491CA3
:107B400068468171142103A802F0BBFF02A80390CC
:107B500001A804900121684681820021C182172179
:107B600001830790A0882346163303AA08A9A2DF41
:107B70000FB030BDF8B505460E46412149026846B2
:107B800001801048017868468170306828600020C4
:107B9000C043E8832A1D69460120A0DF0446002C6B
:107BA00001D02046F8BD31462846FFF79BFE04462B
:107BB000002C0FD02046F5E7742300204B20002036
:107BC000842300204A20002001820000E8AB01004D
:107BD0000100000031462846FFF7EDFE0446002C68
:107BE00001D02046DEE731462846FFF755FF044620
:107BF000002C01D02046D5E70020D3E7F7B584B0AC
:107C000004460F4606980678B01C1F2803DC6078EF
:107C1000801C1F2802DD0C2007B0F0BD1F20801B38
:107C2000801E85B20295B11C781802A97DDF0390F1
:107C30000398002801D00398EEE72078022808D1A5
:107C400068460089A84204DC09200190684605893D
:107C50000BE0082001906078002804D06078A842EA
:107C600001DC657801E068460589681CC2B23046CF
:107C7000711CCEB23A543046721CD6B201993954B6
:107C800006980178A81C0818C1B206980170002057
:107C9000C2E7F8B505460C462078001D1F2801DD17
:107CA0000C20F8BD684679DF0646002E01D030462C
:107CB000F7E703212278501C2070A954192122785B
:107CC000501C2070A954207841196846008800F0A3
:107CD0008AFA2178401820700020E2E7F8B50546BE
:107CE0000F4616461C466868002801D10720F8BDDB
:107CF0002078801C298840181F2801DD0C20F6E719
:107D00002878401CC1B22278501C2070B1542178D0
:107D1000481C207077542A8823789819696802F0E3
:107D2000B7FE20782978401820700020DFE730B5B2
:107D300003461078C01C1F2801DD0C2030BD022432
:107D40001578681C10704C550A241578681C107042
:107D50004C551578681C10704B550020EEE7FFB5A8
:107D600087B006461D46109C00200690207805909E
:107D7000002747E0B900706841180A886846028108
:107D800049884181002203A902A865DF0490049874
:107D9000002802D004980BB0F0BD6846017B09981A
:107DA00081422ED10698002801D0002000E0022058
:107DB000019020786946097B4118019808181F280E
:107DC00001DD0C20E7E70698002809D12078401C47
:107DD00020702278511C08982170A8540120069028
:107DE0002078421903A902A865DF049004980028AE
:107DF00001D00498CFE720786946097B40182070AD
:107E000000BF7F1C3088B842B4DC0698002806D03A
:107E100021780598401C081AC1B205982954002001
:107E2000B9E7FFB581B0074615460A9E00960222C3
:107E30003846049B0299FFF792FF0446002C02D0BB
:107E4000204605B0F0BD0096102229463846049B16
:107E5000FFF785FF0446002C01D02046F1E7002003
:107E6000EFE701460888062808DB08881922D201B6
:107E7000904205DD0888E04A904201D00720704713
:107E80004888062808DB48881922D201904205DD7F
:107E90004888D94A904201D00720F0E70888D64A9E
:107EA000904208D04888904205D008884A8890427D
:107EB00001DD0720E3E70020E1E7F8B506460D46BF
:107EC00014462078801D1F2801D90C20F8BD3046AB
:107ED000FFF7C7FF0746002F01D03846F6E7052118
:107EE0002278501C2070A95412212278501C207036
:107EF000A95422785119308800F075F9217840187A
:107F0000207022785119708800F06DF9217840189E
:107F100020700020DAE7F8B505460E4614462879A9
:107F2000801CC7B22078801CC0191F2801DD0C20DE
:107F3000F8BD781CC1B22278501C2070B154FF21CA
:107F40002278501C2070B15422789119288800F0B2
:107F50004AF9217840182070A88800280EDDA8680A
:107F6000002801D10720E3E7AA8823789819A96897
:107F700002F08EFD20782979401820700020D7E784
:107F8000FEB507460E461446386B002801D107207F
:107F9000FEBD0020019032E0396B0C220198504365
:107FA0000D182879801CC0B200900098401CC1B206
:107FB0002278501C2070B15416212278501C207059
:107FC000B15422789119288800F00DF921784018D1
:107FD0002070A88800280EDDA868002801D107209D
:107FE000D6E7AA8823789819A96802F051FD20786D
:107FF0002979401820700198401CC0B201903420AB
:10800000C15D01988142C7DC0020C1E7F8B5044694
:108010000F4616460025002030702078002809D031
:10802000324639462046FFF7E9FD0546002D01D0CE
:108030002846F8BDA078002808D031463846FFF71A
:1080400028FE0546002D01D02846F2E7A08800282A
:108050000ADD33463A460121201DFFF73FFE054663
:10806000002D01D02846E4E7E06800280BD000206E
:10807000E168085632463946FFF759FE0546002D9D
:1080800001D02846D5E7208A00280CDD3B46062291
:108090000221204610300096FFF7C3FE0546002D52
:1080A00001D02846C5E7208B00280CDD3B4607227F
:1080B0000321204618300096FFF7B3FE0546002D39
:1080C00001D02846B5E7208C00280CDD3B46152260
:1080D0001421204620300096FFF7A3FE0546002D10
:1080E00001D02846A5E7A06A002809D032463946C3
:1080F000A06AFFF7E2FE0546002D01D0284698E76A
:10810000E06A002809D032463946E06AFFF703FFEB
:108110000546002D01D028468BE73420005D00285D
:1081200009DD324639462046FFF72AFF0546002D75
:1081300001D028467DE728467BE70146888800284D
:1081400008D08868002805D088680078042210408C
:10815000002801D1072070470020FCE701468888ED
:10816000002801DD072070470020FCE7F3B593B03D
:108170000D460021129111911398002814D01398E4
:10818000FFF7DBFF0446002C02D0204615B0F0BDFF
:1081900012AA09A91398FFF739FF0446002C01D051
:1081A0002046F3E709AE00E00026002D13D0284654
:1081B000FFF7D4FF0446002C01D02046E6E711AAC1
:1081C00001A92846FFF722FF0446002C01D02046D3
:1081D000DCE701AF00E0002710A803793A46017AF6
:1081E000304672DFD2E702460A70FF2000021040DC
:1081F0000012487002207047FFFF000070B506466D
:108200000C46154629462046FEF715F870BDF8B510
:108210005A480078002800D1F8BD59480068002865
:1082200001D1012000E000200546564800680028E2
:1082300001D1012000E00020064600BF002D14D12E
:10824000684651DF0446052C01D101250CE0002CC5
:1082500006D000BF4CA269212046FDF7DEFF03E0F7
:10826000474900980968884700BF002E1AD1524834
:108270000088009069465148006861DF0446052C7B
:1082800001D101260DE0002C06D000BF3EA28021C6
:108290002046FDF7C2FF04E04848006839490968F4
:1082A000884700BF002D02D0002E00D000E0C5E7B7
:1082B00000BF00BFB0E7FFB581B00C4616461F46B1
:1082C000002C02D1072005B0F0BD20468107890FA0
:1082D000002901D1012100E00021002901D107205E
:1082E000F1E7364804603448068035480760354970
:1082F000019810DF0546002D01D02846E3E7012054
:108300001E490870162026DFDDE710B511DF044690
:10831000002C01D0012000E0002018490870204600
:1083200010BD0146002901D10E207047154801609B
:108330000020FAE70146002901D10E2070471048BD
:1083400001600020FAE770B51D480068002811D0D0
:108350001B4800688047044600BF2546002D07D013
:1083600000BF09A2FF2133312846FDF756FF00BFA9
:1083700000BF01E0FFF74BFF70BD0000562000205A
:108380005C200020582000202E2E5C2E2E5C2E2EED
:108390005C536F757263655C73645F636F6D6D6F63
:1083A0006E5C736F66746465766963655F68616E41
:1083B000646C65722E630000542000205020002061
:1083C0004C200020FD81010070B503460C460820BA
:1083D000002115E00C254D43FD4EAD19AD7A254029
:1083E000002D0CD0FB4DAB4205D00C254D43AD19F3
:1083F0002D899D4202D11160002003E00520491C17
:108400000029E7D000BF70BD10B504461C216143B0
:10841000F14A891808461130062102F052FB1C214E
:108420006143ED4A8818102102F04BFBFF211C200C
:108430006043E94A801801741C20604380188176EB
:108440000021C9431C20604380180183204601F0AD
:108450005AF910BD7CB50546A9B26A46DF4801F05D
:1084600047FE0446002C09D15021684601F0BFFFA9
:108470000446002C02D12846FFF7C6FF20467CBDEB
:10848000F8B505460E4617460520009000241BE06F
:10849000002D06D11C206043CF494018008BB84204
:1084A0000DD0002D0FD01C216143CB4A89180846FE
:1084B00010300722294602F016FB002803D1346051
:1084C0000020009002E0641C072CE1D300BF00985C
:1084D000F8BD10B5044601210C206043BC4A801849
:1084E0008172891E0C20604380180181FF210C20BD
:1084F00060438018C1720C2161438818072102F083
:10850000E0FA10BD10B50446002010BDF0B587B0EC
:1085100007460C461420019061780C225143AC4A66
:108520008918088901AA02A9AADF0646002E46D1A9
:10853000617818225143AA4A8918081D69468A8819
:1085400002A902F0D0FA002812D160780C21484329
:108550009F494018807A0221084002282FD0617874
:10856000182251439E4A8818182102F0AAFA26E0E0
:108570006078182148439A490858002801D0994D3D
:1085800000E0994D69468988607818225043944AE2
:108590001150617818225143914A8918081D694683
:1085A0008A8802A902F074FA6078182250438C4A33
:1085B0008118342318223846A847064600BF0020F9
:1085C00007B0F0BD02460020704770B505460C4666
:1085D000617818225143824A881834231822294688
:1085E00001F094FE0646002E0DD160781821484314
:1085F0007B490858401C002805D1002160781822CA
:108600005043774A1150304670BD024600207047F3
:10861000F8B50446002600276078182148437049C1
:10862000085800281FD060780C214843684940183A
:10863000807A40210840402815D160780C214843B9
:1086400063494018807A2021084020280BD06078A8
:108650001821484362494018061D60781821484394
:108660005F49085A87B261780C225143584A8918E9
:1086700008893A463146A9DF0546002D00D05B4DFA
:108680002846F8BD0146002070470146002902D166
:10869000564833387047FF20087048708870C8709B
:1086A0000020F7E7FFB58BB00F461D4600BF5048CE
:1086B0000068002801D10FB0F0BD00BF1498502809
:1086C00000D9F8E70120029007A8FFF7DEFF064671
:1086D00000BF0196019E002E06D000BF45A255495D
:1086E0000198FDF79AFD00BF00BF002168460177A1
:1086F00008A801700695149805900020019017E0D5
:10870000019881B203AA354801F0F2FC0646002E1A
:108710000BD1082203A90B9802F0E5F9002804D137
:108720000198C1B26846817705E00198401C01902C
:1087300001980728E4D300BF6846807FFF287FD0D8
:10874000042F0AD11498502803D1202008A90870BA
:10875000A0E0402008A908709CE01F49681A1C216D
:1087600002F05AF90446072C1DD205A809900D986D
:10877000002810D16946887F012181402E4A126865
:108780001140002901D0012100E00021002902D17F
:10879000002002907EE06946887F00F0B4FF202030
:1087A00008A9087076E02549681A182102F034F902
:1087B0000446002C47D105A80990202108A8017083
:1087C00068464477807F1C2148430349401838E0BD
:1087D00088240020FFFF0000942300206020002058
:1087E0007024002043A2010079A101004180000013
:1087F000942400202E2E5C2E2E5C2E2E5C536F7542
:108800007263655C626C655C6465766963655F6D07
:10881000616E616765725C6465766963655F6D61F1
:108820006E616765725F7065726970686572616CB0
:108830002E630000C304000068200020582400209C
:108840004AE0069026E0F749681A182102F0E4F899
:108850000446002C19D1302108A8017068464477DD
:108860000121C1770C206043EF494018807A022132
:10887000084002280ED06946497F18225143E94A30
:108880008818182102F01DF904E000200290402011
:1088900008A90870029801281ED1042F06D108A942
:1088A00008780321084308A908700EE0032F06D1B9
:1088B00008A908780121084308A9087005E008A95B
:1088C00008780221084308A9087005A8099008A99A
:1088D00007A80D9A00F05AFF00BFECE67FB50646E8
:1088E000002E02D1D14804B070BD00240BE000BFBF
:1088F00000210C206043CE4A11500C2060438018A8
:10890000817200BF641C002CF1D0002403E02046DB
:10891000FFF7DFFD641C002CF9D01821C14802F0DC
:10892000D0F8002406E02046FFF76EFDFF20C14985
:108930000855641C072CF6D3502168468181072115
:10894000C181BD480290BD4902A801F00BFB05465C
:10895000002D30D10120BA4908703078002821D18B
:1089600000241CE0A1B26A46B44801F0C1FB0546F0
:10897000002D0FD11C216143B24A881800231C220C
:10898000694601F0C3FC0546002D07D00020AC4924
:10899000087006E00020AA49087002E0641C072C59
:1089A000E0D308E06A469089D289504381B2A34857
:1089B00001F01DFD0546284695E770B505460C46B5
:1089C00000BF9F480078002802D19848801F70BDE2
:1089D00000BF002D01D19548F9E7002C01D1934843
:1089E000F5E72068002801D19048F0E7904800683A
:1089F00000280FD18E49206808600622A11D8C48EE
:108A0000001D02F045F820798949887200202870FD
:108A1000002601E0854E0A3E3046D8E770B5044690
:108A200000BF87480078002802D18048801F70BDB1
:108A300000BF002C01D17D48F9E700BF2078012854
:108A400006DA20780C21484379490858002802D1D9
:108A50007648801FEBE700BF00BF6078012807DA87
:108A600060780C21484370494018807A012802D16F
:108A70006E48801CDBE700BF6C4DAD1F60780C2199
:108A8000484369494018807A02210840022809D1E8
:108A900061780C225143644A891808896449091D88
:108AA0007EDF05462846C2E7024600BF64480078DC
:108AB000002802D15D48801F704700BF002A01D105
:108AC0005A48F9E7002901D15848F5E700BF107866
:108AD000012806DA10780C235843554B1858002803
:108AE00002D15248801FE7E700BF00BF507801283D
:108AF00007DA50780C2358434B4BC018807A012872
:108B000002D14A48801CD7E700BF50780C23584355
:108B1000454BC018807A04231840002802D0012059
:108B200008700EE050780C2358433F4BC018807AF1
:108B300040231840002802D00220087001E00020E5
:108B400008700020B8E7F0B5044600BF3C48007844
:108B5000002802D13548801FF0BD00BF002C01D194
:108B60003248F9E7002901D13048F5E708680028C4
:108B700001D12E48F0E78868002801D12B48EBE7A7
:108B800000BF2078012806DA20780C256843284D9C
:108B90002858002802D12548801FDDE700BF0023A8
:108BA0000022002024E01C254543264EAD19AD7E51
:108BB000ED07ED0F002D08D11C254543AD19970099
:108BC0008E68F5511B4EB054521C1C2545431D4E5A
:108BD000AD19AD7E02263540002D08D11C25454338
:108BE000184EAD1910359F000E68F5515B1C401CE6
:108BF000072805D20D799D4202D90D7B9542D2D826
:108C00000B710A730020A7E70246084882307047BC
:108C100070B5044600BF0A480078002814D1034804
:108C2000801F70BD70240020882400200E8000006A
:108C3000942400206D200020A586010060200020E3
:108C40006C2000209423002000BF002C01D1F748A5
:108C5000E7E700BF2078012806DA20780C21484396
:108C6000F3490858002802D1F048801FD9E700BF17
:108C700000BFA078072807DAA0781C214843ED49F7
:108C80004018807EFF2802D1E848801CC9E700BF59
:108C9000A078FFF7DFFB05462846C2E770B504461B
:108CA00000BFE5480078002802D1E048801F70BD71
:108CB00000BF002C01D1DD48F9E700BF2078012872
:108CC00006DA20780C214843D9490858002802D1F7
:108CD000D648801FEBE700BF002600250BE01C20D4
:108CE0006843D4494018807EFF2803D02846FFF708
:108CF000B1FB06466D1C072DF1D33046D7E7FEB514
:108D000004460D4600BFCC480078002802D1C74871
:108D1000801FFEBD00BF002C01D1C448F9E7002D23
:108D200001D1C248F5E700BF2078012806DA207893
:108D30000C214843BE490858002802D1BB48801F77
:108D4000E7E700BF00BF6078012807DA60780C21F0
:108D50004843BA494018807A012802D1B348801CA0
:108D6000D7E700BF00BFA078072807DAA0781C214A
:108D70004843B0494018807EFF2802D1AB48801C90
:108D8000C7E700BFA868002812D0686800280FD085
:108D9000686814280CD22878012809D1637818272C
:108DA0007B43A74FDB19181D6A68A96801F070FEA4
:108DB000A1786A46A34801F09BF90646287880000E
:108DC000A1490A5821466846904706463046A0E722
:108DD0007CB504460D4600BF97480078002802D1B4
:108DE0009248801F7CBD00BF002C01D18F48F9E75D
:108DF000002D01D18D48F5E700BF2078012806DA63
:108E000020780C2148438A490858002802D1874815
:108E1000801FE7E700BF00BFA078072807DAA07827
:108E20001C21484383494018807EFF2802D17F4897
:108E3000801CD7E700BF60780C2148437F49401869
:108E4000807A02210840022802D078488330C9E79E
:108E5000A868002812D1686814280FD22878012841
:108E60000CD160781821484375494018001DA8604E
:108E7000607818214843724908586860A1786A46AA
:108E8000704801F035F90646287880006F490A5885
:108E900021466846904706463046A3E7014600BF94
:108EA00065480078002802D16048801F704700BFE5
:108EB000002901D15D48F9E700BF0878012806DAEA
:108EC00008780C2250435A4A1058002802D15748BB
:108ED000801FEBE700BF00BF8878072807DA887893
:108EE0001C225043534A8018807EFF2802D14F48ED
:108EF000801CDBE700BF4D488230D7E702464B4875
:108F000083307047024649488330704701464748DE
:108F100083307047024600BF47480078002802D1DE
:108F20004248801F704700BF002901D13F48F9E740
:108F3000002A01D13D48F5E700BF1078012806DA84
:108F400010780C2358433A4B1858002802D1374860
:108F5000801FE7E700BF107808700020E2E7FEB549
:108F600004460E46A1786A46364801F0C1F8054627
:108F7000002D49D160780C21484330494018807A4F
:108F800020210840202801D0022E01D1304F04E0DA
:108F9000012E01D12F4F00E02F4FA0781C2250430B
:108FA000244A811800231C226846B8470546002D34
:108FB0001AD1022E18D060780C2148431F4940185E
:108FC000807A2021884361780C2251431B4A8918FA
:108FD0008872607818225043204A81181C23182276
:108FE0006846B847054600BF022E0DD020780C21F8
:108FF00048430F494018807A800013490A58214697
:1090000068469047054600BFFEBD70B504460D4654
:1090100000BF09480078002802D10448801F70BDB5
:1090200000BF002C1CD10148F9E700000E800000B1
:1090300094240020942300206C2000208824002009
:109040007024002060200020F8AB010008AC010073
:1090500043A2010079A101000585010058240020E8
:10906000002D01D1FE48DAE700BF2078012806DA9A
:1090700020780C214843FB490858002802D1F848C1
:10908000801FCCE700BF00BFA078072807DAA078D0
:109090001C214843F4494018807EFF2802D1F04843
:1090A000801CBCE700BF6078FF281CD1287802280C
:1090B00019D0A1781C225143EB4A89180846103078
:1090C0000722294601F0E4FCA07801218140E74A0B
:1090D00012681143E54A116000BF02212046FFF7E4
:1090E0003EFF002601E0DE4EF61F304697E770B5E2
:1090F00004460E4600BFDE480078002802D1D8485A
:10910000801F70BD00BF002C01D1D548F9E7002EAB
:1091100001D1D348F5E700BF2078012806DA20788E
:109120000C214843CF490858002802D1CC48801F61
:10913000E7E700BFCA4D093DA078FF2817D1607846
:10914000FF282AD060780C214843CA494018807A09
:1091500002210840022820D160780C225043C54AE1
:1091600081180722304601F093FC002515E0A07815
:109170001C214843BC494018807E02210840002839
:109180000BD1A0781C225043B74A801801461031F9
:109190000722304601F07CFC00252846B1E77CB56B
:1091A0000446A1786A46B44800F0A2FF0546002DA7
:1091B00013D1617818225143B04A88181C23182211
:1091C000694601F0A3F8A748807A8000AC490A58A4
:1091D000214668469047054600BF7CBDF0B589B082
:1091E00004460026FF20029000BFA1480078002816
:1091F00001D109B0F0BD00BF00BF9A480068002847
:1092000000D1F6E700BF06A8FFF73FFA054600BF0A
:109210002F46002F06D000BF9A4A9B493846FCF7DC
:10922000FCFF00BF00BF0020019007900025201D1B
:109230000490342168468182FF21817600210176E5
:10924000002008902088102813D0A08808AA0221A6
:10925000FFF7BAF80546002D0BD10C2108984843BA
:1092600084494018C17A684681760898C1B2684638
:1092700041762088142879D006DC10280BD01128DC
:1092800079D0132874D110E1172872D0182871D022
:109290005228F7D110E208AF3A4601217B48FFF788
:1092A00093F800900098002807D102210C2238681A
:1092B0005043704A8018817201E0042000900098A9
:1092C0000546002D51D101261121684601730898E9
:1092D000C1B268464176A1880C2208985043654A7D
:1092E0008018018102210C2208985043614A80189D
:1092F00081720C22089951435E4A88180722A11DE9
:1093000001F0C6FB607B304000280AD0607B40083B
:109310005F49085CFF280AD0607B4008085C029027
:1093200005E05A4A02A9A01DFFF7AAF80546002D3C
:109330001BD10298C1B20C22089850434D4A8018A4
:10934000C1720C210898484311464018807A0821C0
:1093500008430C2208995143464A89188872694685
:109360000298887606A8FFF71AFFB0E141E002E014
:10937000ACE1DAE07EE10C21089848433D49401811
:10938000807A022188430C2208995143394A89186E
:1093900088720C210898484311464018807A0821A9
:1093A000084008280ED10C2108984843114640185F
:1093B000807A4021084040280FD1002106A8FFF7FD
:1093C000CEFD0AE06846807EFF2806D06946887E8A
:1093D000FFF71AF8FF206946887610210C220898BA
:1093E0005043244A8018817201261220694608736E
:1093F0006DE10C21089848431E494018C07AFF28A7
:1094000023D1E28902A90020FFF73AF80546002D92
:109410001BD10298C1B20C2208985043154A8018FB
:10942000C1720C210898484311464018807A0821DF
:1094300008430C22089951430E4A891888726946DC
:109440000298887606A8FFF7AAFE0C2108984843E0
:1094500008494018C07AFF2821D01821089819E03F
:109460000E80000094240020942300206820002017
:109470006C20002088240020602000205824002038
:1094800008AC0100F487010037090000FFFF00006D
:109490006D2000204843DD494018001D0190A08840
:1094A0000022019981DF054611E113206946087306
:1094B000A088D74A00217FDF0546002D02D00795FE
:1094C000002631E00C2108984843D2494018807AA0
:1094D000042108430C2208995143CE4A8918887206
:1094E00001260C210898484311464018C07AFF28ED
:1094F0001AD000BF162069460873182208995143F4
:10950000C54A8918081D142101F0DBFA0C210898BE
:109510004843C0494018807A202108430C2208990A
:109520005143BC4A89188872D1E00C2108984843FD
:10953000B8494018807A042188430C220899514385
:10954000B44A891888721420694608730126A079E4
:10955000002802D0A07907908BE018210898484392
:10956000AA494118E07A8870182108984843A74909
:109570004118A07A4870182208995143A34A8918C3
:10958000081D142221460C3101F082FA0C210898A2
:109590004843A0494018807A40210840402868D1BB
:1095A0000C21089848439B494018807A08210843B9
:1095B0000C2208995143974A891888720C210898FF
:1095C000484311464018C07AFF2840D10C22089821
:1095D00050430A46811802A800F09DF80546002D68
:1095E00033D16946029888760298C1B20C22089855
:1095F0005043884A8018C172A1891C2202985043A6
:10960000864A80180183E07A4007C00F002817D0EF
:109610001C2208995143814A881810222146203182
:1096200001F036FA1C21089848437C494018807E96
:10963000410849001C2208985043784A80188176D6
:10964000012106A8FFF78BFC13E0079511E00C2120
:10965000089848436F494018807A202108430C221B
:10966000089951436B4A89188872002106A8FFF7B0
:1096700076FC2CE00C210898484366494018807A13
:10968000402108430C2208995143624A8918887284
:109690001520694608730020079001265C48001FCA
:1096A000807A80005E4A115806A888470546002D3A
:1096B00001D05C4807900AE05548001F807A80007E
:1096C000574A115806A88847079000E000BF00BF1E
:1096D000002E16D003A906A8079A00F057F868468E
:1096E000007B12280DD100BF0C210898484349493E
:1096F0004018807A012802D00898FEF7EAFE00BFE1
:1097000000BF00BF75E501218140474A12688A43C6
:1097100045490A607047F8B505460E46414FBF1CE3
:1097200000242EE01C2060433C494018807EFF2826
:1097300026D13078022814D01C2060434018807E47
:10974000022188431C216143344A891888761C21F0
:1097500061438918084610300722314601F098F914
:109760000BE01C2060432D494018807E41084900D1
:109770001C206043294A801881762C70002702E063
:10978000641C072CCED300BF3846F8BDF8B504469C
:109790000D4616461E48001F0768324629462046D9
:1097A000B847F8BD02460020704770B505460E4622
:1097B00031462846FEF7AAFE0446002C02D100BF1F
:1097C00000BF0446204670BD02460020704770B5B9
:1097D00005460E4631462846FEF7F7FE0446002CA5
:1097E00002D100BF00BF0446204670BD01460020E4
:1097F000704770B505462846FEF70AFF0446002C60
:1098000002D100BF00BF0446204670BD582400208E
:109810009824002088240020702400209423002015
:1098200018AC0100418000006820002000231421B2
:109830004143FC4A53541421414389184B8001236E
:109840001421414389188B60002314214143891856
:10985000CB601421414389180B61142141438918BD
:109860008B80704710B50020EF490880EF490870E1
:10987000EC49091F087048708870002403E02046F6
:10988000FFF7D4FF641C0A2CF9D310BDFFB583B0D9
:1098900004460F4615460326E448007800280BD1FD
:1098A000002D06D10698002803D10220DF49087058
:1098B00002E00120DD490870DC480078030001F077
:1098C00031F907FD05314E84BAD7FD00D84840690B
:1098D000401C002808D001221207126991B2D44A14
:1098E000506901F099F802E0012000074069401E2C
:1098F00001210907096989B2484302900120000744
:1099000000690004820C01200007006980B27843DE
:109910000146029821DF0646002E02D10220C349EB
:109920000870D0E0384620DF0646002E16D1002D04
:1099300011D1069800280AD12078042803D10720E5
:10994000BA4908700AE00520B849087006E004200A
:10995000B649087002E00320B4490870B3E0B44887
:109960004069401C002808D001221207126991B2F8
:10997000AF4A506901F050F802E001200007406949
:10998000401E01210907096989B2484301210907DD
:109990000290096989B2794308462A46029921DF73
:1099A0000646002E10D1069800280AD120780428F7
:1099B00003D106209D49087006E005209B490870E8
:1099C00002E00420994908707DE099484069401CF4
:1099D000002808D001221207126991B2944A5069F6
:1099E00001F01AF802E0012000074069401E012141
:1099F0000907096989B24843A900401861884018DD
:109A0000012109070290096989B27943AA008918DE
:109A100062888818069A029921DF0646002E09D12D
:109A20002078042803D106208049087002E0052030
:109A30007E49087047E001200007006980B2784342
:109A4000AB00C0180290608882082169029821DF6B
:109A50000646002E0BD1002D06D10698002803D112
:109A600007207249087002E00620704908702AE059
:109A70006F484069401C002808D001221207126973
:109A800091B26B4A506900F0C7FF02E00120000765
:109A90004069401E01210907096989B248430190C4
:109AA00001200007006981B2019800F0B5FF029023
:109AB00020DF0646002E04D1072000E002E05B49CB
:109AC000087000E000BF00BF304607B0F0BDF0B541
:109AD00085B00F275348001F00781421484351498F
:109AE0004418E5682078022804D0042823D00528EB
:109AF0006FD16FE0206903904B4800888602608830
:109B0000801B0490039880190390A0888019451940
:109B1000012189020498884206D2049882082846C6
:109B2000039921DF074605E0FF2201322846039909
:109B300021DF074681E0A06800013E494018008906
:109B40000490A0680001401840890390A0680001BB
:109B50004018406802900298A84205D103990498E1
:109B600048436188884202D0A06802280DD10120B4
:109B70000007006981B2284600F04EFF2A49098893
:109B80004618304620DF074622E001200007006922
:109B900081B2284600F040FF064601200007006918
:109BA00080B27043281A80080190012000070069E4
:109BB00080B2711C484361884919401A800800909E
:109BC00031462046009B019AFFF760FE074600BF22
:109BD00033E031E001200007006981B2284600F03F
:109BE0001BFF0646A088411901200007006980B2CA
:109BF0007043081A80080490A088401961884218B0
:109C000001200007006980B2711C4843801A800857
:109C1000039031462046039B049AFFF737FE074620
:109C20000BE00000A42400207C2000207F200020E6
:109C3000001000106C25002000BF00BF002F02D1D3
:109C40000120F9498870384605B0F0BDFFB581B0F4
:109C5000064617460024F44840780A2837D0F248D0
:109C60000078F14949784018C4B20A2C02DB20463A
:109C70000A38C4B214206043EB49091D0E54142065
:109C8000604340180761142060434118029805C8DA
:109C9000CA60886014206043E34A121D801804994A
:109CA00041801420604380180A9981800025101F8C
:109CB0008078002805D1FFF70AFF0546112D00D155
:109CC0000025D9484078401CD749487000E0042559
:109CD000284605B0F0BD10B50024D34840780028D0
:109CE00007DDFFF7F4FE0446002C02D0112C00D152
:109CF0000024204610BDF8B50446CB480078142156
:109D00004843C949091D0E5C081F007814214843C7
:109D1000C549091D401880680001C4490D58C24852
:109D2000007814214843C049091D40184088091F84
:109D30000090097814225143BB4A121D89180B69FF
:109D4000111F097814225143B74A121D8918084679
:109D5000083022463146A847F8BDFEB50546002624
:109D6000B148807801287DD10020AF498870B04883
:109D70000078082811D1022D03D10020AC490870C9
:109D800002E00020AB490870FFF7A5FF0646002E51
:109D900002D03046FFF7AFFFFEBD022D02D0032DEB
:109DA00079D174E0A0480078142148439E49091DE8
:109DB0004418A1480088401C9F4908802078022848
:109DC00007D10846008880026188884201DB0120B3
:109DD00000E0002007462078052805D19448007847
:109DE000072801D1012000E00020029020780428FB
:109DF00005D18F480078072801D1012000E000201C
:109E00000190207804280BD18B480088800261885B
:109E1000884205DB86480078002801D1012000E057
:109E2000002000900298002807D10198002804D152
:109E30000098002801D1002F1FD000207C49087015
:109E40003046FFF758FF78490878FFF7EFFC00200D
:109E50007949088074484078401E73494870084624
:109E6000007800E01AE0401C0870084600780A28D4
:109E700003DB084600780A380870FFF72CFF064617
:109E8000002E02D03046FFF736FF05E003E00D203C
:109E9000FFF731FF00E000BF00BF00BF00BF7BE75E
:109EA00070B5FFF7DFFC0020644908806448406912
:109EB000401C002808D001221207126991B2604AA2
:109EC000506900F0A9FD02E0012000074069801EF2
:109ED00001210907096989B248435A4908600020ED
:109EE0005549088000BF0DE0002102014F4B9950F9
:109EF0000201D21811810201D21891810201D218F7
:109F00005181401C0028EFD00820494908704C4876
:109F10004069401C002808D001221207126991B242
:109F2000474A506900F078FD02E0012000074069CF
:109F3000401E01210907096989B2484306460120EC
:109F40000007006981B2304600F066FD054620DF5B
:109F50000446002C04D1012033498870354908702B
:109F6000204670BDF8B504460D4600BF3148007864
:109F7000002801D10820F8BD00BF002C01D10E201F
:109F8000F9E7002D01D10E20F5E72068002801D166
:109F90000E20F0E7A08801210907096989B28842EB
:109FA00002DCA088102801DA0720E4E7E088002816
:109FB00030D023484069401C002808D001221207F5
:109FC000126991B21E4A506900F026FD02E001209C
:109FD00000074069401E01210907096989B2484309
:109FE000E188A2885143174A12688918884211D320
:109FF000E088A188484301210907096989B288429C
:10A000000ADDA18801221207126990B200F01AFD40
:10A01000002901D00720AEE720798007800F0028B3
:10A0200012D00720A7E70000A02400206C25002004
:10A030007F2000207E2000207C2000207420002033
:10A040000010001078200020FE480088012801D16F
:10A05000042090E7FB4800882860FB48006868609F
:10A06000F84909880901F94A891868684860F5497A
:10A070000988090120685050A088F249098809011F
:10A0800089180881E088EF49098809018918488101
:10A090000027A688E1884E4300BF781C87B20120C4
:10A0A0000007006980B2B04205D2012000070069B4
:10A0B00080B2361A00E0002601200007006980B255
:10A0C000E14909684018E04908600120000700697B
:10A0D00080B2B042E1D9DB4800880001DB4940187A
:10A0E0008781D8480088401CD6490880002042E774
:10A0F0003CB5034600BFD6480078002801D10820AF
:10A100003CBD00BF002B01D10E20F9E7002A01D190
:10A110000E20F5E71868002805D118680001CB4C1F
:10A120002058002801D10720EAE75C6818680194EC
:10A130000090019C18680001C44D401900894843F3
:10A1400020180190009800012C4600194089009CBD
:10A150002401641924896043009C24016419646803
:10A160000019019CA04201D80720C9E7019C009872
:10A17000546010600020C3E7F8B504460E4615464B
:10A180001F4600BFB2480078002801D10820F8BD62
:10A1900000BF002E01D10E20F9E7002C01D10E20C6
:10A1A000F5E72068002805D120680001A749085874
:10A1B000002801D10720EAE720680001A3494018E0
:10A1C000408921680901A14A891809894843216801
:10A1D00009018918496840186168884201D8072038
:10A1E000D5E7002D06D02068000198494018008965
:10A1F000A84201DA0720CAE7E81921680901934A51
:10A2000089180989884201DD0720C0E7304600F03F
:10A210005CF9002804D0384600F057F9002801D135
:10A220001020B4E7606800F050F9002801D1102038
:10A23000ADE72B463246214602200097FFF706FD88
:10A24000A5E7F8B504460E4615461F4600BF8048F0
:10A250000078002801D10820F8BD00BF002E01D1F0
:10A260000E20F9E7002C01D10E20F5E72068002828
:10A2700005D12068000175490858002801D1072040
:10A28000EAE7206800017149401840892168090106
:10A290006E4A891809894843216809018918496863
:10A2A00040186168884201D80720D5E7002D06D004
:10A2B00020680001654940180089A84201DA07209A
:10A2C000CAE7E81921680901604A891809898842A2
:10A2D00001DD0720C0E7304600F0F7F8002804D081
:10A2E000384600F0F2F8002801D11020B4E7606889
:10A2F00000F0EBF8002801D11020ADE72B463246E4
:10A30000214605200097FFF7A1FCA5E7FFB581B026
:10A310000C4615461E4600BF4D480078002802D165
:10A32000082005B0F0BD00BF002C01D10E20F8E7D9
:10A330000198002801D10E20F3E72068002805D1FC
:10A340002068000141490858002801D10720E8E7AA
:10A35000206800013D4940184089216809013B4AB5
:10A3600089180989484321680901891849684018F2
:10A370006168884201D80720D3E7002D06D0206805
:10A380000001324940180089A84201DA0720C8E7D5
:10A39000A819216809012D4A89180989884201DD17
:10A3A0000720BEE7019800F090F8002804D030465E
:10A3B00000F08BF8002801D11020B2E7606800F0AF
:10A3C00084F8002801D11020ABE7606881192A4683
:10A3D000019800F05DFB0095206800011B490F58B3
:10A3E000002203212046019BB847002099E7F8B5D9
:10A3F00004460D4600BF16480078002801D1082009
:10A40000F8BD00BF002C01D10E20F9E7206800281C
:10A4100005D1206800010D490858002801D1072006
:10A42000EEE72068000109494018408921680901C8
:10A43000064A891809894843216809018918496829
:10A44000401807E074200020782000206C250020B0
:10A450007E2000206168884201D80720D0E760682C
:10A4600000F033F8002801D11020C9E723681B0150
:10A470001A4FDB1962685B68D01A226812013B46EA
:10A48000D218118900F0C8FA002901D00720B7E7D7
:10A4900000202B460246214600900420FFF7D6FB01
:10A4A00006463046ACE7014600BF0D48007800285C
:10A4B00001D10820704700BF002901D10E20F9E723
:10A4C0000848407808600020F4E701468807800FBC
:10A4D000002801D1012070470020FCE76C250020F6
:10A4E0007E200020A024002001B505E00098401E39
:10A4F00000900348FBF7EEFD00980028F6D108BD58
:10A50000E70300000346002901D10E207047002A0E
:10A5100003D0501E1040002801D00920F6E7196032
:10A52000501E988000209860D86000BFEEE7024679
:10A53000D0689368C01A9388984209D8D0689388E5
:10A54000184013681954D068401CD0600020704730
:10A550000420FCE70246D0689368C01A0AD09068CD
:10A56000938818401368185C08709068401C9060CD
:10A57000002070470520FCE70146C868886000207D
:10A58000704700000020F84908700120F749C860B2
:10A5900048600020F649086070471CB50120F34967
:10A5A000C860F14908700320694608706846F1499F
:10A5B000096888471CBD08B5EB480078022802D01E
:10A5C0000120EA4988606946EB48FFF7C3FF00288D
:10A5D00002D0FFF7E2FF08BD8020E84988606846A6
:10A5E0000078E349C8610220DF4908708020E34910
:10A5F000486000BFEFE710B5DF48C068DE498968F2
:10A60000401A02D0FFF7D7FF01E0FFF7C6FF10BDE9
:10A6100010B5D5480078012802D0022807D102E001
:10A62000FFF7B0FF04E00320CF49087000E000BF4F
:10A6300000BF10BD10B5CC480078002802D0032818
:10A6400017D112E00420CA4908600120C7490860F8
:10A65000C948C068C8498968401A02D0FFF7ABFFF3
:10A6600002E00120C049087004E00220BE490870E1
:10A6700000E000BF00BF10BD10B5BB480078012846
:10A6800007D0022804D0032806D1FFF77BFF04E09F
:10A6900000BFFFF7B0FF00E000BF00BF10BD10B566
:10A6A000B1480078012801D1FFF785FF10BD10B532
:10A6B000FFF768FF10BD10B50446230000F032FA22
:10A6C0000504070D0A101300FFF7A2FF0CE0FFF7C7
:10A6D000B1FF09E0FFF7D0FF06E0FFF7E0FF03E07E
:10A6E000FFF7E5FF00E000BF00BF10BD1CB5A448A8
:10A6F0008068002830D00020A1498860A148C06847
:10A70000A0498968401A9F498988884220D2984880
:10A710008069C1B29B48FFF70AFF0446002C08D0AD
:10A720000120694608700194684692490968884783
:10A7300011E09448C06893498968401A01280AD1F9
:10A7400000206946087068468A490968884702E01F
:10A7500001208D49087000BF8948C069002805D0D4
:10A7600000208749C8610320FFF7A5FF8448406A9D
:10A7700000280FD00020824948627D488038046854
:10A7800004600220694608700194684679490968A6
:10A79000884700BF1CBD0420754908600020784927
:10A7A0008860C86172484030C06A40084000704903
:10A7B0004031C8620020C0436D49886008610120B3
:10A7C0006A498860086070470421694A1160002165
:10A7D0006B4A9160D16166494031C96A01221143D7
:10A7E000634A4032D162C178614A116181789160D7
:10A7F00001215E4A916011607047FFB581B0044647
:10A800000D460020584908705A4903980860002DE9
:10A8100002D1072005B0F0BDA88882B25948296846
:10A82000FFF770FE0646002E01D03046F2E7A889F9
:10A8300082B25148A968FFF765FE0646002E01D096
:10A840003046E7E7607803210522120707231B0241
:10A85000D2188300D15000BF207800218A00052340
:10A860001B0707273F02DB198700DA5100BF60781A
:10A870003F49C86020784861A06848626079002834
:10A8800004D00E203A494031C86203E00020384924
:10A890004031C862FFF77FFF012033490870801EF6
:10A8A00036498860A1208000486002200121814053
:10A8B000364A116000BF049900F073F8022000F0DE
:10A8C00069F80020A6E770B5044602200121814006
:10A8D0002F4A116000BF21462A48FFF73BFE05467C
:10A8E00029480078002808D021488069C1B225484D
:10A8F000FFF71DFE002024490870022000F04AF8EE
:10A90000284670BD70B5044621461B48FFF70FFE70
:10A9100005460220FFF7CFFE284670BD10B5194846
:10A92000FFF72AFE0446002C01D0204610BD124835
:10A93000FFF722FE0446002C01D02046F6E7002057
:10A94000F4E7014608480078002801D0012000E023
:10A95000002008700020704710B504460420FFF75F
:10A96000AAFE002010BD000084200020002000402E
:10A9700000250040802000208C250020002300407E
:10A98000002100407C2500208520002080E200E09E
:10A9900080E100E0C206D20E012191401C4A116004
:10A9A000704710B5002819DA1A4A03071B0F083B35
:10A9B0009B089B00D2588307DC0EFF23A3409A43D9
:10A9C0008B071B0E8407E40EA3401A43114B0407A8
:10A9D000240F083CA408A4001A5118E00C4A0323D1
:10A9E0001B02D21883089B00D2588307DC0EFF237A
:10A9F000A3409A438B071B0E8407E40EA3401A431F
:10AA0000034B032424021B198408A4001A5110BD0F
:10AA100000E100E01CED00E030B50B4601460020EF
:10AA20002022012409E00D46D5409D4205D31D4654
:10AA30009540491B2546954040191546521E002D4C
:10AA4000F1DC30BD70B500242546002801DA012470
:10AA50004042002901DA01254942FFF7DDFFAC42FF
:10AA600000D04042002C00D0494270BD0549064A42
:10AA700008685043054A801808604008704701493B
:10AA800008607047882000206D4EC64139300000B4
:10AA900003460B439B0703D009E008C9121F08C0F7
:10AAA000042AFAD203E00B780370401C491C521EA2
:10AAB000F9D27047D2B201E00270401C491EFBD2AD
:10AAC00070470022F6E710B513460A4604461946B9
:10AAD000FFF7F0FF204610BD421C0178401C002902
:10AAE000FBD1801A704730B504460020034600E0D1
:10AAF0005B1C934203D2E05CCD5C401BF8D030BDC0
:10AB0000064C0125064E05E0E36807CC2B430C3CC0
:10AB100098471034B442F7D3FBF7D6FA38AC0100AB
:10AB200058AC010030B47446641E2578641CAB42F6
:10AB300004D3635D5B00E31830BC18471D46F8E79B
:10AB400002E008C8121F08C1002AFAD170477047F6
:10AB5000002001E001C1121F002AFBD17047000054
:10AB60001C0ED773A2AC44059515ADFA7FE3CF4513
:10AB7000E3FF0100E5690100556A0100156A010063
:10AB8000F5730100457401007174010081740100C6
:10AB9000837401001F7101000D690100156201003D
:10ABA0001169010013690100D76E0100CF6F010028
:10ABB00007730100636D01007B6D01008D6D010065
:10ABC000F16D010099620100170400009704000074
:10ABD00027050000750500008CF997A6EE94E3BCEC
:10ABE000F821B2600000000000050701000000002D
:10ABF0000000000000000000A59701000D85010085
:10AC0000C5850100AB970100C9970100CB85010004
:10AC10000B860100CF970100ED970100118601001E
:10AC200085860100F3970100FFFFFFFF4A554D4164
:10AC3000204445564943450058AC010000200020FF
:10AC40008C00000040AB0100E4AC01008C2000202F
:10AC5000140D000050AB01000024F4008CF997A6FD
:10AC6000EE94E3BCF821B2604A554D410000FFFF6D
:10AC70002CAC0100004003000000000000000000B8
:10AC800000000000000000000000000000000000C4
:10AC900000000000000000000000000000000000B4
:10ACA00000000000000000000000000000000000A4
:10ACB0000000000000000000000000000000000094
:10ACC0000000000000000000000000000000000084
:10ACD0000000000000000000000000000000000074
:04ACE0000000000070
:04000005000160C1D5
:00000001FF
